:020000040800F2
:10000000001000204D2400082123000825230008AB
:10001000292300082D2300083123000800000000D8
:100020000000000000000000000000003523000870
:1000300039230008000000003D2300084123000888
:1000400095240008952400089524000895240008AC
:10005000952400089524000895240008952400089C
:10006000952400089524000895240008952400088C
:10007000952400089524000895240008952400087C
:10008000912300089524000800000000FD230008CB
:10009000952400089524000895240008952400085C
:1000A0009524000895240008952400086923000879
:1000B00095240008000000009524000800000000BE
:1000C00095240008000000009524000895240008ED
:1000D00095240008952400089524000800000000DD
:1000E000000000000000000095240008952400088E
:1000F00095240008952400089524000895240008FC
:04010000952400083A
:1001040010B5054C237833B9044B13B10448AFF34D
:1001140000800123237010BD1000002000000000A7
:100124001C26000808B5034B1BB103490348AFF371
:10013400008008BD00000000140000201C260008F8
:1001440080F0004002E000BF81F0004142001FBF88
:100154005FEA410392EA030F7FEA226C7FEA236C91
:100164006AD04FEA1262D2EB1363C1BFD218414086
:1001740048404140B8BF5B42192B88BF704710F01C
:10018400004F40F4000020F07F4018BF404211F0BF
:10019400004F41F4000121F07F4118BF494292EA27
:1001A400030F3FD0A2F1010241FA03FC10EB0C0053
:1001B400C3F1200301FA03F100F0004302D54942E0
:1001C40060EB4000B0F5000F13D3B0F1807F06D38D
:1001D40040084FEA310102F10102FE2A51D2B1F185
:1001E400004F40EBC25008BF20F0010040EA03007A
:1001F4007047490040EB0000013A28BFB0F5000FFA
:10020400EDD2B0FA80FCACF1080CB2EB0C0200FAAF
:100214000CF0AABF00EBC25052421843BCBFD040FE
:100224001843704792F0000F81F4000106BF80F478
:1002340000000132013BB5E74FEA41037FEA226C3B
:1002440018BF7FEA236C21D092EA030F04D092F006
:10025400000F08BF0846704790EA010F1CBF00203A
:10026400704712F07F4F04D1400028BF40F0004097
:10027400704712F100723CBF00F50000704700F0B7
:10028400004343F0FE4040F4000070477FEA2262DE
:1002940016BF08467FEA23630146420206BF5FEAAF
:1002A400412390EA010F40F4800070474FF00003AF
:1002B40004E000BF10F0004348BF40425FEA000C76
:1002C40008BF704743F0964301464FF000001CE01E
:1002D40050EA010208BF70474FF000030AE000BF74
:1002E40050EA010208BF704711F0004302D54042B2
:1002F40061EB41015FEA010C02BF84460146002024
:1003040043F0B64308BFA3F18053A3F50003BCFA3E
:100314008CF2083AA3EBC25310DB01FA02FC6344EB
:1003240000FA02FCC2F12002BCF1004F20FA02F2F2
:1003340043EB020008BF20F00100704702F12002E5
:1003440001FA02FCC2F1200250EA4C0021FA02F246
:1003540043EB020008BF20EADC7070474FF0FF0C4B
:100364001CEAD0521EBF1CEAD15392EA0C0F93EA46
:100374000C0F6FD01A4480EA010C400218BF5FEAE8
:1003840041211ED04FF0006343EA501043EA51115B
:10039400A0FB01310CF00040B1F5000F3EBF490055
:1003A40041EAD3715B0040EA010062F17F02FD2A59
:1003B4001DD8B3F1004F40EBC25008BF20F001003C
:1003C400704790F0000F0CF0004C08BF49024CEA53
:1003D400502040EA51207F3AC2BFD2F1FF0340EAE5
:1003E400C250704740F400004FF00003013A5DDC56
:1003F40012F1190FDCBF00F000407047C2F1000297
:10040400410021FA02F1C2F1200200FA02FC5FEA83
:10041400310040F1000053EA4C0308BF20EADC70CD
:10042400704792F0000F00F0004C02BF400010F43F
:10043400000F013AF9D040EA0C0093F0000F01F0EC
:10044400004C02BF490011F4000F013BF9D041EA0E
:100454000C018FE70CEAD15392EA0C0F18BF93EA10
:100464000C0F0AD030F0004C18BF31F0004CD8D13A
:1004740080EA010000F00040704790F0000F17BFC1
:1004840090F0004F084691F0000F91F0004F14D007
:1004940092EA0C0F01D142020FD193EA0C0F03D15F
:1004A4004B0218BF084608D180EA010000F0004062
:1004B40040F0FE4040F40000704740F0FE4040F43D
:1004C400400070474FF0FF0C1CEAD0521EBF1CEADC
:1004D400D15392EA0C0F93EA0C0F69D0A2EB0302FA
:1004E40080EA010C49024FEA402037D04FF0805394
:1004F40043EA111143EA10130CF000408B4238BF59
:100504005B0042F17D024FF4000C8B4224BF5B1A66
:1005140040EA0C00B3EB510F24BFA3EB510340EAB4
:100524005C00B3EB910F24BFA3EB910340EA9C0062
:10053400B3EBD10F24BFA3EBD10340EADC001B01D2
:1005440018BF5FEA1C1CE0D1FD2A3FF650AF8B4276
:1005540040EBC25008BF20F0010070470CF0004C83
:100564004CEA50207F32C2BFD2F1FF0340EAC250AE
:10057400704740F400004FF00003013A37E792F06F
:10058400000F00F0004C02BF400010F4000F013ACD
:10059400F9D040EA0C0093F0000F01F0004C02BFC8
:1005A400490011F4000F013BF9D041EA0C0195E731
:1005B4000CEAD15392EA0C0F08D142027FF47DAFCA
:1005C40093EA0C0F7FF470AF084676E793EA0C0FBA
:1005D40004D14B023FF44CAF08466EE730F0004CB8
:1005E40018BF31F0004CCAD130F000427FF45CAF48
:1005F40031F000437FF43CAF5FE700BF4FF0FF3CB6
:1006040006E000BF4FF0010C02E000BF4FF0010C08
:100614004DF804CD4FEA40024FEA41037FEA226CD1
:1006240018BF7FEA236C11D001B052EA530C18BFF3
:1006340090EA010F58BFB2EB030088BFC81738BF58
:100644006FEAE17018BF40F0010070477FEA226C46
:1006540002D15FEA402C05D17FEA236CE4D15FEA42
:10066400412CE1D05DF8040B704700BF8446084676
:100674006146FFE70FB5FFF7C9FF002848BF10F137
:10068400000F0FBD4DF808EDFFF7F4FF0CBF01207C
:1006940000205DF808FB00BF4DF808EDFFF7EAFF06
:1006A40034BF012000205DF808FB00BF4DF808EDC1
:1006B400FFF7E0FF94BF012000205DF808FB00BFB6
:1006C4004DF808EDFFF7D2FF94BF012000205DF83C
:1006D40008FB00BF4DF808EDFFF7C8FF34BF012049
:1006E40000205DF808FB00BF4FEA4002B2F1FE4F64
:1006F4000FD34FF09E03B3EB12620DD94FEA0023E0
:1007040043F0004310F0004F23FA02F018BF4042B8
:1007140070474FF00000704712F1610F01D142029F
:1007240005D110F0004008BF6FF0004070474FF053
:100734000000704742000ED2B2F1FE4F0BD34FF0CF
:100744009E03B3EB126209D44FEA002343F0004343
:1007540023FA02F070474FF00000704712F1610F66
:1007640001D1420202D14FF0FF3070474FF0000038
:10077400704700BF2DE9F041002210214FF0904056
:1007840000F0F0FF002000F027FC044601221021B5
:100794004FF0904000F0E6FF134A1449D2E9007884
:1007A4000B88C4F30F10C6199BB248F10007F41A62
:1007B40067F10005C2E90045DFF834C008800CCABF
:1007C400BCF8000080B2101A63F10003002BC0F3E0
:1007D4000B0005DA01386FEA00506FEA105001305F
:1007E40080B2BDE8F08100BF380000202C0000205A
:1007F4002E00002010B5FFF7BDFF0446FFF756FD9D
:100804000C49FFF7ABFD0C4B0C49A3FB0423024638
:10081400E01A03EB50035B0A03EBC30303EB8313FC
:10082400E31A0A6098B2FFF745FD0549FFF796FD04
:1008340010BD00BFDB0FC93AC1011CC0500000202D
:10084400E0ED2F3C38B5094D094CD5E90023D4E936
:100854000001111A09B2074800F0AEF8064B5860BF
:10086400D5E90023C4E9002338BD00BF38000020C7
:100874003000002040000020500000202DE9F04D01
:10088400002700244FF0000A4FF0000B86B005AE9D
:1008940004AD4FF47A7001F01FFE03AB3A463846BC
:1008A4004FF07C51CDE9005600F0A4F8059A049964
:1008B400039800F0FBFB4FF4967001F00DFEDFF897
:1008C4005C80174B224610214FF09040A8F800405E
:1008D400C3E900AB00F046FF204600F07DFB044670
:1008E400012210214FF0904000F03CFFC4F30F149C
:1008F40003AB3A463946384601960095A8F80040BD
:1009040000F078F80398059A049900F0CFFB4FF4AF
:10091400967001F0E1FD06B0BDE8F08D2E000020D8
:100924003800002070B500260446154D294620469F
:10093400FFF7D0FE78B131462046FFF7CBFE50B129
:1009440020462946FFF700FC044629462046FFF7C7
:10095400C1FE0028EFD131462046FFF79DFE28B1A5
:1009640020462946FFF7F2FB0446DFE70549204607
:10097400FFF7F4FCFFF7B8FE034B53F8200070BDFB
:10098400DB0FC94083F9A2426026000810B5074C6A
:1009940010220021204601F0B1FD00230449054A3C
:1009A40021606260E360A36010BD00BF40000020CE
:1009B400F74DEE3D773F773E38B501F1C7039BB263
:1009C400B3F5C77F044602D9C068A06038BD0846A5
:1009D400FFF770FC2168FFF7C1FCA1680546606859
:1009E400FFF7BCFC01462846FFF7B0FBE060A060BF
:1009F40038BD00BF2DE9F84304460E462B48214676
:100A040090461D46FFF7A0FBFFF78CFF07462046E4
:100A1400FFF788FF314604463846FFF79FFC4146FE
:100A240081462046FFF79AFC01464846FFF78CFBB7
:100A34004FF078518146FFF791FC01464FF07C500E
:100A4400FFF782FB4FF07C5128604846FFF786FC95
:100A54000346414638461F46FFF780FC03463146AD
:100A640020461C46FFF77AFC01462046FFF76EFB42
:100A74000F49FFF773FC01463846FFF765FB4FF05B
:100A84007851FFF76BFC4FF07C51FFF75FFB044696
:100A9400089B4FF07F501C602968FFF755FB2146E7
:100AA400FFF752FB099B1860BDE8F883DA0FC93FD2
:100AB400D7B35D3F00222DE9F04F0027002487B013
:100AC40005AB019304AB10464FF07C51009303AB8C
:100AD400FFF790FF059A0499039800F0E7FA4FF4A2
:100AE4007A7001F0F9FC32264FF07C5AA1463D465B
:100AF400DFF8FC80FFF73EFEAC468646E6450DF186
:100B0400140CCDF804C00DF1100C03ABCDF800C0EB
:100B14004A462046514607F1010B88BF1FFA8BF75E
:100B24007546FFF767FF41462046FFF70FFB059A1E
:100B340004990446039800F0B9FA013E142001F028
:100B4400CBFC16F0FF06D5D132264FF0000A4FF049
:100B54007C59DFF89C80FFF70DFEAC468646E645DF
:100B64000DF1140CCDF804C00DF1100C03ABCDF84D
:100B740000C052462046494607F1010B38BF1FFA10
:100B84008BF77546FFF736FF41462046FFF7DCFA40
:100B9400059A04990446039800F088FA013E14204B
:100BA40001F09AFC16F0FF06D5D105AA01920022A5
:100BB40004A9104603AB00911146FFF71BFF0398ED
:100BC400059A049900F072FA4FF4967001F084FCCF
:100BD4004A2F04D9074B1E7007B0BDE8F08F182FB9
:100BE40005D80122034B1A7007B0BDE8F08FFEE769
:100BF400CDCC4C3E5C000020F8B5124C124D06469C
:100C040024220021204601F079FC242200212846D8
:100C140001F074FC00234FF07E5E0C4A0C4FDFF8A9
:100C240034C00D480D493E70C4F814E0C4F818C02F
:100C340020606260A1600A4AE3610A4B6A61AB61A9
:100C4400F8BD00BF88000020600000200AD7A33D43
:100C540084000020000080BF8FC2753D0AD7233C6A
:100C64000000C8420000C8C2F8B504460069FFF796
:100C74006BFAE1680646FFF769FAE5690746294613
:100C8400FFF70AFD38B905F1004538462946FFF754
:100C940021FD00282DD02168E5603046FFF75EFB7A
:100CA4000346616828461D46FFF758FB014628465F
:100CB400FFF74CFA216A05463046FFF745FAA1686A
:100CC400FFF74CFB01462846FFF740FA0546A769A3
:100CD400294638462662FFF7FDFC28B9676929468C
:100CE4003846FFF7D9FC08B13846F8BD2F463846D8
:100CF400F8BD3D46CFE700BF2DE9F04F8DB0E84683
:100D04000021242203A801F07FFC514B514A52498F
:100D14001B88097814785148514A1B04007843EA27
:100D2400410312784F49234343EA8003022A03C94B
:100D3400029388E8030075D0D3B2032B7DD04A4BCD
:100D4400DFF828A1986801F0DDFB0446DFF8209164
:100D54000390DAF8000001F0D5FB0346DAF804004A
:100D6400049301F0CFFB0590DAF8080001F0CAFB08
:100D74000346DAF81C00069301F0C4FB0790D9F887
:100D8400000001F0BFFB0890D9F8040001F0BAFBA1
:100D94000990D9F8080001F0B5FB0346D9F81C0006
:100DA4000A9301F0AFFB0125324F05AE0B9056F8C4
:100DB4000C3C4FEA146E4FEA136B4FEA134A4FEAA6
:100DC40013294FEA144C220AE8B241468DF8033045
:100DD4008DF804E08DF805C08DF806208DF80740E5
:100DE4008DF800B08DF801A08DF8029000F02CFB76
:100DF4002021384600F0BCFC0246B2FA82F22021DF
:100E04003846520900F0AEFC0135142001F064FBB1
:100E1400062D06F1080602D056F8084CC7E70DB0B7
:100E2400BDE8F08FDFF844A0DFF84490DAF8100052
:100E340001F068FB044603908BE7DFF83490DFF899
:100E44002CA0D9F8100001F05DFB0446039080E764
:100E54002E0000205C000020000000200100002083
:100E64008400002034260008500000208800002060
:100E7400600000200004004870B582B06D46154E35
:100E8400154B726893E8030085E80300104601F0EF
:100E940039FB0446306801F035FB0346220E8DF819
:100EA4000020220C8DF80120220A8DF802201A0C51
:100EB4008DF803408DF805201C0E1A0A29460020DF
:100EC4008DF804408DF806208DF8073000F0BCFA48
:100ED40002B070BD50000020342600080023F0B595
:100EE4002F49304A0D88304E12788DB03068ADB23B
:100EF400CDE901520B9301F005FB0346706803939F
:100F040001F000FB0346B068049301F0FBFA0346CA
:100F1400F069059301F0F6FA0346244C0693206821
:100F240001F0F0FA03466068079301F0EBFA034618
:100F3400A068089301F0E6FA0346E069099301F01A
:100F4400E1FA1B4B0A901B7801AC012B04BF4FF054
:100F5400A5330B9300F02CFB342000F0B5FB1548AF
:100F640000F03EFBC4F10066342000F0ADFB0BAF93
:100F740000F02EFB06F5F84600F01AFB01E054F8E9
:100F8400045F2946301900F065FB342000F09CFB17
:100F9400BC42F4D10DB0BDE8F04000F019BB00BF75
:100FA4002E0000205C00002088000020600000204B
:100FB40001000020007C0008044B0549B3F8000C34
:100FC400044A93F8043C08801370704700700008CA
:100FD4002E0000205C00002010B5044602210A48BF
:100FE40000F06EFD0028F9D02146074800F062FDAC
:100FF4000121054800F064FD0028F9D0BDE8104047
:10100400014800F059BD00BF0030014030B540F246
:10101400115089B000F048FC40F20C6000F044FC30
:10102400E02200214FF0904000F0A8FBE0230022D2
:1010340002214FF0904000F04DFBE02303220021F9
:101044004FF0904000F06CFB1023002201214FF080
:10105400904000F03FFB1023032200214FF090400A
:1010640000F05EFB10214FF0904000F079FB4FF44C
:10107400827400234FF400604FF40072012118259C
:10108400CDE90143084C03902046CDE904230691A1
:10109400079500F01BFD204601A900F0EBFC20465B
:1010A40000F002FD09B030BD0030014070B50E46BD
:1010B4000C491546FFF752F9FFF73CFB4FF080440B
:1010C4000346084963633046FFF748F9FFF732FBEC
:1010D40003460449A3632846FFF740F9FFF72AFBB8
:1010E400E06370BD0000614410B50A4C204600F076
:1010F400C7FD204600F0F0FC2046012100F0D0FDA1
:10110400132000F0C3FBBDE810404FF4E16000F091
:10111400D9BB00BF0020004010B50D4C204600F0A4
:10112400AFFD204600F0D8FC0121204600F0B8FDB8
:10113400102000F0ABFB40F2017000F0C3FB4FF055
:1011440080434FF4E1725A639A63DA6310BD00BFBF
:101154000004004030B5124C85B040F2017000F03C
:10116400A3FB204600F0B8FC00257C234722204640
:10117400694600920293ADF80450ADF80C5000F0AB
:1011840021FD0121204600F087FD204600F072FD7C
:101194002A460221102000F02FFB05B030BD00BF0D
:1011A4000004004030B5124C85B04FF4E16000F00B
:1011B4007BFB204600F090FC002542F20F7347228F
:1011C4002046694600920293ADF80450ADF80C50E5
:1011D40000F0F8FC0121204600F05EFD204600F0FE
:1011E40049FD2A460321132000F006FB05B030BD5B
:1011F4000020004030B540F2115089B000F054FB9B
:101204004FF4E06000F050FB4FF0804000F064FCCD
:101214000123002202214FF0904000F05BFA0123E9
:10122400032200214FF0904000F07AFA00220223BA
:101234001446012519464FF0904000F04BFA214620
:10124400022303224FF0904000F06AFA224604235E
:1012540002214FF0904000F03DFA0423214603227E
:101264004FF0904000F05CFA2A4602214FF0904083
:1012740000F084FA02224FF09040114600F07EFA0A
:10128400042202214FF0904000F078FA4FF4617389
:10129400334A04A94FF0804006930492ADF81440F9
:1012A400ADF81C408DF81E4000F08CFC214601AACC
:1012B4004FF08040ADF80840ADF8045000F008FD50
:1012C400294601AA4FF0804000F002FD01AA022144
:1012D4004FF0804000F0FCFC21464FF4E1724FF0E7
:1012E400804000F01FFE21464FF08040602200F055
:1012F400F1FD224621464FF0804000F021FE2946B0
:101304004FF4E1724FF0804000F00CFE29464FF09C
:101314008040602200F0DEFD224629464FF08040E6
:1013240000F00EFE4FF4E17202214FF0804000F015
:10133400F9FD02214FF08040602200F0CBFD2246EF
:1013440002214FF0804000F0FBFD4FF0804000F0A0
:101354009DFC4FF0804000F08DFC09B030BD00BF13
:101364000100400030B5354C83B02378012B05D003
:10137400D9B202291DD0A1B103B030BD304BFF2832
:101384001A784AD00A2AF7D01A782E4988541A783B
:101394000132D2B21A701B780A2BEDD102232370CA
:1013A400EAE7FF28E8D101250A22254B25482570C4
:1013B4002DE0FF2826D1234D00212A782170D34324
:1013C40003F00F03B3EB121F4FEA121CD4D16B7856
:1013D4006C7AA52B25D000230DF1FF3244FA03F1DA
:1013E40011F0010F05EB030114BFFF21497801330C
:1013F400082B02F8011FF1D16C462146604600F02B
:101404005FFEB9E700210E4B0A220E4821701970C5
:1014140003B0BDE8304001F071B8002AACD000211F
:10142400F2E7A52CD7D16C4601460822204601F0EC
:1014340065F895F800C04FEA1C1CDEE7B7000020F1
:10144400B6000020AC0000200B462DE9F0412A4AEA
:1014540084B001AD044607CA4FF0000C85E80700CC
:1014640019464FF0010E2046664667466FEA0308A8
:101474000DF10602083104E08B42147002F10102FE
:1014840010D013F8014BFF2CF6D108EB03040EFA2D
:1014940004F426438B4217704FF0010CF6B202F1AC
:1014A4000102EED1BCF1000F08D0FF2E8DF80E60C2
:1014B40004D1A5238DF806308DF80E30C343FF21E7
:1014C40003F00F0343EA00100C4C0DF10F068DF8E6
:1014D4000500204600F0BEFD40F20771204600F0F2
:1014E400C1FD0028F8D0AE4202D015F8011FF0E784
:1014F40004B0BDE8F08100BF3C260008003801407C
:1015040010B5002201211B2000F076F940F21150A1
:1015140000F0CAF940F20E6000F0C6F94FF4007210
:1015240001214FF0904000F029F94FF4806201212D
:101534004FF0904000F022F94FF400730122022191
:101544004FF0904000F0C6F84FF4007301220021E0
:101554004FF09040154C00F0E3F84FF48063012203
:1015640002214FF0904000F0B5F84FF4806301225F
:1015740000214FF0904000F0D3F8204600F008FD21
:1015840020464FF4FA2100F023FD2046082100F004
:1015940051FD0421204600F055FD204600F044FD95
:1015A4002046BDE81040052100F064BD003801402C
:1015B400044B1A69120603D50349044A59605A6058
:1015C400704700BF0020024023016745AB89EFCD7F
:1015D400024A136943F080031361704700200240FC
:1015E4004FF470231A4AD168C90723D4D368DB06A1
:1015F40028D4D368590727D44FF47023116941F0D4
:101604000201116150611069114940F040001061FC
:10161400CA68D20712D4CB68DB0617D4CB6813F0A0
:10162400040F0CBF00200220094A136923F00203AF
:1016340013617047013BD6D104207047013BE7D1C9
:101644000420F1E703207047022070470320EBE7F2
:10165400002002404FF4702310B41A4AD468E407FF
:1016640020D4D368DB0626D4D3685C0726D44FF491
:101674007023146944F001041461124C0160E2689F
:10168400D20714D4E368DB061AD4E36813F0040F1A
:101694000CBF002002200B4A136923F001031361DD
:1016A40010BC7047013BD9D1042010BC7047013BEA
:1016B400E5D10420EFE7032010BC70470220EFE7D8
:1016C4000320E8E700200240014BD860704700BFC8
:1016D400002002402DE9F0434FF0000C01260327BF
:1016E4000568C46806FA0CFE1EEA030F0FD04FEA21
:1016F4004C0E07FA0EF801FA0EF925EA080524EA59
:10170400080402FA0EFE49EA05054EEA04040CF147
:10171400010CBCF1100FE5D10560C460BDE8F08395
:101724000129416870B50CBF1943994341604FF0DA
:10173400010E0021032684680EFA01FC1CEA030F43
:1017440009D04FEA410C06FA0CF524EA050402FA22
:101754000CFC4CEA040401311029EDD1846070BD05
:10176400816170470AB1816170478162704700BF2F
:1017740043690B4214BF0120002070472DE9F0415A
:10178400002301274FF00F0C056A446A07FA03F699
:10179400164209D04FEA830E0CFA0EF625EA060526
:1017A40001FA0EFE4EEA05050133082BEED14FF087
:1017B400000E01260F2706FA03FC1CEA020F03F1B0
:1017C400010307D007FA0EFC01FA0EF824EA0C0C08
:1017D40048EA0C04102B0EF1040EECD105624462AD
:1017E400BDE8F081034B40F0BF6040F40030D860A6
:1017F400704700BF00ED00E0224B10B4DC6804F435
:10180400E06CBCF5E06F32D0DC6804F4E064B4F55D
:10181400C06F15D0DC6804F4E064B4F5A06F2DD07B
:10182400DC6804F4E064B4F5806F24D00022DB6843
:1018340003F4E063B3F5407F0CBF1346042302E0D6
:10184400032302F007024FF0010C01FA03F31343E0
:101854000D491B010C1800F01F02DBB284F80033A1
:1018640040090CFA02F210BC41F82020704704230E
:1018740002F00F02E7E701231A40E4E7022302F033
:101884000302E0E700ED00E000E100E0012243098B
:10189400044900F01F0002FA00F0203341F823004D
:1018A400704700BF00E100E00122830903F1804397
:1018B40003F50433196800F01F0002FA00F008432E
:1018C400186070470121830903F1804303F5043351
:1018D4001A6800F01F0001FA00F022EA0000186004
:1018E400704700BF0122830903F1804303F50433E9
:1018F400196800F01F0002FA00F0084318607047EE
:101904000121830903F1804303F504331A6800F0CD
:101914001F0001FA00F022EA00001860704700BFBF
:1019240030B589B06C464D4B08AD03F1100E8446BA
:101934000FCB05E90F009EE8030002AB84E8030027
:1019440083E80300464A5368C3F38103022B2DD076
:10195400444C434A08A8516853685268C1F30311C0
:101964000144C2F3C222024411F8101C12F8182CCC
:10197400C3F30223034424FA01F113F8203C21FAAF
:1019840002F0BCF1060F66D8DFE80CF00D3E2B0E1A
:101994002F410400324B1A6B920705D01A6B02F0E8
:1019A4000302012A3ED1204609B030BD5468536871
:1019B400C4F383441D012A4B48BF11345A6858BFED
:1019C4000234D00309D5DB6A264A03F00F0301333E
:1019D400B2FBF3F303FB04F4BBE7234B03FB04F474
:1019E400B7E721FA03F009B030BD1D4B1A6BD105DE
:1019F40025D55B68C3F38133022B22D0032B25D07A
:101A0400012B21D04008CFE7084609B030BD144B64
:101A140048F212001B6B13F0400F18BF4FF4004044
:101A240009B030BD1A6B02F00302022A10D01B6BFE
:101A34000C4803F00303032B18BF0020B4E70B4842
:101A4400B2E70B4BA3FB00308008ADE7C008ABE75F
:101A54004FF40040A8E70020A6E700BF482600088E
:101A64000010024000127A0000093D00809FD5005A
:101A7400ABAAAAAA8A6810B4D1E900342343134359
:101A8400D1E90324134323430268D1E905412343E5
:101A940002F441520B4313430360C36910BC23F4A3
:101AA4000063C361704700BF036843F040030360F1
:101AB400704700BFC1607047C06880B2704700BF04
:101AC40083680B4214BF012000207047036823F48D
:101AD40000530360704700BF08B5374B984242D0AB
:101AE40011D8A3F58E33984247D01DD9334B984271
:101AF4004DD14FF48160FFF7F5FEBDE808404FF487
:101B04008160FFF7FDBE2E4B984241D003F5806300
:101B140098421AD140F21230FFF7E4FEBDE80840C3
:101B240040F21230FFF7ECBEB0F1804F3AD0A3F58B
:101B3400406398422BD140F20140FFF7D3FEBDE849
:101B4400084040F20140FFF7DBBEA3F50063984272
:101B54001DD14FF44470FFF7C5FEBDE808404FF4B3
:101B64004470FFF7CDBE40F20B30FFF7BBFEBDE87B
:101B7400084040F20B30FFF7C3BE40F20440FFF7C9
:101B8400B1FEBDE8084040F20440FFF7B9BE08BD0D
:101B940040F21130FFF7A6FEBDE8084040F21130D4
:101BA400FFF7AEBE4FF48060FFF79CFEBDE808402F
:101BB4004FF48060FFF7A4BE002C014000200040D9
:101BC40000440140274B0A88984210B4826223D013
:101BD40020F48063B3F1804F1ED004688A8824F017
:101BE400100404600468224302601F4A8C68904217
:101BF400C4620DD004688A8924F4407404600468C3
:101C040022430260194A934222D0194B98421FD0B2
:101C1400436910BC4361704703684A8823F010038A
:101C2400036004688B8822430260026813430360E4
:101C34000D4B8A689842C262EAD002688B8922F40A
:101C4400407202600468074A23439042036005D14E
:101C54008B7B10BC036343694361704720F480634A
:101C6400D0E700BF002C01400010004000400140BC
:101C740000480140036843F001030360704700BF5C
:101C8400036823F001030360704700BF036843F057
:101C940080030360704700BFC3680B43C360704791
:101CA400C36823EA0103C360704700BF036989B2B4
:101CB400C26811EA030003D0114214BF01200020BE
:101CC400704700BF036923EA01030361704700BF43
:101CD40010B5032937D8DFE801F002A35D37036AA2
:101CE400118823F001030362046A9388214301628B
:101CF400016A21F002010162016A0B437249036225
:101D0400884240F0D480036A518823F004030362BC
:101D1400046AD38821430162016A21F00801016247
:101D2400016A0B4303624368118923F4807343609F
:101D34004468538921434160426822F4007242603E
:101D440042681343436010BD036AB2F800E023F411
:101D540080530362016AB2F804C041EA0E310162A1
:101D6400016A21F400510162036A574943EA0C33C2
:101D740088420362E7D1554B1089D3F8041C21F43F
:101D84008041C3F8041CD3F8042C42EA8012C3F83F
:101D9400042C10BD036AB2F800E023F480730362DC
:101DA400016AB2F804C041EA0E210162016A21F419
:101DB40000710162036A444943EA0C2388420362C6
:101DC400C1D1016AB2F802C021F480610162036AE0
:101DD400D48843EA0C230362036A23F40063036296
:101DE400016A3A4B41EA04210162D3F8040C1489D4
:101DF40020F48050C3F8040CD3F8041C508941EA41
:101E04000411C3F8041CD3F8041C21F40051C3F8D2
:101E1400041CD3F8042C42EA0012C3F8042C10BDAD
:101E2400036AB2F800E023F010030362016AB2F817
:101E340004C041EA0E110162016A21F0200101622D
:101E4400036A214943EA0C13884203627FF47BAF9F
:101E5400016AB2F802C021F040010162036AD48829
:101E640043EA0C130362036A23F080030362016AEA
:101E7400164B41EA04110162D3F8040C148920F4CE
:101E84008060C3F8040CD3F8041C508941EA84012F
:101E9400C3F8041CD3F8041C21F40061C3F8041C27
:101EA400D3F8042C42EA8002C3F8042C10BD084B7A
:101EB40020F4806199423FF426AF03F50063984211
:101EC4003FF421AF10BD00BF002C014000200140B1
:101ED4000040014003290BD8DFE801F01C130B027A
:101EE400C36923F4E043C361C36943EA0222C261C4
:101EF4007047C36923F07003C361C3691A43C261A5
:101F04007047836923F4E0438361836943EA0222CF
:101F140082617047836923F07003836183691A4384
:101F240082617047032904D8DFE801F0080604023F
:101F340002647047C26370478263704742637047AC
:101F440003290BD8DFE801F01C130B02C36923F447
:101F54000063C361C36943EA0222C2617047C36973
:101F640023F00803C361C3691A43C26170478369DC
:101F740023F400638361836943EA02228261704728
:101F8400836923F00803836183691A43826170477C
:101F940008B50E4B98420DD003F57443984213D103
:101FA40040F20E30FFF79EFCBDE8084040F20E30D0
:101FB400FFF7A6BC40F21140FFF794FCBDE80840CF
:101FC40040F21140FFF79CBC08BD00BF0044004034
:101FD40038B5144B044698420D461FD003F574439C
:101FE400984219D10620FFF79BFC23681B040CD5EB
:101FF400690801EB4000B0FBF5F04FF6F075C0F353
:10200400420328401843E06038BD00EB5500B0FBA4
:10201400F5F080B2E06038BD0020E6E70220FFF76B
:102024007FFCE2E700440040036843F001030360DF
:10203400704700BF026822F00802026003680B4385
:1020440003607047026822F00402026003680B43D5
:1020540003607047C1F3080181627047406AC0F3AE
:10206400080070478B09185801F01F01C84000F0A0
:10207400010070470123C1F3891210B401F01F015C
:10208400145803FA01F12143115010BC704700BFEA
:102094000123C1F3891C8A0D10B45CF80040125866
:1020A400C1F3044003FA00F0104007D001F01F010F
:1020B40003FA01F1214214BF1846002010BC7047F6
:1020C40000284BD108B50B78782B48D01ED83C2B70
:1020D4006FD013D95A2B7ED0692B06D1486800BA29
:1020E40000F012FA474B986008BD4B2BFCD14868AE
:1020F40000BA00F009FA434B186008BD1E2B35D016
:102104002D2B11D10322404B1A7008BDB42B3ED0A5
:1021140010D9C32B49D0D22BE6D1052001223A494C
:102124003A4B08701A7008BD0F2BDDD10122364BD3
:102134001A7008BD962B31D0A52B06D1486800BA79
:1021440000F0E2F9324B986008BD872BCCD1486887
:1021540000BA00F0D9F92E4B186008BD70474868E2
:1021640000BA00F0D1F9274BD86108BD294B187883
:102174000128B9D14FF0020C244B234A1B7882F872
:1021840000C0012B38D0BDE80840FEF735BD4868D3
:1021940000BA00F0B9F91E4BD86108BD486800BA0E
:1021A40000F0B2F91A4B586008BD0422164B1A709D
:1021B40008BD164B48681B7800BA012B12D1164B88
:1021C4001B78022BDAB212D0032A0BD100F09CF94F
:1021D4000F4B186108BD486800BA00F095F9094B27
:1021E400586008BD00F090F90C4B986008BD00F0F1
:1021F4008BF9044B186108BD4878BDE80840FEF728
:10220400FBBC00BF88000020B800002001000020B3
:102214006000002000000020840000205000002006
:1022240008B54FF44070FFF7DDFA40F21250FFF7A3
:102234003BFB2023002201213548FFF74BFA2023E2
:10224400032200213248FFF76BFA20213048FFF7C0
:1022540087FAFFF755F9FEF7CDFFFEF7D7FEFEF735
:1022640095FB0120FEF7C8FC00F014F9FEF7A4FE6C
:10227400FEF704FB274C284D254E2378013B042B05
:1022840033D8DFE803F02519110C0300FEF744FFEF
:10229400FEF72AFFFEF722FE00232370EDE7FEF788
:1022A4002BFD00232370E8E7FEF736FF2B78012B84
:1022B400F2D0FEF719FFEFE74FF47A7000F00CF953
:1022C400FEF748FF2B78012BE6D0FEF76BFFE3E720
:1022D400FEF722FFFEF708FFFEF7ECFBFEF7CEFA4F
:1022E400FEF7FCFD00232370C7E7FEF7C5FD2021A0
:1022F4003046FFF73DFA0246B2FA82F23046202118
:102304005209FFF72FFA322000F0E6F8B5E700BFD4
:1023140000040048B800002084000020704700BF7B
:10232400FEE700BFFEE700BFFEE700BFFEE700BF19
:10233400704700BF704700BF704700BF08B500F08A
:10234400D3F8074A13780133DBB2052B01D013709D
:1023540008BD00231370BDE80840FEF773BA00BF40
:10236400B900002008B507490748FFF791FE00B9F6
:1023740008BD0548FFF772FEBDE80840C0B2FEF78D
:10238400F1BF00BF050005070038014010B5012169
:10239400164886B0FFF78AFC012801D006B010BDAC
:1023A40001461248FFF78EFCFEF724FA104B1B7807
:1023B40083B1104B05AC9A6803ABCDE9003400211E
:1023C40004ABFEF717FB059A04990398FEF76EFE1B
:1023D40006B010BD074B05AC9A6804ABCDE90034D8
:1023E400002103ABFEF706FBEDE700BF000400404D
:1023F4005C00002050000020012110B50D48FFF7BB
:1024040055FC012800D010BD01460A48FFF75AFCCC
:10241400094B0A4C1B78032B05D061680848FEF76A
:1024240023FCA06010BD07482168FEF71DFC044B87
:102434001861F2E7002000408400002050000020D2
:102444008800002060000020002103E00B4B5B5853
:10245400435004310A480B4B42189A42F6D30A4AB5
:1024640002E0002342F8043B084B9A42F9D300F0FF
:102474004DF800F0A5F8FFF7D3FE7047682E00086A
:10248400000000200C00002010000020BC000020F0
:10249400FEE700000D4B0E4A1B68A2FB03239B09B9
:1024A400013BB3F1807F10D210B44FF0E022002042
:1024B40007244FF0F00C0749536181F823C0906161
:1024C400146181F8230010BC7047FEE70800002067
:1024D400D34D621000ED00E0024A10601368002B37
:1024E400FCD1704704000020034B1A6812B11A682B
:1024F400013A1A60704700BF040000200AB100F0DE
:1025040083B87047704700BF704700BF2A4B10B4B0
:102514001A6842F001021A601A689007FCD500207C
:102524005C682649244A21405960596821F00841D1
:1025340021F474115960596821F4400159601968F3
:1025440021F0867121F480311960D96A21F00F01DC
:10255400D962196B21F4A17121F001011963596B3E
:1025640021F00101596398605968596059685960AC
:1025740059685960596821F0036121F45021596068
:10258400596841F0006141F480215960196841F0B3
:102594008071196013689901FCD55368064923F0CA
:1025A40003035360536843F0020353604B681B07F3
:1025B400FCD510BC704700BF001002400C00FF089F
:1025C40070B500260C4D0D4C641BA410A64209D115
:1025D40000F022F800260A4D0A4C641BA410A642FF
:1025E40005D170BD55F8043B98470136EEE755F820
:1025F400043B98470136F2E7602E0008602E00087D
:10260400602E0008642E000803460244934200D161
:10261400704703F8011BF9E7F8B500BFF8BC08BC24
:102624009E467047F8B500BFF8BC08BC9E4670478C
:102634000000000000000000FF0000000000000097
:10264400000000FF0000000000000000010203047D
:10265400060708090000000001020304000000004E
:102664002975493CDF6EC93C6F0E173D3160493D09
:102674008FA97B3D38F4963D6B0EB03D4721C93D93
:102684005E2EE23DEC2FFB3D7F130A3E698C163E25
:1026940076FD223EA5662F3E97CA3B3E4A29483E18
:1026A400807D543EDAC9603E560E6D3EF54A793E51
:1026B4003CBD823E0FD1883EA4DF8E3EFBE8943EB3
:1026C400C4EB9A3EFFE7A03EFCDEA63E6CCFAC3ED8
:1026D4004EB9B23EA29CB83E1878BE3EB24BC43E40
:1026E400BD18CA3EECDDCF3EED99D53E614FDB3ED1
:1026F40059FAE03EC39EE63EB038EC3E71C9F13E65
:102704005452F73EBBD0FC3E5322013FB2D7033FA5
:10271400D387063FB532093F5AD80B3FC0780E3FE6
:102724004013113F82A8133FDF37163F55C1183FAE
:10273400E5441B3F8FC21D3F543A203F8AAB223FE2
:10274400DB16253F9E7B273FD3D9293F7B312C3F86
:10275400ED812E3F79CC303FD00F333FF14B353FE5
:102764008481373FE2AF393F0AD73B3FFDF63D3F17
:10277400130F403F9B20423F9E29443F132C463F6A
:102784000326483FBD184A3F9B034C3FF3E54D3FAA
:1027940016C14F3FB493513F745E533F5721553F89
:1027A4000EDB563F8F8D583FE3365A3FB2D75B3F1F
:1027B400A4705D3F69005F3F5188603F0C07623F32
:1027C4009A7C633FA3E9643F274E663F7EA9673F37
:1027D40050FC683F4E456A3FC6856B3F12BD6C3F57
:1027E40031EB6D3F23106F3F412B703FD93D713F5B
:1027F4009D46723F3546733F9F3C743F3529753F74
:102804009E0C763F32E6763F9AB6773F2C7D783F32
:10281400EB39793F7CED793F39977A3F22377B3F1B
:1028240036CD7B3F75597C3F87DC7C3F1D557D3F12
:1028340087C47D3F74297E3F34857E3F77D67E3FB3
:102844008E1E7F3F295C7F3FEF8F7F3F88BA7F3F9B
:10285400A5DA7F3FEDF07F3F61FD7F3F0000803FC1
:1028640023F87F3F19E77F3F92CB7F3F37A67F3F17
:10287400AF777F3FAB3E7F3FD2FB7E3F25AF7E3FAE
:10288400A3587E3F4DF87D3F228E7D3F221A7D3F27
:102894004E9C7C3FA5147C3F27837B3FD5E77A3F42
:1028A40057437A3F0395793FDBDC783FDF1A783F63
:1028B400B54F773FB77A763FE59B753FE5B3743FF5
:1028C400B9C2733FB9C7723F8BC3713F31B6703F12
:1028D400029F6F3FA67E6E3F1D556D3F68226C3F81
:1028E40086E66A3F1FA2693FE353683F22FD663FC5
:1028F400349D653F1A34643F22C3623F5648613FAA
:10290400ACC55F3FD6395E3F7AA55C3F9A085B3F12
:102914003563593F4AB5573F82FF553F8E40543F78
:10292400637A523FB4AB503F80D44E3F6FF54C3F77
:10293400280F4B3F5C20493FB329473FD42B453FE9
:102944001826433F7E18413FB0033F3FABE73C3F6F
:1029540072C43A3F5B99383FB667363FDC2E343F4A
:10296400CCEE313F2FA82F3F5C5A2D3FFB052B3F68
:102974000DAB283F9049263F2EE2233F9773213F1A
:1029840019FF1E3FB6841C3FC5031A3F957D173FB0
:10299400D8F0143FDD5E123FFCC60F3F35290D3FD2
:1029A4002F860A3FECDD073F6A30053FAA7D023FD0
:1029B400598BFF3E3012FA3E8A8EF43E0803EF3EF6
:1029C400096DE93EDDCDE33E8525DE3E4F75D83EFB
:1029D4003CBDD23EFCFBCC3EDF32C73E3563C13E3C
:1029E4005D8ABB3E47ACB53E05C5AF3E84D8A93E23
:1029F40075E5A33E89EA9D3E60EA973EF7E4913E81
:102A040002D98B3ECEC7853EB7627F3EF52D733E1D
:102A1400B7EE663EFDA45A3E65534E3EF0F9413E84
:102A24003D9B353E0E32293EA0C31C3EF44F103E62
:102A34000AD7033EC4B1EE3DB9A5D53DA298BC3D2D
:102A44001B82A33D49658A3D6685623DD637303D8C
:102A5400F7C7FB3CC615973C5374C93B5374C9BBB9
:102A6400C61597BCF7C7FBBCD63730BD668562BDBB
:102A740049658ABD1B82A3BDA298BCBDB9A5D5BDBD
:102A8400C4B1EEBD0AD703BEF44F10BEA0C31CBE32
:102A94000E3229BE3D9B35BEF0F941BE65534EBE94
:102AA400FDA45ABEB7EE66BEF52D73BEB7627FBEF7
:102AB400CEC785BE02D98BBEF7E491BE60EA97BE4D
:102AC40089EA9DBE75E5A3BE84D8A9BE05C5AFBE7F
:102AD40047ACB5BE5D8ABBBE3563C1BEDF32C7BE7F
:102AE400FCFBCCBE3CBDD2BE4F75D8BE8525DEBE38
:102AF400DDCDE3BE096DE9BE0803EFBE8A8EF4BEE8
:102B04003012FABE598BFFBEAA7D02BF6A3005BFE0
:102B1400ECDD07BF2F860ABF35290DBFFCC60FBFEA
:102B2400DD5E12BFD8F014BF957D17BFC5031ABF71
:102B3400B6841CBF19FF1EBF977321BF2EE223BFAB
:102B4400904926BF0DAB28BFFB052BBF5C5A2DBF98
:102B54002FA82FBFCCEE31BFDC2E34BFB66736BFF3
:102B64005B9938BF72C43ABFABE73CBFB0033FBF09
:102B74007E1841BF182643BFD42B45BFB32947BF96
:102B84005C2049BF280F4BBF6FF54CBF80D44EBFAC
:102B9400B4AB50BF637A52BF8E4054BF82FF55BF5F
:102BA4004AB557BF356359BF9A085BBF7AA55CBF66
:102BB400D6395EBFACC55FBF564861BF22C362BF92
:102BC4001A3464BF349D65BF22FD66BFE35368BFFA
:102BD4001FA269BF86E66ABF68226CBF1D556DBF20
:102BE400A67E6EBF029F6FBF31B670BF8BC371BF2D
:102BF400B9C772BFB9C273BFE5B374BFE59B75BFF4
:102C0400B77A76BFB54F77BFDF1A78BFDBDC78BF02
:102C1400039579BF57437ABFD5E77ABF27837BBF34
:102C2400A5147CBF4E9C7CBF221A7DBF228E7DBF23
:102C34004DF87DBFA3587EBF25AF7EBFD2FB7EBFBC
:102C4400AB3E7FBFAF777FBF37A67FBF92CB7FBF3F
:102C540019E77FBF23F87FBF000080BF61FD7FBFFE
:102C6400EDF07FBFA5DA7FBF88BA7FBFEF8F7FBF4C
:102C7400295C7FBF8E1E7FBF77D67EBF34857EBF23
:102C840074297EBF87C47DBF1D557DBF87DC7CBF93
:102C940075597CBF36CD7BBF22377BBF39977ABF4E
:102CA4007CED79BFEB3979BF2C7D78BF9AB677BFBD
:102CB40032E676BF9E0C76BF352975BF9F3C74BF44
:102CC400354673BF9D4672BFD93D71BF412B70BF5E
:102CD40023106FBF31EB6DBF12BD6CBFC6856BBFD8
:102CE4004E456ABF50FC68BF7EA967BF274E66BFCA
:102CF400A3E964BF9A7C63BF0C0762BF518860BFBD
:102D040069005FBFA4705DBFB2D75BBFE3365ABF33
:102D14008F8D58BF0EDB56BF572155BF745E53BF0E
:102D2400B49351BF16C14FBFF3E54DBF9B034CBFD6
:102D3400BD184ABF032648BF132C46BF9E2944BF73
:102D44009B2042BF130F40BFFDF63DBF0AD73BBFD8
:102D5400E2AF39BF848137BFF14B35BFD00F33BFEA
:102D640079CC30BFED812EBF7B312CBFD3D929BFA5
:102D74009E7B27BFDB1625BF8AAB22BF543A20BFF8
:102D84008FC21DBFE5441BBF55C118BFDF3716BF37
:102D940082A813BF401311BFC0780EBF5AD80BBF0F
:102DA400B53209BFD38706BFB2D703BF532201BFD1
:102DB400BBD0FCBE5452F7BE71C9F1BEB038ECBEF4
:102DC400C39EE6BE59FAE0BE614FDBBEED99D5BEA7
:102DD400ECDDCFBEBD18CABEB24BC4BE1878BEBEB1
:102DE400A29CB8BE4EB9B2BE6CCFACBEFCDEA6BED1
:102DF400FFE7A0BEC4EB9ABEFBE894BEA4DF8EBE80
:102E04000FD188BE3CBD82BEF54A79BE560E6DBE5A
:102E1400DAC960BE807D54BE4A2948BE97CA3BBE0B
:102E2400A5662FBE76FD22BE698C16BE7F130ABE30
:102E3400EC2FFBBD5E2EE2BD4721C9BD6B0EB0BDBC
:102E440038F496BD8FA97BBD316049BD6F0E17BDA7
:0C2E5400DF6EC9BC297549BC00000000FD
:042E6000290100083C
:042E6400050100085C
:0C2E6800010100000100000000A24A046B
:040000050800244D7E
:00000001FF
