:020000040800F2
:10000000001000203D040008190400081D04000829
:10001000210400082504000829040008000000004D
:100020000000000000000000000000002D04000897
:1000300031040008000000003504000839040008FD
:10004000850400088504000885040008850400086C
:10005000850400088504000885040008850400085C
:10006000850400088504000885040008850400084C
:10007000850400088504000885040008850400083C
:1000800085040008850400080000000085040008BD
:10009000850400088504000885040008850400081C
:1000A000850400088504000885040008850400080C
:1000B000850400080000000085040008000000001E
:1000C000850400080000000085040008850400087D
:1000D000850400088504000885040008000000006D
:1000E00000000000000000008504000885040008EE
:1000F00085040008850400088504000885040008BC
:04010000850400086A
:1001040010B5054C237833B9044B13B10448AFF34D
:1001140000800123237010BD0400002000000000B3
:10012400EC05000808B5034B1BB103490348AFF3C2
:10013400008008BD0000000008000020EC05000855
:1001440013F0010F30B40568C46806D025F0030C21
:1001540024F003044CEA0105144313F0020F07D002
:1001640025F00C0C24F00C044CEA810544EA8204CA
:1001740013F0040F07D025F0300C24F030044CEABF
:10018400011544EA021413F0080F07D025F0C00C3F
:1001940024F0C0044CEA811544EA821413F0100FD1
:1001A40007D025F4407C24F440744CEA012544EA49
:1001B400022413F0200F07D025F4406C24F440648B
:1001C4004CEA812544EA822413F0400F07D025F439
:1001D400405C24F440544CEA013544EA023413F000
:1001E400800F07D025F4404C24F440444CEA813578
:1001F40044EA823413F4807F07D025F4403C24F48D
:1002040040344CEA014544EA024413F4007F07D029
:1002140025F4402C24F440244CEA814544EA8244E9
:1002240013F4806F07D025F4401C24F440144CEAE6
:10023400015544EA025413F4006F07D025F4400C2E
:1002440024F440044CEA815544EA825413F4805F58
:1002540007D025F0407C24F040744CEA016544EA60
:10026400026413F4005F07D025F0406C24F040646E
:100274004CEA816544EA826413F4804F07D025F088
:10028400405C24F040544CEA017544EA02741B04B7
:1002940044BF61F39F7562F39F740560C46030BC12
:1002A400704700BF012941680CBF1943994341605D
:1002B400816813F0010F1CBF21F00301114313F0F7
:1002C400020F1CBF21F00C0141EA820113F0040F5C
:1002D4001CBF21F0300141EA021113F0080F1CBFCA
:1002E40021F0C00141EA821113F0100F1CBF21F468
:1002F400407141EA022113F0200F1CBF21F4406138
:1003040041EA822113F0400F1CBF21F4405141EA1D
:10031400023113F0800F1CBF21F4404141EA8231C5
:1003240013F4807F1CBF21F4403141EA024113F4ED
:10033400007F1CBF21F4402141EA824113F4806F05
:100344001CBF21F4401141EA025113F4006F1CBF99
:1003540021F4400141EA825113F4805F1CBF21F073
:10036400407141EA026113F4005F1CBF21F0406157
:1003740041EA826113F4804F1CBF21F0405141EAED
:1003840002711B0448BF62F39F718160704700BF14
:100394000AB1816170478162704700BF43690B42B3
:1003A40014BF0120002070470122830903F1804318
:1003B40003F50433196800F01F0002FA00F0084343
:1003C4001860704708B500F05DF840F21250FFF76E
:1003D400EBFF2023002201210D48FFF7B1FE20236B
:1003E400032200210A48FFF75DFF094C2021204623
:1003F400FFF7D4FF0246B2FA82F2204620215209C6
:10040400FFF7C6FF4FF4FA7000F05EF8EEE700BFA6
:1004140000040048704700BFFEE700BFFEE700BFCE
:10042400FEE700BFFEE700BF704700BF704700BF94
:10043400704700BF00F050B8002103E00B4B5B583D
:10044400435004310A480B4B42189A42F6D30A4AE5
:1004540002E0002342F8043B084B9A42F9D300F02F
:1004640045F800F09DF8FFF7ADFF70470C06000853
:1004740000000020040000200400002024000020CC
:10048400FEE700000D4B0E4A1B68A2FB03239B09E9
:10049400013BB3F1807F10D210B44FF0E022002072
:1004A40007244FF0F00C0749536181F823C0906191
:1004B400146181F8230010BC7047FEE7000000209F
:1004C400D34D621000ED00E0024A10601368002B67
:1004D400FCD1704720000020034B1A6812B11A683F
:1004E400013A1A60704700BF200000202A4B10B464
:1004F4001A6842F001021A601A689007FCD50020BD
:100504005C682649244A21405960596821F0084111
:1005140021F474115960596821F440015960196833
:1005240021F0867121F480311960D96A21F00F011C
:10053400D962196B21F4A17121F001011963596B7E
:1005440021F00101596398605968596059685960EC
:1005540059685960596821F0036121F450215960A8
:10056400596841F0006141F480215960196841F0F3
:100574008071196013689901FCD55368064923F00A
:1005840003035360536843F0020353604B681B0733
:10059400FCD510BC704700BF001002400C00FF08DF
:1005A40070B500260C4D0D4C641BA410A64209D155
:1005B40000F01AF800260A4D0A4C641BA410A64247
:1005C40005D170BD55F8043B98470136EEE755F860
:1005D400043B98470136F2E70406000804060008C5
:1005E4000406000808060008F8B500BFF8BC08BCFB
:1005F4009E467047F8B500BFF8BC08BC9E467047DD
:0406040029010008C0
:0406080005010008E0
:04060C0000A24A04FA
:040000050800043DAE
:00000001FF
