:020000040800F2
:100000000010002091110008451100084911000856
:100010004D110008511100085511000800000000A2
:10002000000000000000000000000000591100085E
:100030005D11000800000000611100086511000852
:10004000D9110008D9110008D9110008D9110008E8
:10005000D9110008D9110008D9110008D9110008D8
:10006000D9110008D9110008D9110008D9110008C8
:10007000D9110008D9110008D9110008D9110008B8
:10008000D9110008D911000800000000D91100089A
:10009000D9110008D9110008D9110008D911000898
:1000A000D9110008D9110008D911000869110008F8
:1000B000D911000800000000D9110008000000005C
:1000C000D911000800000000D9110008D91100085A
:1000D000D9110008D9110008D9110008000000004A
:1000E0000000000000000000D9110008D91100082C
:1000F000D9110008D9110008D9110008D911000838
:04010000D911000809
:1001040010B5054C237833B9044B13B10448AFF34D
:1001140000800123237010BD0800002000000000AF
:100124005413000808B5034B1BB103490348AFF34C
:10013400008008BD000000000C00002054130008DB
:1001440070B540F2115088B000F00EFC4FF4E0603E
:1001540000F00AFC4FF0804000F0DCFC0123002298
:1001640002214FF0904000F003FA01230322002102
:100174004FF0904000F0AEFA00220223144601250D
:1001840019464FF0904000F0F3F921460223032270
:100194004FF0904000F09EFA2246042302214FF0D3
:1001A400904000F0E5F90423214603224FF09040EB
:1001B40000F090FA2A4602214FF0904000F00EFB26
:1001C40002224FF09040114600F008FB0422022165
:1001D4004FF0904000F002FB354B364E04934FF441
:1001E400617304A94FF0804033600693ADF8144066
:1001F400ADF81C408DF81E4000F002FD214601AA16
:100204004FF08040ADF80840ADF8045000F05CFDBC
:10021400294601AA4FF0804000F056FD01AA0221B0
:100224004FF0804000F050FD32682146EA404FF024
:10023400804000F073FE214660224FF0804000F0C1
:1002440045FE224621464FF0804000F075FE32689C
:100254002946EA404FF0804000F060FE29466022C3
:100264004FF0804000F032FE224629464FF0804095
:1002740000F062FE32680221EA404FF0804000F054
:100284004DFE02214FF08040602200F01FFE224606
:1002940002214FF0804000F04FFE4FF0804000F00C
:1002A4000DFD4FF0804000F003FD08B070BD00BFAD
:1002B400470040002400002030B5444C83B021782E
:1002C400012908D0022921D0B9B10023404A237062
:1002D400137003B030BD3E4BFF281A785DD00A2A54
:1002E40001D03C49885400210A223A4821701970EF
:1002F40003B0BDE8304000F0A1BFFF28E9D10123DD
:1003040033480A22017023703248F1E7FF2850D1A4
:10031400304D00212A782170D34303F00F03B3EB4F
:10032400121F4FEA1210D4D16A786B7AA52A42D0F0
:1003340013F0010F18BFFF229C078DF800204CBF5B
:10034400FF22AA7859078DF801204CBFFF22EA78D2
:100354008DF802201A074CBFFF222A79DC068DF89B
:1003640003204CBFFF226A7999068DF804204CBF04
:10037400FF22AA796C468DF805205A064CBFFF224D
:10038400EA79DB0914BFFF232B7A8DF806208DF858
:100394000730214600F090FE9BE7002AB8D00A2AD5
:1003A400B6D000210A220B482170197000F046FFD4
:1003B400AEE7074B97E7A52BBAD16C460822204637
:1003C400FF2100F03BFF28780009E2E7330000201A
:1003D40032000020280000200B4670B5364A84B055
:1003E40001AD044607CA85E8070019461A78204675
:1003F400FF2A0CBF01238DF806204A7818BF00237A
:10040400FF2A18BF8DF807208A7808BF43F002033B
:10041400FF2A18BF8DF80820CA7808BF43F00403E8
:10042400FF2A18BF8DF809200A7908BF43F0080392
:10043400FF2A18BF8DF80A204A7908BF43F0100339
:10044400FF2A18BF8DF80B208A7908BF43F02003D8
:10045400FF2A18BF8DF80C20CA7908BF43F0400367
:10046400FF2A1CD08DF80D208DF80E30C34303F005
:100474000F0343EA0010114C04AE8DF8050020462A
:1004840015F8011B00F0E2FD40F20771204600F070
:10049400E5FD0028F8D0B542F1D104B070BD43F0B9
:1004A4008003FF2B8DF80E30E0D1A5238DF80630A4
:1004B4008DF80E30DAE700BF6C13000800380140F5
:1004C40010B5002201211B2000F004FA40F2115063
:1004D40000F04AFA40F20E6000F046FA4FF400725F
:1004E40001214FF0904000F079F94FF4806201212E
:1004F4004FF0904000F072F94FF400730122022192
:100504004FF0904000F034F84FF4007301220021C2
:100514004FF09040154C00F0DDF84FF48063012259
:1005240002214FF0904000F023F84FF48063012241
:1005340000214FF0904000F0CDF8204600F024FD5B
:1005440020464FF4E13100F03FFD2046082100F041
:100554006DFD0421204600F071FD204600F060FD91
:100564002046BDE81040052100F080BD0038014060
:1005740013F0010F30B40568C46806D025F0030CED
:1005840024F003044CEA0105144313F0020F07D0CE
:1005940025F00C0C24F00C044CEA810544EA820496
:1005A40013F0040F07D025F0300C24F030044CEA8B
:1005B400011544EA021413F0080F07D025F0C00C0B
:1005C40024F0C0044CEA811544EA821413F0100F9D
:1005D40007D025F4407C24F440744CEA012544EA15
:1005E400022413F0200F07D025F4406C24F4406457
:1005F4004CEA812544EA822413F0400F07D025F405
:10060400405C24F440544CEA013544EA023413F0CB
:10061400800F07D025F4404C24F440444CEA813543
:1006240044EA823413F4807F07D025F4403C24F458
:1006340040344CEA014544EA024413F4007F07D0F5
:1006440025F4402C24F440244CEA814544EA8244B5
:1006540013F4806F07D025F4401C24F440144CEAB2
:10066400015544EA025413F4006F07D025F4400CFA
:1006740024F440044CEA815544EA825413F4805F24
:1006840007D025F0407C24F040744CEA016544EA2C
:10069400026413F4005F07D025F0406C24F040643A
:1006A4004CEA816544EA826413F4804F07D025F054
:1006B400405C24F040544CEA017544EA02741B0483
:1006C40044BF61F39F7562F39F740560C46030BCDE
:1006D400704700BF012941680CBF19439943416029
:1006E400816813F0010F1CBF21F00301114313F0C3
:1006F400020F1CBF21F00C0141EA820113F0040F28
:100704001CBF21F0300141EA021113F0080F1CBF95
:1007140021F0C00141EA821113F0100F1CBF21F433
:10072400407141EA022113F0200F1CBF21F4406103
:1007340041EA822113F0400F1CBF21F4405141EAE9
:10074400023113F0800F1CBF21F4404141EA823191
:1007540013F4807F1CBF21F4403141EA024113F4B9
:10076400007F1CBF21F4402141EA824113F4806FD1
:100774001CBF21F4401141EA025113F4006F1CBF65
:1007840021F4400141EA825113F4805F1CBF21F03F
:10079400407141EA026113F4005F1CBF21F0406123
:1007A40041EA826113F4804F1CBF21F0405141EAB9
:1007B40002711B0448BF62F39F718160704700BFE0
:1007C400816170470AB1816170478162704700BFDF
:1007D40043690B4214BF01200020704710B4046A1F
:1007E40012F0010F1CBF24F00F040C4312F0020F8F
:1007F4001CBF24F0F00444EA011412F0040F1CBFDF
:1008040024F4706444EA012412F0080F1CBF24F499
:10081400704444EA013412F0100F1CBF24F4702415
:1008240044EA014412F0200F1CBF24F4700444EA8B
:10083400015412F0400F18BF24F07064436A18BFCB
:1008440044EA016412F0800F18BF61F31F7412F4BC
:10085400807F1CBF23F00F030B4312F4007F1CBFE7
:1008640023F0F00343EA011312F4806F1CBF23F456
:10087400706343EA012312F4006F1CBF23F4704336
:1008840043EA013312F4805F1CBF23F4702343EA6C
:10089400014312F4005F1CBF23F4700343EA0153C5
:1008A40012F4804F1CBF23F0706343EA0163120407
:1008B40048BF61F31F73046210BC4362704700BFFA
:1008C400034B40F0BF6040F40030D860704700BF75
:1008D40000ED00E0224B10B4DC6804F4E06CBCF5DD
:1008E400E06F32D0DC6804F4E064B4F5C06F15D076
:1008F400DC6804F4E064B4F5A06F2DD0DC6804F483
:10090400E064B4F5806F24D00022DB6803F4E06374
:10091400B3F5407F0CBF1346042302E0032302F027
:1009240007024FF0010C01FA03F313430D491B01B5
:100934000C1800F01F02DBB284F8003340090CFAF3
:1009440002F210BC41F820207047042302F00F0289
:10095400E7E701231A40E4E7022302F00302E0E799
:1009640000ED00E000E100E00122830903F180438F
:1009740003F50433196800F01F0002FA00F008437D
:10098400186070470122830903F1804303F504339F
:10099400196800F01F0002FA00F00843186070475D
:1009A4000121830903F1804303F504331A6800F03D
:1009B4001F0001FA00F022EA00001860704700BF2F
:1009C40030B589B06C464D4B08AD03F1100E84462A
:1009D4000FCB05E90F009EE8030002AB84E8030097
:1009E40083E80300464A5368C3F38103022B2DD0E6
:1009F400444C434A08A8516853685268C1F3031130
:100A04000144C2F3C222024411F8101C12F8182C3B
:100A1400C3F30223034424FA01F113F8203C21FA1E
:100A240002F0BCF1060F66D8DFE80CF00D3E2B0E89
:100A34002F410400324B1A6B920705D01A6B02F057
:100A44000302012A3ED1204609B030BD54685368E0
:100A5400C4F383441D012A4B48BF11345A6858BF5C
:100A64000234D00309D5DB6A264A03F00F030133AD
:100A7400B2FBF3F303FB04F4BBE7234B03FB04F4E3
:100A8400B7E721FA03F009B030BD1D4B1A6BD1054D
:100A940025D55B68C3F38133022B22D0032B25D0E9
:100AA400012B21D04008CFE7084609B030BD144BD4
:100AB40048F212001B6B13F0400F18BF4FF40040B4
:100AC40009B030BD1A6B02F00302022A10D01B6B6E
:100AD4000C4803F00303032B18BF0020B4E70B48B2
:100AE400B2E70B4BA3FB00308008ADE7C008ABE7CF
:100AF4004FF40040A8E70020A6E700BF78130008E1
:100B04000010024000127A0000093D00809FD500C9
:100B1400ABAAAAAA08B5374B984242D011D8A3F57C
:100B24008E33984247D01DD9334B98424DD14FF460
:100B34008160FFF727FFBDE808404FF48160FFF7AD
:100B44002FBF2E4B984241D003F5806398421AD1AF
:100B540040F21230FFF716FFBDE8084040F21230B1
:100B6400FFF71EBFB0F1804F3AD0A3F5406398421F
:100B74002BD140F20140FFF705FFBDE8084040F2E9
:100B84000140FFF70DBFA3F5006398421DD14FF458
:100B94004470FFF7F7FEBDE808404FF44470FFF7D8
:100BA400FFBE40F20B30FFF7EDFEBDE8084040F217
:100BB4000B30FFF7F5BE40F20440FFF7E3FEBDE85B
:100BC400084040F20440FFF7EBBE08BD40F211308C
:100BD400FFF7D8FEBDE8084040F21130FFF7E0BE51
:100BE4004FF48060FFF7CEFEBDE808404FF480600C
:100BF400FFF7D6BE002C0140002000400044014015
:100C0400274B0A88984210B4826223D020F4806370
:100C1400B3F1804F1ED004688A8824F01004046065
:100C24000468224302601F4A8C689042C4620DD05B
:100C340004688A8924F440740460046822430260CE
:100C4400194A934222D0194B98421FD0436910BCD1
:100C54004361704703684A8823F010030360046803
:100C64008B88224302600268134303600D4B8A6839
:100C74009842C262EAD002688B8922F44072026010
:100C84000468074A23439042036005D18B7B10BC60
:100C9400036343694361704720F48063D0E700BF76
:100CA400002C014000100040004001400048014079
:100CB400036843F001030360704700BF036843F017
:100CC40080030360704700BF10B5032937D8DFE8FD
:100CD40001F002A35D37036A118823F00103036264
:100CE400046A938821430162016A21F002010162CE
:100CF400016A0B4372490362884240F0D480036A5C
:100D0400518823F004030362046AD38821430162F7
:100D1400016A21F008010162016A0B43036243681E
:100D2400118923F4807343604468538921434160EB
:100D3400426822F40072426042681343436010BD6B
:100D4400036AB2F800E023F480530362016AB2F844
:100D540004C041EA0E310162016A21F400510162CA
:100D6400036A574943EA0C3388420362E7D1554B7F
:100D74001089D3F8041C21F48041C3F8041CD3F86F
:100D8400042C42EA8012C3F8042C10BD036AB2F8A2
:100D940000E023F480730362016AB2F804C041EAFC
:100DA4000E210162016A21F400710162036A44495F
:100DB40043EA0C2388420362C1D1016AB2F802C03B
:100DC40021F480610162036AD48843EA0C2303623C
:100DD400036A23F400630362016A3A4B41EA042183
:100DE4000162D3F8040C148920F48050C3F8040C75
:100DF400D3F8041C508941EA0411C3F8041CD3F845
:100E0400041C21F40051C3F8041CD3F8042C42EA56
:100E14000012C3F8042C10BD036AB2F800E023F0FA
:100E240010030362016AB2F804C041EA0E110162C0
:100E3400016A21F020010162036A214943EA0C138B
:100E4400884203627FF47BAF016AB2F802C021F0EA
:100E540040010162036AD48843EA0C130362036A03
:100E640023F080030362016A164B41EA0411016214
:100E7400D3F8040C148920F48060C3F8040CD3F86C
:100E8400041C508941EA8401C3F8041CD3F8041CEF
:100E940021F40061C3F8041CD3F8042C42EA800254
:100EA400C3F8042C10BD084B20F4806199423FF430
:100EB40026AF03F5006398423FF421AF10BD00BF95
:100EC400002C0140002001400040014003290BD8C0
:100ED400DFE801F01C130B02C36923F4E043C36190
:100EE400C36943EA0222C2617047C36923F07003F5
:100EF400C361C3691A43C2617047836923F4E04341
:100F04008361836943EA022282617047836923F023
:100F14007003836183691A4382617047032904D88B
:100F2400DFE801F00806040202647047C2637047F8
:100F3400826370474263704703290BD8DFE801F0EE
:100F44001C130B02C36923F40063C361C36943EA3E
:100F54000222C2617047C36923F00803C361C369F5
:100F64001A43C2617047836923F400638361836910
:100F740043EA022282617047836923F00803836194
:100F840083691A438261704708B50E4B98420DD0AD
:100F940003F57443984213D140F20E30FFF7F2FC8C
:100FA400BDE8084040F20E30FFF7FABC40F21140B1
:100FB400FFF7E8FCBDE8084040F21140FFF7F0BC41
:100FC40008BD00BF0044004038B5144B04469842A5
:100FD4000D461FD003F57443984219D10620FFF73C
:100FE400EFFC23681B040CD5690801EB4000B0FB3F
:100FF400F5F04FF6F075C0F3420328401843E06063
:1010040038BD00EB5500B0FBF5F080B2E06038BDB0
:101014000020E6E70220FFF7D3FCE2E700440040AB
:10102400036843F001030360704700BF026822F0C5
:101034000802026003680B4303607047026822F0F1
:101044000402026003680B4303607047C1F30801A4
:1010540081627047406AC0F3080070478B091858D2
:1010640001F01F01C84000F0010070470123C1F3E3
:10107400891210B401F01F01145803FA01F121433D
:10108400115010BC704700BF0123C1F3891C8A0DA5
:1010940010B45CF800401258C1F3044003FA00F0A5
:1010A400104007D001F01F0103FA01F1214214BFDF
:1010B4001846002010BC7047FFF78EB908B54FF4EE
:1010C4004070FFF7FDFB00F087F840F21250FFF785
:1010D4004BFC2023002201211748FFF749FA202363
:1010E400032200211448FFF7F5FA20211248FFF7E4
:1010F40067FBFFF7E5F9FFF723F8FF210F48FFF738
:10110400A5FF0E4C40F207712046FFF7A7FF002809
:10111400F8D0094C20212046FFF75AFB0246B2FAC8
:1011240082F2204620215209FFF74CFB4FF4FA705B
:1011340000F074F8EEE700BF0004004800380140F6
:10114400704700BFFEE700BFFEE700BFFEE700BF39
:10115400FEE700BF704700BF704700BF704700BF85
:1011640000F064B808B507490748FFF78DFF00B9D8
:1011740008BD0548FFF76EFFBDE80840C0B2FFF7A1
:101184009BB800BF0500050700380140002103E0BB
:101194000B4B5B58435004310A480B4B42189A429C
:1011A400F6D30A4A02E0002342F8043B084B9A4271
:1011B400F9D300F047F800F09FF8FFF77FFF70477E
:1011C40098130008000000200800002008000020F8
:1011D40034000020FEE700000D4B0E4A1B68A2FB02
:1011E40003239B09013BB3F1807F10D210B44FF06D
:1011F400E022002007244FF0F00C0749536181F8E6
:1012040023C09061146181F8230010BC7047FEE78D
:1012140004000020D34D621000ED00E0024B186082
:1012240000B1FEE7704700BF00000020024A1368C7
:101234000BB1013B13607047000000200AB100F0BD
:101244007FB870472A4B10B41A6842F001021A6042
:101254001A689007FCD500205C682649244A21407E
:101264005960596821F0084121F474115960596892
:1012740021F440015960196821F0867121F480310C
:101284001960D96A21F00F01D962196B21F4A17197
:1012940021F001011963596B21F001015963986030
:1012A400596859605968596059685960596821F0FA
:1012B400036121F450215960596841F0006141F4FF
:1012C40080215960196841F080711960136899018F
:1012D400FCD55368064923F003035360536843F075
:1012E400020353604B681B07FCD510BC704700BF5A
:1012F400001002400C00FF0870B500260C4D0D4C88
:10130400641BA410A64209D100F022F800260A4D5D
:101314000A4C641BA410A64205D170BD55F8043BC9
:1013240098470136EEE755F8043B98470136F2E753
:1013340090130008901300089013000894130008F9
:1013440003460244934200D1704703F8011BF9E7B6
:10135400F8B500BFF8BC08BC9E467047F8B500BF9E
:08136400F8BC08BC9E4670476E
:10136C00FF00000000000000000000FF0000000073
:10137C000000000001020304060708090000000039
:04138C000102030453
:041390002901000827
:041394000501000847
:081398000100000000A24A045C
:04000005080011914D
:00000001FF
