:020000040800F2
:10000000001000206D0900082109000825090008DA
:10001000290900082D090008310900080000000026
:10002000000000000000000000000000350900088A
:1000300039090008000000003D090008B509000862
:10004000B5090008B5090008B5090008B509000898
:10005000B5090008B5090008B5090008B509000888
:10006000B5090008B5090008B5090008B509000878
:10007000B5090008B5090008B5090008B509000868
:10008000B5090008B509000800000000B50900081E
:10009000B5090008B5090008B5090008B509000848
:1000A000B5090008B5090008B509000841090008AC
:1000B000B509000800000000B509000800000000B4
:1000C000B509000800000000B5090008B5090008DE
:1000D000B5090008B5090008B509000800000000CE
:1000E0000000000000000000B5090008B509000884
:1000F000B5090008B5090008B5090008B5090008E8
:04010000B509000835
:1001040010B5054C237833B9044B13B10448AFF34D
:1001140000800123237010BD0400002000000000B3
:10012400080B000808B5034B1BB103490348AFF3A0
:10013400008008BD0000000008000020080B000833
:10014400002210B511461B2000F0F8F940F21150BE
:1001540000F03EFA40F20E6000F03AFA4FF40072FA
:1001640001214FF0904000F077F94FF480620121B3
:100174004FF0904000F070F94FF400730122022117
:100184004FF0904000F034F84FF400730122002146
:100194004FF09040154C00F0DDF84FF480630122DD
:1001A40002214FF0904000F023F84FF480630122C5
:1001B40000214FF0904000F0CDF8204600F0DEFA28
:1001C40020464FF4E13100F0F9FA2046082100F00E
:1001D40027FB0421204600F02BFB204600F01AFBED
:1001E4002046BDE81040052100F03ABB003801402C
:1001F40013F0010F30B40568C46806D025F0030C71
:1002040024F003044CEA0105144313F0020F07D051
:1002140025F00C0C24F00C044CEA810544EA820419
:1002240013F0040F07D025F0300C24F030044CEA0E
:10023400011544EA021413F0080F07D025F0C00C8E
:1002440024F0C0044CEA811544EA821413F0100F20
:1002540007D025F4407C24F440744CEA012544EA98
:10026400022413F0200F07D025F4406C24F44064DA
:100274004CEA812544EA822413F0400F07D025F488
:10028400405C24F440544CEA013544EA023413F04F
:10029400800F07D025F4404C24F440444CEA8135C7
:1002A40044EA823413F4807F07D025F4403C24F4DC
:1002B40040344CEA014544EA024413F4007F07D079
:1002C40025F4402C24F440244CEA814544EA824439
:1002D40013F4806F07D025F4401C24F440144CEA36
:1002E400015544EA025413F4006F07D025F4400C7E
:1002F40024F440044CEA815544EA825413F4805FA8
:1003040007D025F0407C24F040744CEA016544EAAF
:10031400026413F4005F07D025F0406C24F04064BD
:100324004CEA816544EA826413F4804F07D025F0D7
:10033400405C24F040544CEA017544EA02741B0406
:1003440044BF61F39F7562F39F740560C46030BC61
:10035400704700BF012941680CBF194399434160AC
:10036400816813F0010F1CBF21F00301114313F046
:10037400020F1CBF21F00C0141EA820113F0040FAB
:100384001CBF21F0300141EA021113F0080F1CBF19
:1003940021F0C00141EA821113F0100F1CBF21F4B7
:1003A400407141EA022113F0200F1CBF21F4406187
:1003B40041EA822113F0400F1CBF21F4405141EA6D
:1003C400023113F0800F1CBF21F4404141EA823115
:1003D40013F4807F1CBF21F4403141EA024113F43D
:1003E400007F1CBF21F4402141EA824113F4806F55
:1003F4001CBF21F4401141EA025113F4006F1CBFE9
:1004040021F4400141EA825113F4805F1CBF21F0C2
:10041400407141EA026113F4005F1CBF21F04061A6
:1004240041EA826113F4804F1CBF21F0405141EA3C
:1004340002711B0448BF62F39F718160704700BF63
:100444000AB1816170478162704700BF43690B4202
:1004540014BF01200020704710B4046A12F0010F89
:100464001CBF24F00F040C4312F0020F1CBF24F035
:10047400F00444EA011412F0040F1CBF24F4706465
:1004840044EA012412F0080F1CBF24F4704444EA27
:10049400013412F0100F1CBF24F4702444EA014408
:1004A40012F0200F1CBF24F4700444EA015412F02B
:1004B400400F18BF24F07064436A18BF44EA016413
:1004C40012F0800F18BF61F31F7412F4807F1CBFF9
:1004D40023F00F030B4312F4007F1CBF23F0F0033F
:1004E40043EA011312F4806F1CBF23F4706343EAE0
:1004F400012312F4006F1CBF23F4704343EA013359
:1005040012F4805F1CBF23F4702343EA014312F406
:10051400005F1CBF23F4700343EA015312F4804FBD
:100524001CBF23F0706343EA0163120448BF61F304
:100534001F73046210BC4362704700BF224B10B4A7
:10054400DC6804F4E06CBCF5E06F32D0DC6804F4E1
:10055400E064B4F5C06F15D0DC6804F4E064B4F56D
:10056400A06F2DD0DC6804F4E064B4F5806F24D06F
:100574000022DB6803F4E063B3F5407F0CBF13464D
:10058400042302E0032302F007024FF0010C01FAF6
:1005940003F313430D491B010C1800F01F02DBB2D7
:1005A40084F8003340090CFA02F210BC41F8202010
:1005B4007047042302F00F02E7E701231A40E4E73F
:1005C400022302F00302E0E700ED00E000E100E0B6
:1005D4000122830903F1804303F50433196800F011
:1005E4001F0002FA00F008431860704701228309D3
:1005F40003F1804303F50433196800F01F0002FA85
:1006040000F00843186070470121830903F1804317
:1006140003F504331A6800F01F0001FA00F022EA1F
:1006240000001860704700BF30B589B06C464D4B70
:1006340008AD03F1100E84460FCB05E90F009EE8C8
:10064400030002AB84E8030083E80300464A5368CE
:10065400C3F38103022B2DD0444C434A08A85168AC
:1006640053685268C1F303110144C2F3C222024425
:1006740011F8101C12F8182CC3F30223034424FAB3
:1006840001F113F8203C21FA02F0BCF1060F66D800
:10069400DFE80CF00D3E2B0E2F410400324B1A6B99
:1006A400920705D01A6B02F00302012A3ED12046BC
:1006B40009B030BD54685368C4F383441D012A4B08
:1006C40048BF11345A6858BF0234D00309D5DB6AD5
:1006D400264A03F00F030133B2FBF3F303FB04F4E4
:1006E400BBE7234B03FB04F4B7E721FA03F009B09B
:1006F40030BD1D4B1A6BD10525D55B68C3F381331F
:10070400022B22D0032B25D0012B21D04008CFE788
:10071400084609B030BD144B48F212001B6B13F0AD
:10072400400F18BF4FF4004009B030BD1A6B02F0FF
:100734000302022A10D01B6B0C4803F00303032BA3
:1007440018BF0020B4E70B48B2E70B4BA3FB003003
:100754008008ADE7C008ABE74FF40040A8E70020ED
:10076400A6E700BF200B00080010024000127A0028
:1007740000093D00809FD500ABAAAAAA08B50E4B7C
:1007840098420DD003F57443984213D140F20E30D1
:10079400FFF72CFFBDE8084040F20E30FFF734BFEE
:1007A40040F21140FFF722FFBDE8084040F211403B
:1007B400FFF72ABF08BD00BF0044004038B5144B02
:1007C400044698420D461FD003F57443984219D14C
:1007D4000620FFF729FF23681B040CD5690801EBE9
:1007E4004000B0FBF5F04FF6F075C0F3420328402B
:1007F4001843E06038BD00EB5500B0FBF5F080B263
:10080400E06038BD0020E6E70220FFF70DFFE2E7D5
:1008140000440040036843F001030360704700BFD5
:10082400026822F00802026003680B430360704709
:10083400026822F00402026003680B4303607047FD
:10084400C1F3080181627047406AC0F30800704731
:100854008B09185801F01F01C84000F001007047CF
:100864000123C1F3891210B401F01F01145803FAD3
:1008740001F12143115010BC704700BF0123C1F3A3
:10088400891C8A0D10B45CF800401258C1F304406E
:1008940003FA00F0104007D001F01F0103FA01F140
:1008A400214214BF1846002010BC704708B500F060
:1008B40081F840F21250FFF78BFE20230022012121
:1008C4001448FFF795FC2023032200211148FFF769
:1008D40041FDFFF735FCFF210F48FFF7B1FF0E4C38
:1008E40040F207712046FFF7B3FF0028F8D0094C07
:1008F40020212046FFF7AAFD0246B2FA82F22046E2
:1009040020215209FFF79CFD4FF4FA7000F074F8AF
:10091400EEE700BF0004004800380140704700BF04
:10092400FEE700BFFEE700BFFEE700BFFEE700BF33
:10093400704700BF704700BF704700BF08B5084943
:100944000848FFF79BFF00B908BD0648FFF77CFF86
:10095400BDE8084001460348C9B2FFF771BF00BFB4
:100964000500050700380140002103E00B4B5B58EC
:10097400435004310A480B4B42189A42F6D30A4AB0
:1009840002E0002342F8043B084B9A42F9D300F0FA
:100994003BF800F093F8FFF789FF7047400B00081D
:1009A4000000002004000020040000202400002097
:1009B400FEE700000D4B0E4A1B68A2FB03239B09B4
:1009C400013BB3F1807F10D210B44FF0E02200203D
:1009D40007244FF0F00C0749536181F823C090615C
:1009E400146181F8230010BC7047FEE7000000206A
:1009F400D34D621000ED00E0024A10601368002B32
:100A0400FCD17047200000202A4B10B41A6842F031
:100A140001021A601A689007FCD500205C68264918
:100A2400244A21405960596821F0084121F4741185
:100A34005960596821F440015960196821F08671A0
:100A440021F480311960D96A21F00F01D962196B40
:100A540021F4A17121F001011963596B21F0010105
:100A64005963986059685960596859605968596060
:100A7400596821F0036121F450215960596841F00B
:100A8400006141F480215960196841F08071196056
:100A940013689901FCD55368064923F00303536096
:100AA400536843F0020353604B681B07FCD510BC2A
:100AB400704700BF001002400C00FF0870B500260C
:100AC4000C4D0D4C641BA410A64209D100F01AF879
:100AD40000260A4D0A4C641BA410A64205D170BD21
:100AE40055F8043B98470136EEE755F8043B984720
:100AF4000136F2E7380B0008380B0008380B000801
:100B04003C0B0008F8B500BFF8BC08BC9E46704713
:0C0B1400F8B500BFF8BC08BC9E46704756
:100B2000000000000000000001020304060708099D
:080B30000000000001020304B3
:040B38002901000887
:040B3C0005010008A7
:040B400000A24A04C1
:040000050800096D79
:00000001FF
