:020000040800F2
:1000000000100020B1210008DD200008E1200008D8
:10001000E5200008E9200008ED20000800000000AD
:10002000000000000000000000000000F1200008B7
:10003000F520000800000000F9200008FD2000085D
:10004000F9210008F9210008F9210008F921000828
:10005000F9210008F9210008F9210008F921000818
:10006000F9210008F9210008F9210008F921000808
:10007000F9210008F9210008F9210008F9210008F8
:100080004D210008F921000800000000F9210008B6
:10009000F9210008F9210008F9210008F9210008D8
:1000A000F9210008F9210008F9210008252100089C
:1000B000F921000800000000F921000800000000FC
:1000C000F921000800000000F9210008F9210008CA
:1000D000F9210008F9210008F921000800000000BA
:1000E0000000000000000000F9210008F9210008CC
:1000F000F9210008F9210008F9210008F921000878
:04010000F9210008D9
:1001040010B5054C237833B9044B13B10448AFF34D
:1001140000800123237010BD0800002000000000AF
:10012400A823000808B5034B1BB103490348AFF3E8
:10013400008008BD000000000C000020A823000877
:100144004FF0FF0C1CEAD0521EBF1CEAD15392EAB6
:100154000C0F93EA0C0F6FD01A4480EA010C400292
:1001640018BF5FEA41211ED04FF0006343EA5010EC
:1001740043EA5111A0FB01310CF00040B1F5000F2E
:100184003EBF490041EAD3715B0040EA010062F1DD
:100194007F02FD2A1DD8B3F1004F40EBC25008BFC7
:1001A40020F00100704790F0000F0CF0004C08BFE5
:1001B40049024CEA502040EA51207F3AC2BFD2F1B2
:1001C400FF0340EAC250704740F400004FF00003C0
:1001D400013A5DDC12F1190FDCBF00F000407047FA
:1001E400C2F10002410021FA02F1C2F1200200FA38
:1001F40002FC5FEA310040F1000053EA4C0308BFFF
:1002040020EADC70704792F0000F00F0004C02BF4F
:10021400400010F4000F013AF9D040EA0C0093F0CA
:10022400000F01F0004C02BF490011F4000F013B24
:10023400F9D041EA0C018FE70CEAD15392EA0C0F92
:1002440018BF93EA0C0F0AD030F0004C18BF31F0FD
:10025400004CD8D180EA010000F00040704790F0D3
:10026400000F17BF90F0004F084691F0000F91F077
:10027400004F14D092EA0C0F01D142020FD193EA3D
:100284000C0F03D14B0218BF084608D180EA0100C5
:1002940000F0004040F0FE4040F40000704740F0A1
:1002A400FE4040F44000704780F0004002E000BF90
:1002B40081F0004142001FBF5FEA410392EA030F4D
:1002C4007FEA226C7FEA236C6AD04FEA1262D2EB97
:1002D4001363C1BFD218414048404140B8BF5B429C
:1002E400192B88BF704710F0004F40F4000020F035
:1002F4007F4018BF404211F0004F41F4000121F04B
:100304007F4118BF494292EA030F3FD0A2F1010294
:1003140041FA03FC10EB0C00C3F1200301FA03F1D2
:1003240000F0004302D5494260EB4000B0F5000FF5
:1003340013D3B0F1807F06D340084FEA310102F1B4
:100344000102FE2A51D2B1F1004F40EBC25008BF66
:1003540020F0010040EA03007047490040EB000030
:10036400013A28BFB0F5000FEDD2B0FA80FCACF131
:10037400080CB2EB0C0200FA0CF0AABF00EBC2505E
:1003840052421843BCBFD0401843704792F0000F4C
:1003940081F4000106BF80F400000132013BB5E79F
:1003A4004FEA41037FEA226C18BF7FEA236C21D015
:1003B40092EA030F04D092F0000F08BF084670477A
:1003C40090EA010F1CBF0020704712F07F4F04D148
:1003D400400028BF40F00040704712F100723CBF5B
:1003E40000F50000704700F0004343F0FE4040F485
:1003F400000070477FEA226216BF08467FEA236343
:100404000146420206BF5FEA412390EA010F40F42D
:10041400800070474FF0000304E000BF10F0004379
:1004240048BF40425FEA000C08BF704743F0964360
:1004340001464FF000001CE050EA010208BF70477B
:100444004FF000030AE000BF50EA010208BF704702
:1004540011F0004302D5404261EB41015FEA010C17
:1004640002BF84460146002043F0B64308BFA3F10F
:100474008053A3F50003BCFA8CF2083AA3EBC253F1
:1004840010DB01FA02FC634400FA02FCC2F1200210
:10049400BCF1004F20FA02F243EB020008BF20F047
:1004A4000100704702F1200201FA02FCC2F12002AD
:1004B40050EA4C0021FA02F243EB020008BF20EAA2
:1004C400DC7070474FF0FF3C06E000BF4FF0010CBA
:1004D40002E000BF4FF0010C4DF804CD4FEA40029A
:1004E4004FEA41037FEA226C18BF7FEA236C11D0E4
:1004F40001B052EA530C18BF90EA010F58BFB2EB97
:10050400030088BFC81738BF6FEAE17018BF40F016
:10051400010070477FEA226C02D15FEA402C05D1CA
:100524007FEA236CE4D15FEA412CE1D05DF8040B4F
:10053400704700BF844608466146FFE70FB5FFF7E2
:10054400C9FF002848BF10F1000F0FBD4DF808ED9A
:10055400FFF7F4FF0CBF012000205DF808FB00BF8B
:100564004DF808EDFFF7EAFF34BF012000205DF8E5
:1005740008FB00BF4DF808EDFFF7E0FF94BF012032
:1005840000205DF808FB00BF4DF808EDFFF7D2FF2F
:1005940094BF012000205DF808FB00BF4DF808ED72
:1005A400FFF7C8FF34BF012000205DF808FB00BF3F
:1005B4004FEA4002B2F1FE4F0FD34FF09E03B3EB6C
:1005C40012620DD94FEA002343F0004310F0004FAC
:1005D40023FA02F018BF404270474FF00000704702
:1005E40012F1610F01D1420205D110F0004008BFA1
:1005F4006FF0004070474FF00000704742000ED289
:10060400B2F1FE4F0BD34FF09E03B3EB126209D449
:100614004FEA002343F0004323FA02F070474FF0FF
:100624000000704712F1610F01D1420202D14FF074
:10063400FF3070474FF00000704700BFF8B500224C
:1006440010214FF0904000F0F7FF002000F070FB05
:10065400044601224FF09040102100F0EDFF0C4EB3
:100664000C4A0D4FD2E9000133889BB2C31AC4F37C
:100674000F1061F100011C1841F10005C2E90045A9
:100684003080D2E900013B88C01AC0F30B00F8BDEA
:10069400240000203000002026000020F8B50022AD
:1006A40010214FF0904000F0C7FF002000F040FB05
:1006B4000446012210214FF0904000F0BDFF1A4E75
:1006C4001A4A1B4FD2E9000133889BB2C31AC4F300
:1006D4000F1061F100011C1841F10005C2E9004549
:1006E4003080D2E900013C88001BC0F30B04204693
:1006F400FFF790FE0F49FFF723FD02460E4B0F490B
:10070400A3FB0403E01A03EB50035B0A03EBC303EC
:1007140003EB8313E31A0A6098B2FFF77FFE0849DC
:10072400FFF70EFDF8BD00BF2400002030000020BC
:1007340026000020DB0FC93AC1011CC0580000206C
:10074400E0ED2F3C38B5084D084CD5E90023D4E939
:100754000001111A89B2064800F0DEF8D5E9002339
:10076400C4E9002338BD00BF300000202800002069
:10077400380000202DE9F04D002700244FF0000A36
:100784004FF0000B86B005AE04AD4FF47A7001F063
:1007940055FD03AB3A463846CDE900561D4900F0F5
:1007A4001BFA059A0499039800F02EFB4FF49670F7
:1007B40001F044FDDFF86080184B224610214FF011
:1007C4009040A8F80040C3E900AB00F035FF204694
:1007D40000F0AEFA0446012210214FF0904000F0E0
:1007E4002BFFC4F30F1403AB3A463946384601963F
:1007F4000095A8F8004000F0EFF90398059A0499D1
:1008040000F002FB4FF4967001F018FD06B0BDE84D
:10081400F08D00BF9A99993E2600002030000020F8
:1008240070B500260446154D29462046FFF7B6FE4E
:1008340078B131462046FFF7B1FE50B12046294633
:10084400FFF736FD044629462046FFF7A7FE002899
:10085400EFD131462046FFF783FE28B120462946D2
:10086400FFF728FD0446DFE705492046FFF768FC4B
:10087400FFF79EFE034B53F8200070BDDB0FC94009
:1008840083F9A242EC23000870B501461748FFF72C
:100894000FFD00260446164D29462046FFF77EFE2E
:1008A40078B131462046FFF779FE50B120462946FB
:1008B400FFF7FEFC044629462046FFF76FFE00289A
:1008C400EFD131462046FFF74BFE28B1204629469A
:1008D400FFF7F0FC0446DFE706492046FFF730FC4B
:1008E400FFF766FE044B53F8200070BDDA0FC93FD2
:1008F400DB0FC94083F9A242EC23000810B5044C75
:1009040020220021204601F0ABFC024BE36110BD24
:10091400380000207C59443F10B5037804465A1C23
:10092400D2B20B2A00EB430359800ABF00230270A2
:100934000370C28883880189134442880B44418927
:10094400134482891944C3891144028A0B44408A9E
:100954001A44A38A0244E08A1344064A1844A2FBB8
:100964000030C008FFF756FDE169FFF7E9FBA0611D
:1009740010BD00BFA38B2EBA2DE9F04F002085B027
:10098400FFF782FF002502460020019204460095ED
:10099400FFF746FF0346019A8A4910460393FFF77F
:1009A400CFFBDFF8248201904146FFF7C9FB4FF0EB
:1009B4007C578446019A39461046CDF808C0FFF7A3
:1009C400BFFB8446039B81491846CDF804C0FFF75A
:1009D400B7FB019B01461846FFF76AFC4146FFF747
:1009E400AFFB3946FFF766FC0346029A4FF07E518F
:1009F400104603920193FFF75DFC019B32261946D2
:100A04000293FFF755FC8446039A38461146CDF805
:100A140004C0FFF74DFCDDE90123194600F0F4F9A9
:100A24004FF47A70DFF8A8B101F008FCFFF706FE76
:100A34002B46024600999A4201F1010188BF8BB20C
:100A4400204688BF00931546FFF71EFF81462046C7
:100A5400FFF7E6FE02465B4948460192FFF770FB4A
:100A640041468146FFF76CFB394682464846FFF70C
:100A740067FB019A814655491046FFF761FB014621
:100A84004846FFF715FC4146FFF75AFB3946FFF786
:100A940011FC594681462046FFF70CFC4FF07E516D
:100AA40004465046FFF706FC4946FFF701FC0246A0
:100AB400514638460192FFF7FBFB4946019A00F084
:100AC400A3F9013E142001F0B9FB16F0FF06ADD1E5
:100AD40032264FF07C57DFF8ECB0DFF8EC80FFF7FC
:100AE400ADFD2B46024600999A4201F1010138BF3F
:100AF4008BB2204638BF00931546FFF7C5FE8146EA
:100B04002046FFF78DFE0246594648460192FFF7FC
:100B140017FB41468146FFF713FB39468246484698
:100B2400FFF70EFB019A814628491046FFF708FBA0
:100B340001464846FFF7BCFB4146FFF701FB394637
:100B4400FFF7B8FB224981462046FFF7B1FB4FF07F
:100B54007E5104465046FFF7ADFB4946FFF7A8FB1C
:100B64000246514638460192FFF7A2FB4946019AD4
:100B740000F04AF9013E142001F060FB16F0FF0674
:100B8400ADD10020FFF780FE0020FFF749FE4FF0B3
:100B94007C521046114600F037F94FF4967001F07C
:100BA4004DFB009B4A2B04D90A4B1E7005B0BDE8CF
:100BB400F08F182B05D80122064B1A7005B0BDE83A
:100BC400F08FFEE79A99993E3ECFF33D8105853E2D
:100BD400CDCC4C3E600000202DE9F84390461D46E4
:100BE4000E460446FFF750FE07462046FFF718FE60
:100BF400314604463846FFF7A3FA4146814620466B
:100C0400FFF79EFA01464846FFF752FB1D4981460D
:100C1400FFF796FA01464FF07C50FFF749FB4FF07F
:100C24007C5128604846FFF78BFA03464146384614
:100C34001F46FFF785FA0346314620461C46FFF758
:100C44007FFA01462046FFF735FB0F49FFF778FA94
:100C540001463846FFF72CFB0A49FFF771FA4FF0BB
:100C64007C51FFF727FB0446089B4FF07F501C6024
:100C74002968FFF71DFB2146FFF71AFB099B186043
:100C8400BDE8F8833ECFF33DD7B35D3F70B5144A5A
:100C9400144B154E15881C7800F010FB342000F01E
:100CA40099FB304600F022FBADB2342000F092FBF9
:100CB40000F014FB00F002FB2946304600F050FB24
:100CC400E4B2342000F086FB2146084800F048FBDB
:100CD400342000F07FFBBDE8704000F0FFBA00BF95
:100CE4002600002060000020007C0008047C00082E
:100CF4000B4A08B5B2F8000C0A4B0B4992F8042CC5
:100D040018800A701B889BB2B3F5805F02D80B78F9
:100D1400012B04D92021054800F08CFCFEE708BD16
:100D24000070000826000020600000200004004835
:100D340010B5044602210A4800F04CFE0028F9D000
:100D44002146074800F040FE0121054800F042FE1C
:100D54000028F9D0BDE81040014800F037BE00BFBC
:100D640000300140D0B540F2115088B000F036FD9B
:100D740040F20C6000F032FDE02200214FF0904080
:100D840000F066FCE023002202214FF0904000F0C6
:100D940027FBE023032200214FF0904000F0D2FB18
:100DA4001023002201214FF0904000F019FB102382
:100DB400032200214FF0904000F0C4FB10214FF0BB
:100DC400904000F035FC4FF400624FF4007318219A
:100DD400CDE902234FF48276002201230027094C37
:100DE400CDE9042320460691CDE9006700F0F8FD23
:100DF4002046694600F0C8FD204600F0DFFD08B03B
:100E0400D0BD00BF0030014070B50E460C491546F8
:100E1400FFF796F9FFF7F2FB4FF0804403460849C9
:100E240063633046FFF78CF9FFF7E8FB0346044998
:100E3400A3632846FFF784F9FFF7E0FBE06370BD86
:100E44000000614430B5124C85B040F2017000F0EE
:100E5400C5FC204600F0CAFD00257C23472220461D
:100E6400694600920293ADF80450ADF80C5000F0BE
:100E740033FE0121204600F093FE204600F084FE5C
:100E84002A460221102000F05FFC05B030BD00BFEF
:100E94000004004030B540F2115089B000F09EFCCF
:100EA4004FF4E06000F09AFC4FF0804000F09EFDAB
:100EB4000123002202214FF0904000F091FA012317
:100EC400032200214FF0904000F03CFB002202235B
:100ED4001446012519464FF0904000F081FA21464E
:100EE400022303224FF0904000F02CFB22460423FF
:100EF40002214FF0904000F073FA042321460322AC
:100F04004FF0904000F01EFB2A4602214FF0904023
:100F140000F09EFB02224FF09040114600F098FB37
:100F2400042202214FF0904000F092FB4FF46173D1
:100F3400334A04A94FF0804006930492ADF814405C
:100F4400ADF81C408DF81E4000F0C6FD214601AAF4
:100F54004FF08040ADF80840ADF8045000F036FE84
:100F6400294601AA4FF0804000F030FE01AA022178
:100F74004FF0804000F02AFE21464FF4E1724FF01A
:100F8400804000F04DFF21464FF08040602200F089
:100F94001FFF224621464FF0804000F04FFF2946B4
:100FA4004FF4E1724FF0804000F03AFF29464FF0D1
:100FB4008040602200F00CFF224629464FF080401A
:100FC40000F03CFF4FF4E17202214FF0804000F04A
:100FD40027FF02214FF08040602200F0F9FE2246F4
:100FE40002214FF0804000F029FF4FF0804000F0D4
:100FF400D1FD4FF0804000F0C7FD09B030BD00BF07
:101004000100400030B5444C83B02378012B05D057
:10101400D9B202291DD0A1B103B030BD3F4BFF2886
:101024001A7868D00A2AF7D01A783D4988541A7871
:101034000132D2B21A701B780A2BEDD1022323702D
:10104400EAE7FF28E8D101250A22344B3448257009
:101054004BE0FF2844D1324D00212A782170D3433C
:1010640003F00F03B3EB121F4FEA121CD4D16A78BA
:101074006B7AA52A43D013F0010F18BFFF229C07F7
:101084008DF800204CBFFF22AA7859078DF8012063
:101094004CBFFF22EA788DF802201A074CBFFF22CA
:1010A4002A79DC068DF803204CBFFF226A79990661
:1010B4008DF804204CBFFF22AA796C468DF80520D8
:1010C4005A064CBFFF22EA79DB0908BF287A8DF85B
:1010D40006208DF807002146604600F06FFF9BE76D
:1010E40000210E4B0A220E482170197003B0BDE88E
:1010F400304001F0B5B8002A8ED00021F2E7A52BCC
:10110400B9D16C4601460822204601F0A9F895F8A9
:1011140000C04FEA1C1CDEE76F0000206E000020B8
:10112400640000200B4670B5364A84B001AD044615
:1011340007CA85E8070019461A782046FF2A0CBF1B
:1011440001238DF806204A7818BF0023FF2A18BF10
:101154008DF807208A7808BF43F00203FF2A18BFDE
:101164008DF80820CA7808BF43F00403FF2A18BF8B
:101174008DF809200A7908BF43F00803FF2A18BF35
:101184008DF80A204A7908BF43F01003FF2A18BFDC
:101194008DF80B208A7908BF43F02003FF2A18BF7B
:1011A4008DF80C20CA7908BF43F04003FF2A1CD0F5
:1011B4008DF80D208DF80E30C34303F00F0343EA7E
:1011C4000010114C04AE8DF80500204615F8011BE3
:1011D40000F0BEFE40F20771204600F0C1FE002878
:1011E400F8D0B542F1D104B070BD43F08003FF2BB9
:1011F4008DF80E30E0D1A5238DF806308DF80E3031
:10120400DAE700BFC02300080038014010B500220F
:1012140001211B2000F098FA40F2115000F0DEFA90
:1012240040F20E6000F0DAFA4FF4007201214FF040
:10123400904000F00DFA4FF4806201214FF090408D
:1012440000F006FA4FF40073012202214FF090409F
:1012540000F0C6F84FF40073012200214FF09040D3
:10126400154C00F06FF94FF48063012202214FF016
:10127400904000F0B5F84FF48063012200214FF054
:10128400904000F05FF9204600F000FE20464FF445
:10129400E13100F01BFE2046082100F049FE042144
:1012A400204600F04DFE204600F03CFE2046BDE8FE
:1012B4001040052100F05CBE00380140044B1A695F
:1012C400120603D50349044A59605A60704700BFA7
:1012D4000020024023016745AB89EFCD024A136920
:1012E40043F0800313617047002002404FF47023E1
:1012F4001A4AD168C90723D4D368DB0628D4D36833
:10130400590727D44FF47023116941F00201116188
:1013140050611069114940F040001061CA68D20759
:1013240012D4CB68DB0617D4CB6813F0040F0CBFC0
:1013340000200220094A136923F002031361704755
:10134400013BD6D104207047013BE7D10420F1E7EB
:1013540003207047022070470320EBE7002002407F
:101364004FF4702310B41A4AD468E40720D4D36825
:10137400DB0626D4D3685C0726D44FF470231469A3
:1013840044F001041461124C0160E268D20714D4E1
:10139400E368DB061AD4E36813F0040F0CBF0020E3
:1013A40002200B4A136923F00103136110BC704738
:1013B400013BD9D1042010BC7047013BE5D1042086
:1013C400EFE7032010BC70470220EFE70320E8E7B3
:1013D40000200240014BD860704700BF002002404B
:1013E40013F0010F30B40568C46806D025F0030C6F
:1013F40024F003044CEA0105144313F0020F07D050
:1014040025F00C0C24F00C044CEA810544EA820417
:1014140013F0040F07D025F0300C24F030044CEA0C
:10142400011544EA021413F0080F07D025F0C00C8C
:1014340024F0C0044CEA811544EA821413F0100F1E
:1014440007D025F4407C24F440744CEA012544EA96
:10145400022413F0200F07D025F4406C24F44064D8
:101464004CEA812544EA822413F0400F07D025F486
:10147400405C24F440544CEA013544EA023413F04D
:10148400800F07D025F4404C24F440444CEA8135C5
:1014940044EA823413F4807F07D025F4403C24F4DA
:1014A40040344CEA014544EA024413F4007F07D077
:1014B40025F4402C24F440244CEA814544EA824437
:1014C40013F4806F07D025F4401C24F440144CEA34
:1014D400015544EA025413F4006F07D025F4400C7C
:1014E40024F440044CEA815544EA825413F4805FA6
:1014F40007D025F0407C24F040744CEA016544EAAE
:10150400026413F4005F07D025F0406C24F04064BB
:101514004CEA816544EA826413F4804F07D025F0D5
:10152400405C24F040544CEA017544EA02741B0404
:1015340044BF61F39F7562F39F740560C46030BC5F
:10154400704700BF012941680CBF194399434160AA
:10155400816813F0010F1CBF21F00301114313F044
:10156400020F1CBF21F00C0141EA820113F0040FA9
:101574001CBF21F0300141EA021113F0080F1CBF17
:1015840021F0C00141EA821113F0100F1CBF21F4B5
:10159400407141EA022113F0200F1CBF21F4406185
:1015A40041EA822113F0400F1CBF21F4405141EA6B
:1015B400023113F0800F1CBF21F4404141EA823113
:1015C40013F4807F1CBF21F4403141EA024113F43B
:1015D400007F1CBF21F4402141EA824113F4806F53
:1015E4001CBF21F4401141EA025113F4006F1CBFE7
:1015F40021F4400141EA825113F4805F1CBF21F0C1
:10160400407141EA026113F4005F1CBF21F04061A4
:1016140041EA826113F4804F1CBF21F0405141EA3A
:1016240002711B0448BF62F39F718160704700BF61
:1016340081617047816270470AB18161704781623C
:10164400704700BF43690B4214BF0120002070475C
:1016540010B4046A12F0010F1CBF24F00F040C43F1
:1016640012F0020F1CBF24F0F00444EA011412F03B
:10167400040F1CBF24F4706444EA012412F0080F20
:101684001CBF24F4704444EA013412F0100F1CBF50
:1016940024F4702444EA014412F0200F1CBF24F403
:1016A400700444EA015412F0400F18BF24F070642F
:1016B400436A18BF44EA016412F0800F18BF61F353
:1016C4001F7412F4807F1CBF23F00F030B4312F42A
:1016D400007F1CBF23F0F00343EA011312F4806F70
:1016E4001CBF23F4706343EA012312F4006F1CBF90
:1016F40023F4704343EA013312F4805F1CBF23F4E4
:10170400702343EA014312F4005F1CBF23F4700307
:1017140043EA015312F4804F1CBF23F0706343EA81
:101724000163120448BF61F31F73046210BC436277
:10173400704700BF034B40F0BF6040F40030D860F6
:10174400704700BF00ED00E0224B10B4DC6804F4E5
:10175400E06CBCF5E06F32D0DC6804F4E064B4F50E
:10176400C06F15D0DC6804F4E064B4F5A06F2DD02C
:10177400DC6804F4E064B4F5806F24D00022DB68F4
:1017840003F4E063B3F5407F0CBF1346042302E087
:10179400032302F007024FF0010C01FA03F3134391
:1017A4000D491B010C1800F01F02DBB284F8003352
:1017B40040090CFA02F210BC41F8202070470423BF
:1017C40002F00F02E7E701231A40E4E7022302F0E4
:1017D4000302E0E700ED00E000E100E001228309FC
:1017E40003F1804303F50433196800F01F0002FA83
:1017F40000F00843186070470122830903F1804315
:1018040003F50433196800F01F0002FA00F00843DE
:10181400186070470121830903F1804303F5043301
:101824001A6800F01F0001FA00F022EA00001860B4
:10183400704700BF30B589B06C464D4B08AD03F11D
:10184400100E84460FCB05E90F009EE8030002AB9F
:1018540084E8030083E80300464A5368C3F3810322
:10186400022B2DD0444C434A08A85168536852684F
:10187400C1F303110144C2F3C222024411F8101C43
:1018840012F8182CC3F30223034424FA01F113F8C9
:10189400203C21FA02F0BCF1060F66D8DFE80CF018
:1018A4000D3E2B0E2F410400324B1A6B920705D0CC
:1018B4001A6B02F00302012A3ED1204609B030BD62
:1018C40054685368C4F383441D012A4B48BF113440
:1018D4005A6858BF0234D00309D5DB6A264A03F09C
:1018E4000F030133B2FBF3F303FB04F4BBE7234B15
:1018F40003FB04F4B7E721FA03F009B030BD1D4B34
:101904001A6BD10525D55B68C3F38133022B22D032
:10191400032B25D0012B21D04008CFE7084609B07E
:1019240030BD144B48F212001B6B13F0400F18BF6C
:101934004FF4004009B030BD1A6B02F00302022AD2
:1019440010D01B6B0C4803F00303032B18BF0020BB
:10195400B4E70B48B2E70B4BA3FB00308008ADE7BC
:10196400C008ABE74FF40040A8E70020A6E700BF9B
:10197400CC2300080010024000127A0000093D0048
:10198400809FD500ABAAAAAA8A6810B4D1E9003412
:1019940023431343D1E90324134323430268D1E9C6
:1019A4000541234302F441520B4313430360C369CB
:1019B40010BC23F40063C361704700BF036843F0A5
:1019C40040030360704700BFC1607047C06880B2C5
:1019D400704700BF83680B4214BF0120002070478A
:1019E400036823F400530360704700BF08B5374B06
:1019F400984242D011D8A3F58E33984247D01DD9CE
:101A0400334B98424DD14FF48160FFF7F5FEBDE8AA
:101A140008404FF48160FFF7FDBE2E4B984241D041
:101A240003F5806398421AD140F21230FFF7E4FEC6
:101A3400BDE8084040F21230FFF7ECBEB0F1804F31
:101A44003AD0A3F5406398422BD140F20140FFF70E
:101A5400D3FEBDE8084040F20140FFF7DBBEA3F52A
:101A6400006398421DD14FF44470FFF7C5FEBDE8F2
:101A740008404FF44470FFF7CDBE40F20B30FFF73F
:101A8400BBFEBDE8084040F20B30FFF7C3BE40F296
:101A94000440FFF7B1FEBDE8084040F20440FFF700
:101AA400B9BE08BD40F21130FFF7A6FEBDE80840FC
:101AB40040F21130FFF7AEBE4FF48060FFF79CFE9A
:101AC400BDE808404FF48060FFF7A4BE002C01403D
:101AD4000020004000440140274B0A88984210B47B
:101AE400826223D020F48063B3F1804F1ED0046857
:101AF4008A8824F0100404600468224302601F4AA8
:101B04008C689042C4620DD004688A8924F44074BD
:101B14000460046822430260194A934222D0194B9C
:101B240098421FD0436910BC4361704703684A88D8
:101B340023F01003036004688B8822430260026868
:101B4400134303600D4B8A689842C262EAD002686C
:101B54008B8922F4407202600468074A234390424E
:101B6400036005D18B7B10BC0363436943617047F9
:101B740020F48063D0E700BF002C01400010004037
:101B84000040014000480140036843F00103036042
:101B9400704700BF036843F080030360704700BFD1
:101BA400C3680B43C3607047036989B2C26811EA12
:101BB400030003D0114214BF01200020704700BF6E
:101BC400036923EA01030361704700BF10B50329C9
:101BD40037D8DFE801F002A35D37036A118823F0E8
:101BE40001030362046A938821430162016A21F0BC
:101BF40002010162016A0B4372490362884240F0A8
:101C0400D480036A518823F004030362046AD388EE
:101C140021430162016A21F008010162016A0B4358
:101C240003624368118923F48073436044685389D1
:101C340021434160426822F40072426042681343C7
:101C4400436010BD036AB2F800E023F480530362DA
:101C5400016AB2F804C041EA0E310162016A21F45A
:101C640000510162036A574943EA0C338842036214
:101C7400E7D1554B1089D3F8041C21F48041C3F8F3
:101C8400041CD3F8042C42EA8012C3F8042C10BDBF
:101C9400036AB2F800E023F480730362016AB2F8C5
:101CA40004C041EA0E210162016A21F4007101625B
:101CB400036A444943EA0C2388420362C1D1016A9E
:101CC400B2F802C021F480610162036AD48843EA55
:101CD4000C230362036A23F400630362016A3A4B30
:101CE40041EA04210162D3F8040C148920F48050E1
:101CF400C3F8040CD3F8041C508941EA0411C3F856
:101D0400041CD3F8041C21F40051C3F8041CD3F8B8
:101D1400042C42EA0012C3F8042C10BD036AB2F882
:101D240000E023F010030362016AB2F804C041EA40
:101D34000E110162016A21F020010162036A214946
:101D440043EA0C13884203627FF47BAF016AB2F862
:101D540002C021F040010162036AD48843EA0C13F3
:101D64000362036A23F080030362016A164B41EAAB
:101D740004110162D3F8040C148920F48060C3F8C0
:101D8400040CD3F8041C508941EA8401C3F8041CF0
:101D9400D3F8041C21F40061C3F8041CD3F8042C08
:101DA40042EA8002C3F8042C10BD084B20F4806181
:101DB40099423FF426AF03F5006398423FF421AF04
:101DC40010BD00BF002C0140002001400040014034
:101DD40003290BD8DFE801F01C130B02C36923F4B9
:101DE400E043C361C36943EA0222C2617047C36925
:101DF40023F07003C361C3691A43C26170478369E6
:101E040023F4E0438361836943EA022282617047D9
:101E1400836923F07003836183691A438261704785
:101E2400032904D8DFE801F00806040202647047BD
:101E3400C2637047826370474263704703290BD8BB
:101E4400DFE801F01C130B02C36923F40063C361D0
:101E5400C36943EA0222C2617047C36923F00803DD
:101E6400C361C3691A43C2617047836923F4006381
:101E74008361836943EA022282617047836923F0A4
:101E84000803836183691A438261704708B50E4B66
:101E940098420DD003F57443984213D140F20E30AA
:101EA400FFF7AAFCBDE8084040F20E30FFF7B2BCD1
:101EB40040F21140FFF7A0FCBDE8084040F2114099
:101EC400FFF7A8BC08BD00BF0044004038B5144B60
:101ED400044698420D461FD003F57443984219D125
:101EE4000620FFF7A7FC23681B040CD5690801EB47
:101EF4004000B0FBF5F04FF6F075C0F34203284004
:101F04001843E06038BD00EB5500B0FBF5F080B23B
:101F1400E06038BD0020E6E70220FFF78BFCE2E733
:101F240000440040036843F001030360704700BFAE
:101F3400026822F00802026003680B4303607047E2
:101F4400026822F00402026003680B4303607047D6
:101F5400C1F3080181627047406AC0F3080070470A
:101F64008B09185801F01F01C84000F001007047A8
:101F74000123C1F3891210B401F01F01145803FAAC
:101F840001F12143115010BC704700BF0123C1F37C
:101F9400891C8A0D10B45CF800401258C1F3044047
:101FA40003FA00F0104007D001F01F0103FA01F119
:101FB400214214BF1846002010BC7047012800D0ED
:101FC40070470B780F2B06D01E2B00D070470222CF
:101FD400024B1A707047014B187070477000002054
:101FE40080B54FF4407082B0FFF7A4FB40F212506A
:101FF400FFF7F4FB2023002201213248FFF7F0F918
:102004002023032200212F48FFF79CFA20212D488A
:10201400FFF70EFB4FF00009FFF7F8F86C46FEF7E8
:1020240039FFFEF79FFEFEF769FC00F0E5F8FEF7C6
:102034005FFE254D254E264FDFF88880DFF894A0FB
:10204400337895E80300012B84E80300DAB22FD03B
:10205400022A28D0B86900F007F90346B8691B0AB8
:102064008DF8003000F000F903464946B8698DF850
:102074000130FEF76BFA0346214600200BB1C7F886
:1020840018A0FFF74FF820214046FFF7DBFA02467D
:10209400B2FA82F2404620215209FFF7CDFA3220EB
:1020A40000F0CCF8CCE7FEF7CDFE00233370C7E791
:1020B400FEF762FCFEF75EFBFEF7E8FD00233370DB
:1020C400BEE700BF00040048E423000870000020BD
:1020D40038000020DA0F4940704700BFFEE700BF18
:1020E400FEE700BFFEE700BFFEE700BF704700BF8A
:1020F400704700BF704700BF10B5084C00F0A6F849
:1021040023780133DBB223702378022B00D010BD77
:10211400FEF718FB0023237010BD00BF71000020E0
:1021240008B507490748FFF731FF00B908BD05485E
:10213400FFF712FFBDE80840C0B2FEF763BF00BF5F
:10214400050005070038014010B50121144886B088
:10215400FFF72AFD012801D006B010BD0146104842
:10216400FFF72EFDFEF79AFA0E4B05AC1B7873B100
:1021740003ABCDE9003400210B4A04ABFEF72CFD80
:10218400059A04990398FEF73FFE06B010BD04AB10
:10219400CDE900340021044A03ABFEF71DFDEFE74F
:1021A40000040040600000209A99193F002103E0D8
:1021B4000B4B5B58435004310A480B4B42189A426C
:1021C400F6D30A4A02E0002342F8043B084B9A4241
:1021D400F9D300F061F800F0B9F8FFF701FF704798
:1021E400F42B000800000020080000200800002054
:1021F40074000020FEE700000D4B0E4A1B68A2FB92
:1022040003239B09013BB3F1807F10D210B44FF03C
:10221400E022002007244FF0F00C0749536181F8B5
:1022240023C09061146181F8230010BC7047FEE75D
:1022340004000020D34D621000ED00E0024A10605B
:102244001368002BFCD1704700000020034B1A6870
:1022540012B11A68013A1A60704700BF00000020EA
:102264000AB100F097B8704710B500210446FEF794
:102274006DF960B9E20D074B703A03EA1443C4F3F5
:1022840049309202184302F4F843184310BD002069
:1022940010BD00BF0080FFFF2A4B10B41A6842F043
:1022A40001021A601A689007FCD500205C68264970
:1022B400244A21405960596821F0084121F47411DD
:1022C4005960596821F440015960196821F08671F8
:1022D40021F480311960D96A21F00F01D962196B98
:1022E40021F4A17121F001011963596B21F001015D
:1022F40059639860596859605968596059685960B8
:10230400596821F0036121F450215960596841F062
:10231400006141F480215960196841F080711960AD
:1023240013689901FCD55368064923F003035360ED
:10233400536843F0020353604B681B07FCD510BC81
:10234400704700BF001002400C00FF0870B5002663
:102354000C4D0D4C641BA410A64209D100F022F8C8
:1023640000260A4D0A4C641BA410A64205D170BD78
:1023740055F8043B98470136EEE755F8043B984777
:102384000136F2E7EC2B0008EC2B0008EC2B0008DC
:10239400F02B000803460244934200D1704703F82F
:1023A400011BF9E7F8B500BFF8BC08BC9E467047AE
:0C23B400F8B500BFF8BC08BC9E4670479E
:1023C000FF00000000000000000000FF000000000F
:1023D00000000000010203040607080900000000D5
:1023E00001020304000000000000000000000000E3
:1023F0002975493CDF6EC93C6F0E173D3160493D80
:102400008FA97B3D38F4963D6B0EB03D4721C93D09
:102410005E2EE23DEC2FFB3D7F130A3E698C163E9B
:1024200076FD223EA5662F3E97CA3B3E4A29483E8E
:10243000807D543EDAC9603E560E6D3EF54A793EC7
:102440003CBD823E0FD1883EA4DF8E3EFBE8943E29
:10245000C4EB9A3EFFE7A03EFCDEA63E6CCFAC3E4E
:102460004EB9B23EA29CB83E1878BE3EB24BC43EB6
:10247000BD18CA3EECDDCF3EED99D53E614FDB3E47
:1024800059FAE03EC39EE63EB038EC3E71C9F13EDB
:102490005452F73EBBD0FC3E5322013FB2D7033F1C
:1024A000D387063FB532093F5AD80B3FC0780E3F5D
:1024B0004013113F82A8133FDF37163F55C1183F25
:1024C000E5441B3F8FC21D3F543A203F8AAB223F59
:1024D000DB16253F9E7B273FD3D9293F7B312C3FFD
:1024E000ED812E3F79CC303FD00F333FF14B353F5C
:1024F0008481373FE2AF393F0AD73B3FFDF63D3F8E
:10250000130F403F9B20423F9E29443F132C463FE0
:102510000326483FBD184A3F9B034C3FF3E54D3F20
:1025200016C14F3FB493513F745E533F5721553FFF
:102530000EDB563F8F8D583FE3365A3FB2D75B3F95
:10254000A4705D3F69005F3F5188603F0C07623FA8
:102550009A7C633FA3E9643F274E663F7EA9673FAD
:1025600050FC683F4E456A3FC6856B3F12BD6C3FCD
:1025700031EB6D3F23106F3F412B703FD93D713FD1
:102580009D46723F3546733F9F3C743F3529753FEA
:102590009E0C763F32E6763F9AB6773F2C7D783FA9
:1025A000EB39793F7CED793F39977A3F22377B3F92
:1025B00036CD7B3F75597C3F87DC7C3F1D557D3F89
:1025C00087C47D3F74297E3F34857E3F77D67E3F2A
:1025D0008E1E7F3F295C7F3FEF8F7F3F88BA7F3F12
:1025E000A5DA7F3FEDF07F3F61FD7F3F0000803F38
:1025F00023F87F3F19E77F3F92CB7F3F37A67F3F8E
:10260000AF777F3FAB3E7F3FD2FB7E3F25AF7E3F24
:10261000A3587E3F4DF87D3F228E7D3F221A7D3F9D
:102620004E9C7C3FA5147C3F27837B3FD5E77A3FB8
:1026300057437A3F0395793FDBDC783FDF1A783FD9
:10264000B54F773FB77A763FE59B753FE5B3743F6B
:10265000B9C2733FB9C7723F8BC3713F31B6703F88
:10266000029F6F3FA67E6E3F1D556D3F68226C3FF7
:1026700086E66A3F1FA2693FE353683F22FD663F3B
:10268000349D653F1A34643F22C3623F5648613F20
:10269000ACC55F3FD6395E3F7AA55C3F9A085B3F89
:1026A0003563593F4AB5573F82FF553F8E40543FEF
:1026B000637A523FB4AB503F80D44E3F6FF54C3FEE
:1026C000280F4B3F5C20493FB329473FD42B453F60
:1026D0001826433F7E18413FB0033F3FABE73C3FE6
:1026E00072C43A3F5B99383FB667363FDC2E343FC1
:1026F000CCEE313F2FA82F3F5C5A2D3FFB052B3FDF
:102700000DAB283F9049263F2EE2233F9773213F90
:1027100019FF1E3FB6841C3FC5031A3F957D173F26
:10272000D8F0143FDD5E123FFCC60F3F35290D3F48
:102730002F860A3FECDD073F6A30053FAA7D023F46
:10274000598BFF3E3012FA3E8A8EF43E0803EF3E6C
:10275000096DE93EDDCDE33E8525DE3E4F75D83E71
:102760003CBDD23EFCFBCC3EDF32C73E3563C13EB2
:102770005D8ABB3E47ACB53E05C5AF3E84D8A93E99
:1027800075E5A33E89EA9D3E60EA973EF7E4913EF7
:1027900002D98B3ECEC7853EB7627F3EF52D733E94
:1027A000B7EE663EFDA45A3E65534E3EF0F9413EFB
:1027B0003D9B353E0E32293EA0C31C3EF44F103ED9
:1027C0000AD7033EC4B1EE3DB9A5D53DA298BC3DA4
:1027D0001B82A33D49658A3D6685623DD637303D03
:1027E000F7C7FB3CC615973C5374C93B5374C9BB30
:1027F000C61597BCF7C7FBBCD63730BD668562BD32
:1028000049658ABD1B82A3BDA298BCBDB9A5D5BD33
:10281000C4B1EEBD0AD703BEF44F10BEA0C31CBEA8
:102820000E3229BE3D9B35BEF0F941BE65534EBE0A
:10283000FDA45ABEB7EE66BEF52D73BEB7627FBE6D
:10284000CEC785BE02D98BBEF7E491BE60EA97BEC3
:1028500089EA9DBE75E5A3BE84D8A9BE05C5AFBEF5
:1028600047ACB5BE5D8ABBBE3563C1BEDF32C7BEF5
:10287000FCFBCCBE3CBDD2BE4F75D8BE8525DEBEAE
:10288000DDCDE3BE096DE9BE0803EFBE8A8EF4BE5E
:102890003012FABE598BFFBEAA7D02BF6A3005BF57
:1028A000ECDD07BF2F860ABF35290DBFFCC60FBF61
:1028B000DD5E12BFD8F014BF957D17BFC5031ABFE8
:1028C000B6841CBF19FF1EBF977321BF2EE223BF22
:1028D000904926BF0DAB28BFFB052BBF5C5A2DBF0F
:1028E0002FA82FBFCCEE31BFDC2E34BFB66736BF6A
:1028F0005B9938BF72C43ABFABE73CBFB0033FBF80
:102900007E1841BF182643BFD42B45BFB32947BF0C
:102910005C2049BF280F4BBF6FF54CBF80D44EBF22
:10292000B4AB50BF637A52BF8E4054BF82FF55BFD5
:102930004AB557BF356359BF9A085BBF7AA55CBFDC
:10294000D6395EBFACC55FBF564861BF22C362BF08
:102950001A3464BF349D65BF22FD66BFE35368BF70
:102960001FA269BF86E66ABF68226CBF1D556DBF96
:10297000A67E6EBF029F6FBF31B670BF8BC371BFA3
:10298000B9C772BFB9C273BFE5B374BFE59B75BF6A
:10299000B77A76BFB54F77BFDF1A78BFDBDC78BF79
:1029A000039579BF57437ABFD5E77ABF27837BBFAB
:1029B000A5147CBF4E9C7CBF221A7DBF228E7DBF9A
:1029C0004DF87DBFA3587EBF25AF7EBFD2FB7EBF33
:1029D000AB3E7FBFAF777FBF37A67FBF92CB7FBFB6
:1029E00019E77FBF23F87FBF000080BF61FD7FBF75
:1029F000EDF07FBFA5DA7FBF88BA7FBFEF8F7FBFC3
:102A0000295C7FBF8E1E7FBF77D67EBF34857EBF99
:102A100074297EBF87C47DBF1D557DBF87DC7CBF09
:102A200075597CBF36CD7BBF22377BBF39977ABFC4
:102A30007CED79BFEB3979BF2C7D78BF9AB677BF33
:102A400032E676BF9E0C76BF352975BF9F3C74BFBA
:102A5000354673BF9D4672BFD93D71BF412B70BFD4
:102A600023106FBF31EB6DBF12BD6CBFC6856BBF4E
:102A70004E456ABF50FC68BF7EA967BF274E66BF40
:102A8000A3E964BF9A7C63BF0C0762BF518860BF33
:102A900069005FBFA4705DBFB2D75BBFE3365ABFAA
:102AA0008F8D58BF0EDB56BF572155BF745E53BF85
:102AB000B49351BF16C14FBFF3E54DBF9B034CBF4D
:102AC000BD184ABF032648BF132C46BF9E2944BFEA
:102AD0009B2042BF130F40BFFDF63DBF0AD73BBF4F
:102AE000E2AF39BF848137BFF14B35BFD00F33BF61
:102AF00079CC30BFED812EBF7B312CBFD3D929BF1C
:102B00009E7B27BFDB1625BF8AAB22BF543A20BF6E
:102B10008FC21DBFE5441BBF55C118BFDF3716BFAD
:102B200082A813BF401311BFC0780EBF5AD80BBF85
:102B3000B53209BFD38706BFB2D703BF532201BF47
:102B4000BBD0FCBE5452F7BE71C9F1BEB038ECBE6A
:102B5000C39EE6BE59FAE0BE614FDBBEED99D5BE1D
:102B6000ECDDCFBEBD18CABEB24BC4BE1878BEBE27
:102B7000A29CB8BE4EB9B2BE6CCFACBEFCDEA6BE47
:102B8000FFE7A0BEC4EB9ABEFBE894BEA4DF8EBEF6
:102B90000FD188BE3CBD82BEF54A79BE560E6DBED1
:102BA000DAC960BE807D54BE4A2948BE97CA3BBE82
:102BB000A5662FBE76FD22BE698C16BE7F130ABEA7
:102BC000EC2FFBBD5E2EE2BD4721C9BD6B0EB0BD33
:102BD00038F496BD8FA97BBD316049BD6F0E17BD1E
:0C2BE000DF6EC9BC297549BC0000000074
:042BEC0029010008B3
:042BF00005010008D3
:082BF4000100000000A24A04E8
:04000005080021B11D
:00000001FF
