:020000040800F2
:1000000000100020892400085D23000861230008F7
:1000100065230008692300086D2300080000000024
:100020000000000000000000000000007123000834
:100030007523000800000000792300087D230008D4
:10004000D1240008D1240008D1240008D1240008BC
:10005000D1240008D1240008D1240008D1240008AC
:10006000D1240008D1240008D1240008D12400089C
:10007000D1240008D1240008D1240008D12400088C
:10008000CD230008D1240008000000003924000816
:10009000D1240008D1240008D1240008D12400086C
:1000A000D1240008D1240008D1240008A523000889
:1000B000D124000800000000D12400080000000046
:1000C000D124000800000000D1240008D124000839
:1000D000D1240008D1240008D12400080000000029
:1000E0000000000000000000D1240008D124000816
:1000F000D1240008D1240008D1240008D12400080C
:04010000D1240008FE
:1001040010B5054C237833B9044B13B10448AFF34D
:1001140000800123237010BD0800002000000000AF
:100124005826000808B5034B1BB103490348AFF335
:10013400008008BD000000000C00002058260008C4
:100144004FF0FF0C1CEAD0521EBF1CEAD15392EAB6
:100154000C0F93EA0C0F6FD01A4480EA010C400292
:1001640018BF5FEA41211ED04FF0006343EA5010EC
:1001740043EA5111A0FB01310CF00040B1F5000F2E
:100184003EBF490041EAD3715B0040EA010062F1DD
:100194007F02FD2A1DD8B3F1004F40EBC25008BFC7
:1001A40020F00100704790F0000F0CF0004C08BFE5
:1001B40049024CEA502040EA51207F3AC2BFD2F1B2
:1001C400FF0340EAC250704740F400004FF00003C0
:1001D400013A5DDC12F1190FDCBF00F000407047FA
:1001E400C2F10002410021FA02F1C2F1200200FA38
:1001F40002FC5FEA310040F1000053EA4C0308BFFF
:1002040020EADC70704792F0000F00F0004C02BF4F
:10021400400010F4000F013AF9D040EA0C0093F0CA
:10022400000F01F0004C02BF490011F4000F013B24
:10023400F9D041EA0C018FE70CEAD15392EA0C0F92
:1002440018BF93EA0C0F0AD030F0004C18BF31F0FD
:10025400004CD8D180EA010000F00040704790F0D3
:10026400000F17BF90F0004F084691F0000F91F077
:10027400004F14D092EA0C0F01D142020FD193EA3D
:100284000C0F03D14B0218BF084608D180EA0100C5
:1002940000F0004040F0FE4040F40000704740F0A1
:1002A400FE4040F44000704780F0004002E000BF90
:1002B40081F0004142001FBF5FEA410392EA030F4D
:1002C4007FEA226C7FEA236C6AD04FEA1262D2EB97
:1002D4001363C1BFD218414048404140B8BF5B429C
:1002E400192B88BF704710F0004F40F4000020F035
:1002F4007F4018BF404211F0004F41F4000121F04B
:100304007F4118BF494292EA030F3FD0A2F1010294
:1003140041FA03FC10EB0C00C3F1200301FA03F1D2
:1003240000F0004302D5494260EB4000B0F5000FF5
:1003340013D3B0F1807F06D340084FEA310102F1B4
:100344000102FE2A51D2B1F1004F40EBC25008BF66
:1003540020F0010040EA03007047490040EB000030
:10036400013A28BFB0F5000FEDD2B0FA80FCACF131
:10037400080CB2EB0C0200FA0CF0AABF00EBC2505E
:1003840052421843BCBFD0401843704792F0000F4C
:1003940081F4000106BF80F400000132013BB5E79F
:1003A4004FEA41037FEA226C18BF7FEA236C21D015
:1003B40092EA030F04D092F0000F08BF084670477A
:1003C40090EA010F1CBF0020704712F07F4F04D148
:1003D400400028BF40F00040704712F100723CBF5B
:1003E40000F50000704700F0004343F0FE4040F485
:1003F400000070477FEA226216BF08467FEA236343
:100404000146420206BF5FEA412390EA010F40F42D
:10041400800070474FF0000304E000BF10F0004379
:1004240048BF40425FEA000C08BF704743F0964360
:1004340001464FF000001CE050EA010208BF70477B
:100444004FF000030AE000BF50EA010208BF704702
:1004540011F0004302D5404261EB41015FEA010C17
:1004640002BF84460146002043F0B64308BFA3F10F
:100474008053A3F50003BCFA8CF2083AA3EBC253F1
:1004840010DB01FA02FC634400FA02FCC2F1200210
:10049400BCF1004F20FA02F243EB020008BF20F047
:1004A4000100704702F1200201FA02FCC2F12002AD
:1004B40050EA4C0021FA02F243EB020008BF20EAA2
:1004C400DC7070474FF0FF3C06E000BF4FF0010CBA
:1004D40002E000BF4FF0010C4DF804CD4FEA40029A
:1004E4004FEA41037FEA226C18BF7FEA236C11D0E4
:1004F40001B052EA530C18BF90EA010F58BFB2EB97
:10050400030088BFC81738BF6FEAE17018BF40F016
:10051400010070477FEA226C02D15FEA402C05D1CA
:100524007FEA236CE4D15FEA412CE1D05DF8040B4F
:10053400704700BF844608466146FFE70FB5FFF7E2
:10054400C9FF002848BF10F1000F0FBD4DF808ED9A
:10055400FFF7F4FF0CBF012000205DF808FB00BF8B
:100564004DF808EDFFF7EAFF34BF012000205DF8E5
:1005740008FB00BF4DF808EDFFF7E0FF94BF012032
:1005840000205DF808FB00BF4DF808EDFFF7D2FF2F
:1005940094BF012000205DF808FB00BF4DF808ED72
:1005A400FFF7C8FF34BF012000205DF808FB00BF3F
:1005B4004FEA4002B2F1FE4F0FD34FF09E03B3EB6C
:1005C40012620DD94FEA002343F0004310F0004FAC
:1005D40023FA02F018BF404270474FF00000704702
:1005E40012F1610F01D1420205D110F0004008BFA1
:1005F4006FF0004070474FF00000704742000ED289
:10060400B2F1FE4F0BD34FF09E03B3EB126209D449
:100614004FEA002343F0004323FA02F070474FF0FF
:100624000000704712F1610F01D1420202D14FF074
:10063400FF3070474FF00000704700BF2DE9F041D4
:10064400002210214FF0904001F0C6F8002000F085
:10065400E1FB0446012210214FF0904001F0BCF868
:10066400134A1449D2E900780B88C4F30F10C61951
:100674009BB248F10007F41A67F10005C2E900458E
:10068400DFF834C008800CCABCF8000080B2101A2D
:1006940063F10003002BC0F30B0005DA01386FEAA5
:1006A40000506FEA1050013080B2BDE8F08100BF05
:1006B4003000002024000020260000202DE9F04115
:1006C400002210214FF0904001F086F8002000F045
:1006D400A1FB0446012210214FF0904001F07CF868
:1006E400204A2149D2E900780B88C4F30F10C619B7
:1006F4009BB248F10007F41A67F10005C2E900450E
:10070400DFF868C008800CCABCF8000080B2101A78
:1007140063F10003002BC0F30B0005DA01386FEA24
:1007240000506FEA1050013084B22046FFF772FE89
:100734000F49FFF705FD02460E4B0F49A3FB0403C7
:10074400E01A03EB5000400A00EBC00000EB8010FD
:10075400201A0A6080B2FFF761FE0849FFF7F0FC37
:10076400BDE8F08130000020240000202600002095
:10077400DB0FC93AC1011CC048000020E0ED2F3C4A
:1007840038B5094D094CD5E90023D4E90001111A03
:1007940009B2074800F0A8F8064B5860D5E90023D1
:1007A400C4E9002338BD00BF300000202800002029
:1007B40038000020480000202DE9F04D00270024D7
:1007C4004FF0000A4FF0000B86B005AE04AD4FF4B5
:1007D4007A7001F09FFE03AB3A463846CDE90056E5
:1007E4001D4900F0E7F9059A0499039800F07EFB8F
:1007F4004FF4967001F08EFEDFF86080184B2246AD
:1008040010214FF09040A8F80040C3E900AB00F07D
:10081400E3FF204600F0FEFA0446012210214FF0C7
:10082400904000F0D9FFC4F30F1403AB3A463946A5
:10083400384601960095A8F8004000F0BBF90398EB
:10084400059A049900F052FB4FF4967001F062FE91
:1008540006B0BDE8F08D00BF9A99993E26000020AD
:100864003000002070B500260446154D2946204668
:10087400FFF794FE78B131462046FFF78FFE50B162
:1008840020462946FFF714FD044629462046FFF773
:1008940085FE0028EFD131462046FFF761FE28B1DE
:1008A40020462946FFF706FD0446DFE705492046B2
:1008B400FFF746FCFFF77CFE034B53F8200070BDA6
:1008C400DB0FC94083F9A2429C26000810B5044CF2
:1008D40010220021204601F02FFE024BE36010BDE0
:1008E400380000207C59443F038810B55A1C92B24A
:1008F40000EB4303032A59800CBF0023028040F21B
:10090400CE72B0F9041008BF0380B0F90230044677
:10091400B0F906000B440344084880FB0310A0EB25
:10092400E37000F2E733934201D9A06810BDFFF7EA
:1009340075FDE168FFF704FCA06010BD56555555E0
:100944002DE9F04F954885B0FFF78CFF002502464E
:100954000020019204460095FFF784FF0346019AA4
:100964008F4910460393FFF7EBFBDFF838820190C1
:100974004146FFF7E5FB4FF07C578446019A394620
:100984001046CDF808C0FFF7DBFB8446039BDFF875
:1009940018B218465946CDF804C0FFF7D1FB019BA5
:1009A40001461846FFF784FC4146FFF7C9FB394668
:1009B400FFF780FC0346029A4FF07E5110460392E3
:1009C4000193FFF777FC019B322619460293FFF748
:1009D4006FFC8446039A38461146CDF804C0FFF7ED
:1009E40067FCDDE90123194600F080FA4FF47A70C0
:1009F40001F090FDFFF722FE2B460246009D9A422D
:100A040005F1010C88BF1FFA8CF32146634888BFA7
:100A140000931546FFF74CFCFFF724FF8146204660
:100A2400FFF720FF02465E4948460192FFF788FB24
:100A340041468146FFF784FB394682464846FFF724
:100A44007FFB019A814659461046FFF779FB014620
:100A54004846FFF72DFC4146FFF772FB3946FFF786
:100A640029FC524981462046FFF724FC4FF07E5171
:100A740004465046FFF71EFC4946FFF719FC0246A0
:100A8400514638460192FFF713FC4946019A00F09B
:100A94002DFA013E142001F03DFD16F0FF06A9D108
:100AA40032264FF07C57DFF8F4B0DFF8F880FFF718
:100AB400C5FD2B460246009D9A4205F1010C38BF44
:100AC4001FFA8CF32146584638BF00931546FFF7AA
:100AD400EFFBFFF7C7FE81462046FFF7C3FE024641
:100AE4002F4948460192FFF72BFB41468146FFF709
:100AF40027FB394682464846FFF722FB019A814686
:100B040029491046FFF71CFB01464846FFF7D0FB76
:100B14004146FFF715FB3946FFF7CCFB23498146D5
:100B24002046FFF7C5FB4FF07E5104465046FFF7C1
:100B3400C1FB4946FFF7BCFB0246514638460192C9
:100B4400FFF7B6FB4946019A00F0D0F9013E1420A4
:100B540001F0E0FC16F0FF06A9D11048FFF782FE71
:100B64000020FFF77FFE4FF07C521046114600F044
:100B7400BDF94FF4967001F0CDFC009B4A2B04D9CB
:100B84000B4B1E7005B0BDE8F08F182B05D8012261
:100B9400074B1A7005B0BDE8F08FFEE7DA0FC93FC6
:100BA4009A99993E3ECFF33D8105853ECDCC4C3E8E
:100BB400540000202DE9F84304460E462A482146F5
:100BC40090461D46FFF774FBFFF74CFE0746204690
:100BD400FFF748FE314604463846FFF7B1FA41466E
:100BE40081462046FFF7ACFA01464846FFF760FB12
:100BF4001E498146FFF7A4FA01464FF07C50FFF7E7
:100C040057FB4FF07C5128604846FFF799FA03469A
:100C1400414638461F46FFF793FA034631462046BD
:100C24001C46FFF78DFA01462046FFF743FB1049A7
:100C3400FFF786FA01463846FFF73AFB0B49FFF700
:100C44007FFA4FF07C51FFF735FB0446089B4FF0C9
:100C54007F501C602968FFF72BFB2146FFF728FB18
:100C6400099B1860BDE8F883DA0FC93F3ECFF33D16
:100C7400D7B35D3F70B50446124D134E24220021B4
:100C8400284601F059FC24220021304601F054FC8E
:100C9400012C14D0A31E012B10D84FF07E53022236
:100CA4006B610A4B032CAB61094B2B60094B1A7027
:100CB40004D10949094A7161B2611C7070BD054BC8
:100CC4001C7070BD8000002058000020000080BF10
:100CD400CDCCCC3D7C0000200000C8420000C8C23E
:100CE400F8B504460069FFF7E3FAE1680646FFF742
:100CF400E1FAE56907462946FFF732FC38B905F100
:100D0400004539462846FFF735FC00282DD0216AD6
:100D1400E5603046FFF7CCFAA168FFF711FA2168C5
:100D240007463046FFF70CFA01463846FFF7C2FA89
:100D34000346616828461D46FFF702FA0146284625
:100D4400FFF7B8FA0546A769294638462662FFF731
:100D540025FC28B9676929463846FFF70BFC08B11A
:100D64003846F8BD2F463846F8BD3D46CFE700BFAC
:100D740070B5144A144B154E15881C7800F06EFBA0
:100D8400342000F0F7FB304600F080FBADB2342095
:100D940000F0F0FB00F072FB00F060FB29463046E7
:100DA40000F0AEFBE4B2342000F0E4FB2146084836
:100DB40000F0A6FB342000F0DDFBBDE8704000F03D
:100DC4005DBB00BF2600002054000020007C00080A
:100DD400047C00080B4A08B5B2F8000C0A4B0B4916
:100DE40092F8042C18800A701B889BB2B3F5805FBC
:100DF40002D80B78012B04D92021054800F0EAFC25
:100E0400FEE708BD00700008260000205400002002
:100E14000004004810B5044602210A4800F0C8FE48
:100E24000028F9D02146074800F0BCFE01210548FE
:100E340000F0BEFE0028F9D0BDE81040014800F0E3
:100E4400B3BE00BF00300140D0B540F2115088B0AD
:100E540000F0A2FD40F20C6000F09EFDE0220021B3
:100E64004FF0904000F0C4FCE023002202214FF038
:100E7400904000F085FBE023032200214FF09040D6
:100E840000F030FC1023002201214FF0904000F0CC
:100E940077FB1023032200214FF0904000F022FC46
:100EA40010214FF0904000F093FC4FF400624FF497
:100EB40000731821CDE902234FF482760022012326
:100EC4000027094CCDE9042320460691CDE90067AB
:100ED40000F074FE2046694600F044FE204600F00F
:100EE4005BFE08B0D0BD00BF0030014070B50E46B7
:100EF4000C491546FFF724F9FFF780FB4FF08044B7
:100F04000346084963633046FFF71AF9FFF776FB97
:100F140003460449A3632846FFF712F9FFF76EFB63
:100F2400E06370BD0000614410B50A4C204600F037
:100F34001FFF204600F048FE2046012100F028FF54
:100F4400132000F01BFDBDE810404FF4E16000F0F9
:100F540031BD00BF0020004010B50D4C204600F00C
:100F640007FF204600F030FE0121204600F010FF6C
:100F7400102000F003FD40F2017000F01BFD4FF063
:100F840080434FF4E1725A639A63DA6310BD00BF81
:100F94000004004030B5124C85B040F2017000F0FE
:100FA400FBFC204600F010FE00257C23472220464F
:100FB400694600920293ADF80450ADF80C5000F06D
:100FC40079FE0121204600F0DFFE204600F0CAFE33
:100FD4002A460221102000F087FC05B030BD00BF76
:100FE4000004004030B5124C85B04FF4E16000F0CD
:100FF400D3FC204600F0E8FD002540F2CF734722E1
:101004002046694600920293ADF80450ADF80C50A6
:1010140000F050FE0121204600F0B6FE204600F00C
:10102400A1FE2A460321132000F05EFC05B030BD6A
:101034000020004030B540F2115089B000F0ACFC03
:101044004FF4E06000F0A8FC4FF0804000F0BCFDDD
:101054000123002202214FF0904000F091FA012375
:10106400032200214FF0904000F03CFB00220223B9
:101074001446012519464FF0904000F081FA2146AC
:10108400022303224FF0904000F02CFB224604235D
:1010940002214FF0904000F073FA0423214603220A
:1010A4004FF0904000F01EFB2A4602214FF0904082
:1010B40000F09EFB02224FF09040114600F098FB96
:1010C400042202214FF0904000F092FB4FF4617330
:1010D400334A04A94FF0804006930492ADF81440BB
:1010E400ADF81C408DF81E4000F0E4FD214601AA35
:1010F4004FF08040ADF80840ADF8045000F060FEB9
:10110400294601AA4FF0804000F05AFE01AA0221AC
:101114004FF0804000F054FE21464FF4E1724FF04E
:10112400804000F077FF21464FF08040602200F0BD
:1011340049FF224621464FF0804000F079FF2946BE
:101144004FF4E1724FF0804000F064FF29464FF005
:101154008040602200F036FF224629464FF080404E
:1011640000F066FF4FF4E17202214FF0804000F07E
:1011740051FF02214FF08040602200F023FF2246FD
:1011840002214FF0804000F053FF4FF0804000F008
:10119400F5FD4FF0804000F0E5FD09B030BD00BF23
:1011A4000100400030B5444C83B02378012B05D0B6
:1011B400D9B202291DD0A1B103B030BD3F4BFF28E5
:1011C4001A7868D00A2AF7D01A783D4988541A78D0
:1011D4000132D2B21A701B780A2BEDD1022323708C
:1011E400EAE7FF28E8D101250A22344B3448257068
:1011F4004BE0FF2844D1324D00212A782170D3439B
:1012040003F00F03B3EB121F4FEA121CD4D16A7818
:101214006B7AA52A43D013F0010F18BFFF229C0755
:101224008DF800204CBFFF22AA7859078DF80120C1
:101234004CBFFF22EA788DF802201A074CBFFF2228
:101244002A79DC068DF803204CBFFF226A799906BF
:101254008DF804204CBFFF22AA796C468DF8052036
:101264005A064CBFFF22EA79DB0908BF287A8DF8B9
:1012740006208DF807002146604600F099FF9BE7A1
:1012840000210E4B0A220E482170197003B0BDE8EC
:10129400304001F051B9002A8ED00021F2E7A52B8D
:1012A400B9D16C4601460822204601F045F995F86B
:1012B40000C04FEA1C1CDEE7AF000020AE00002097
:1012C400A40000200B4670B5364A84B001AD044634
:1012D40007CA85E8070019461A782046FF2A0CBF7A
:1012E40001238DF806204A7818BF0023FF2A18BF6F
:1012F4008DF807208A7808BF43F00203FF2A18BF3D
:101304008DF80820CA7808BF43F00403FF2A18BFE9
:101314008DF809200A7908BF43F00803FF2A18BF93
:101324008DF80A204A7908BF43F01003FF2A18BF3A
:101334008DF80B208A7908BF43F02003FF2A18BFD9
:101344008DF80C20CA7908BF43F04003FF2A1CD053
:101354008DF80D208DF80E30C34303F00F0343EADC
:101364000010114C04AE8DF80500204615F8011B41
:1013740000F0E8FE40F20771204600F0EBFE002882
:10138400F8D0B542F1D104B070BD43F08003FF2B17
:101394008DF80E30E0D1A5238DF806308DF80E308F
:1013A400DAE700BF702600080038014010B50022BB
:1013B40001211B2000F098FA40F2115000F0ECFAE1
:1013C40040F20E6000F0E8FA4FF4007201214FF091
:1013D400904000F00DFA4FF4806201214FF09040EC
:1013E40000F006FA4FF40073012202214FF09040FE
:1013F40000F0C6F84FF40073012200214FF0904032
:10140400154C00F06FF94FF48063012202214FF074
:10141400904000F0B5F84FF48063012200214FF0B2
:10142400904000F05FF9204600F02AFE20464FF479
:10143400E13100F045FE2046082100F073FE04214E
:10144400204600F077FE204600F066FE2046BDE808
:101454001040052100F086BE00380140044B1A6993
:10146400120603D50349044A59605A60704700BF05
:101474000020024023016745AB89EFCD024A13697E
:1014840043F0800313617047002002404FF470233F
:101494001A4AD168C90723D4D368DB0628D4D36891
:1014A400590727D44FF47023116941F002011161E7
:1014B40050611069114940F040001061CA68D207B8
:1014C40012D4CB68DB0617D4CB6813F0040F0CBF1F
:1014D40000200220094A136923F0020313617047B4
:1014E400013BD6D104207047013BE7D10420F1E74A
:1014F40003207047022070470320EBE700200240DE
:101504004FF4702310B41A4AD468E40720D4D36883
:10151400DB0626D4D3685C0726D44FF47023146901
:1015240044F001041461124C0160E268D20714D43F
:10153400E368DB061AD4E36813F0040F0CBF002041
:1015440002200B4A136923F00103136110BC704796
:10155400013BD9D1042010BC7047013BE5D10420E4
:10156400EFE7032010BC70470220EFE70320E8E711
:1015740000200240014BD860704700BF00200240A9
:1015840013F0010F30B40568C46806D025F0030CCD
:1015940024F003044CEA0105144313F0020F07D0AE
:1015A40025F00C0C24F00C044CEA810544EA820476
:1015B40013F0040F07D025F0300C24F030044CEA6B
:1015C400011544EA021413F0080F07D025F0C00CEB
:1015D40024F0C0044CEA811544EA821413F0100F7D
:1015E40007D025F4407C24F440744CEA012544EAF5
:1015F400022413F0200F07D025F4406C24F4406437
:101604004CEA812544EA822413F0400F07D025F4E4
:10161400405C24F440544CEA013544EA023413F0AB
:10162400800F07D025F4404C24F440444CEA813523
:1016340044EA823413F4807F07D025F4403C24F438
:1016440040344CEA014544EA024413F4007F07D0D5
:1016540025F4402C24F440244CEA814544EA824495
:1016640013F4806F07D025F4401C24F440144CEA92
:10167400015544EA025413F4006F07D025F4400CDA
:1016840024F440044CEA815544EA825413F4805F04
:1016940007D025F0407C24F040744CEA016544EA0C
:1016A400026413F4005F07D025F0406C24F040641A
:1016B4004CEA816544EA826413F4804F07D025F034
:1016C400405C24F040544CEA017544EA02741B0463
:1016D40044BF61F39F7562F39F740560C46030BCBE
:1016E400704700BF012941680CBF19439943416009
:1016F400816813F0010F1CBF21F00301114313F0A3
:10170400020F1CBF21F00C0141EA820113F0040F07
:101714001CBF21F0300141EA021113F0080F1CBF75
:1017240021F0C00141EA821113F0100F1CBF21F413
:10173400407141EA022113F0200F1CBF21F44061E3
:1017440041EA822113F0400F1CBF21F4405141EAC9
:10175400023113F0800F1CBF21F4404141EA823171
:1017640013F4807F1CBF21F4403141EA024113F499
:10177400007F1CBF21F4402141EA824113F4806FB1
:101784001CBF21F4401141EA025113F4006F1CBF45
:1017940021F4400141EA825113F4805F1CBF21F01F
:1017A400407141EA026113F4005F1CBF21F0406103
:1017B40041EA826113F4804F1CBF21F0405141EA99
:1017C40002711B0448BF62F39F718160704700BFC0
:1017D40081617047816270470AB18161704781629B
:1017E400704700BF43690B4214BF012000207047BB
:1017F40010B4046A12F0010F1CBF24F00F040C4350
:1018040012F0020F1CBF24F0F00444EA011412F099
:10181400040F1CBF24F4706444EA012412F0080F7E
:101824001CBF24F4704444EA013412F0100F1CBFAE
:1018340024F4702444EA014412F0200F1CBF24F461
:10184400700444EA015412F0400F18BF24F070648D
:10185400436A18BF44EA016412F0800F18BF61F3B1
:101864001F7412F4807F1CBF23F00F030B4312F488
:10187400007F1CBF23F0F00343EA011312F4806FCE
:101884001CBF23F4706343EA012312F4006F1CBFEE
:1018940023F4704343EA013312F4805F1CBF23F442
:1018A400702343EA014312F4005F1CBF23F4700366
:1018B40043EA015312F4804F1CBF23F0706343EAE0
:1018C4000163120448BF61F31F73046210BC4362D6
:1018D400704700BF034B40F0BF6040F40030D86055
:1018E400704700BF00ED00E0224B10B4DC6804F444
:1018F400E06CBCF5E06F32D0DC6804F4E064B4F56D
:10190400C06F15D0DC6804F4E064B4F5A06F2DD08A
:10191400DC6804F4E064B4F5806F24D00022DB6852
:1019240003F4E063B3F5407F0CBF1346042302E0E5
:10193400032302F007024FF0010C01FA03F31343EF
:101944000D491B010C1800F01F02DBB284F80033B0
:1019540040090CFA02F210BC41F82020704704231D
:1019640002F00F02E7E701231A40E4E7022302F042
:101974000302E0E700ED00E000E100E0012243099A
:10198400044900F01F0002FA00F0203341F823005C
:10199400704700BF00E100E00122830903F18043A6
:1019A40003F50433196800F01F0002FA00F008433D
:1019B400186070470121830903F1804303F5043360
:1019C4001A6800F01F0001FA00F022EA0000186013
:1019D400704700BF0122830903F1804303F50433F8
:1019E400196800F01F0002FA00F0084318607047FD
:1019F4000121830903F1804303F504331A6800F0DD
:101A04001F0001FA00F022EA00001860704700BFCE
:101A140030B589B06C464D4B08AD03F1100E8446C9
:101A24000FCB05E90F009EE8030002AB84E8030036
:101A340083E80300464A5368C3F38103022B2DD085
:101A4400444C434A08A8516853685268C1F30311CF
:101A54000144C2F3C222024411F8101C12F8182CDB
:101A6400C3F30223034424FA01F113F8203C21FABE
:101A740002F0BCF1060F66D8DFE80CF00D3E2B0E29
:101A84002F410400324B1A6B920705D01A6B02F0F7
:101A94000302012A3ED1204609B030BD5468536880
:101AA400C4F383441D012A4B48BF11345A6858BFFC
:101AB4000234D00309D5DB6A264A03F00F0301334D
:101AC400B2FBF3F303FB04F4BBE7234B03FB04F483
:101AD400B7E721FA03F009B030BD1D4B1A6BD105ED
:101AE40025D55B68C3F38133022B22D0032B25D089
:101AF400012B21D04008CFE7084609B030BD144B74
:101B040048F212001B6B13F0400F18BF4FF4004053
:101B140009B030BD1A6B02F00302022A10D01B6B0D
:101B24000C4803F00303032B18BF0020B4E70B4851
:101B3400B2E70B4BA3FB00308008ADE7C008ABE76E
:101B44004FF40040A8E70020A6E700BF7C26000869
:101B54000010024000127A0000093D00809FD50069
:101B6400ABAAAAAA8A6810B4D1E900342343134368
:101B7400D1E90324134323430268D1E905412343F4
:101B840002F441520B4313430360C36910BC23F4B2
:101B94000063C361704700BF036843F04003036000
:101BA400704700BFC1607047C06880B2704700BF13
:101BB40083680B4214BF012000207047036823F49C
:101BC40000530360704700BF08B5374B984242D0BA
:101BD40011D8A3F58E33984247D01DD9334B984280
:101BE4004DD14FF48160FFF7F5FEBDE808404FF496
:101BF4008160FFF7FDBE2E4B984241D003F5806310
:101C040098421AD140F21230FFF7E4FEBDE80840D2
:101C140040F21230FFF7ECBEB0F1804F3AD0A3F59A
:101C2400406398422BD140F20140FFF7D3FEBDE858
:101C3400084040F20140FFF7DBBEA3F50063984281
:101C44001DD14FF44470FFF7C5FEBDE808404FF4C2
:101C54004470FFF7CDBE40F20B30FFF7BBFEBDE88A
:101C6400084040F20B30FFF7C3BE40F20440FFF7D8
:101C7400B1FEBDE8084040F20440FFF7B9BE08BD1C
:101C840040F21130FFF7A6FEBDE8084040F21130E3
:101C9400FFF7AEBE4FF48060FFF79CFEBDE808403E
:101CA4004FF48060FFF7A4BE002C014000200040E8
:101CB40000440140274B0A88984210B4826223D022
:101CC40020F48063B3F1804F1ED004688A8824F026
:101CD400100404600468224302601F4A8C68904226
:101CE400C4620DD004688A8924F4407404600468D2
:101CF40022430260194A934222D0194B98421FD0C2
:101D0400436910BC4361704703684A8823F0100399
:101D1400036004688B8822430260026813430360F3
:101D24000D4B8A689842C262EAD002688B8922F419
:101D3400407202600468074A23439042036005D15D
:101D44008B7B10BC036343694361704720F4806359
:101D5400D0E700BF002C01400010004000400140CB
:101D640000480140036843F001030360704700BF6B
:101D7400036823F001030360704700BF036843F066
:101D840080030360704700BFC3680B43C3607047A0
:101D9400C36823EA0103C360704700BF036989B2C3
:101DA400C26811EA030003D0114214BF01200020CD
:101DB400704700BF036923EA01030361704700BF52
:101DC40010B5032937D8DFE801F002A35D37036AB1
:101DD400118823F001030362046A9388214301629A
:101DE400016A21F002010162016A0B437249036234
:101DF400884240F0D480036A518823F004030362CC
:101E0400046AD38821430162016A21F00801016256
:101E1400016A0B4303624368118923F480734360AE
:101E24004468538921434160426822F4007242604D
:101E340042681343436010BD036AB2F800E023F420
:101E440080530362016AB2F804C041EA0E310162B0
:101E5400016A21F400510162036A574943EA0C33D1
:101E640088420362E7D1554B1089D3F8041C21F44E
:101E74008041C3F8041CD3F8042C42EA8012C3F84E
:101E8400042C10BD036AB2F800E023F480730362EB
:101E9400016AB2F804C041EA0E210162016A21F428
:101EA40000710162036A444943EA0C2388420362D5
:101EB400C1D1016AB2F802C021F480610162036AEF
:101EC400D48843EA0C230362036A23F400630362A5
:101ED400016A3A4B41EA04210162D3F8040C1489E3
:101EE40020F48050C3F8040CD3F8041C508941EA50
:101EF4000411C3F8041CD3F8041C21F40051C3F8E2
:101F0400041CD3F8042C42EA0012C3F8042C10BDBC
:101F1400036AB2F800E023F010030362016AB2F826
:101F240004C041EA0E110162016A21F0200101623C
:101F3400036A214943EA0C13884203627FF47BAFAE
:101F4400016AB2F802C021F040010162036AD48838
:101F540043EA0C130362036A23F080030362016AF9
:101F6400164B41EA04110162D3F8040C148920F4DD
:101F74008060C3F8040CD3F8041C508941EA84013E
:101F8400C3F8041CD3F8041C21F40061C3F8041C36
:101F9400D3F8042C42EA8002C3F8042C10BD084B89
:101FA40020F4806199423FF426AF03F50063984220
:101FB4003FF421AF10BD00BF002C014000200140C0
:101FC4000040014003290BD8DFE801F01C130B0289
:101FD400C36923F4E043C361C36943EA0222C261D3
:101FE4007047C36923F07003C361C3691A43C261B4
:101FF4007047836923F4E0438361836943EA0222DF
:1020040082617047836923F07003836183691A4393
:1020140082617047032904D8DFE801F0080604024E
:1020240002647047C26370478263704742637047BB
:1020340003290BD8DFE801F01C130B02C36923F456
:102044000063C361C36943EA0222C2617047C36982
:1020540023F00803C361C3691A43C26170478369EB
:1020640023F400638361836943EA02228261704737
:10207400836923F00803836183691A43826170478B
:1020840008B50E4B98420DD003F57443984213D112
:1020940040F20E30FFF79EFCBDE8084040F20E30DF
:1020A400FFF7A6BC40F21140FFF794FCBDE80840DE
:1020B40040F21140FFF79CBC08BD00BF0044004043
:1020C40038B5144B044698420D461FD003F57443AB
:1020D400984219D10620FFF79BFC23681B040CD5FA
:1020E400690801EB4000B0FBF5F04FF6F075C0F362
:1020F400420328401843E06038BD00EB5500B0FBB4
:10210400F5F080B2E06038BD0020E6E70220FFF77A
:102114007FFCE2E700440040036843F001030360EE
:10212400704700BF026822F00802026003680B4394
:1021340003607047026822F00402026003680B43E4
:1021440003607047C1F3080181627047406AC0F3BD
:10215400080070478B09185801F01F01C84000F0AF
:10216400010070470123C1F3891210B401F01F016B
:10217400145803FA01F12143115010BC704700BFF9
:102184000123C1F3891C8A0D10B45CF80040125875
:10219400C1F3044003FA00F0104007D001F01F011E
:1021A40003FA01F1214214BF1846002010BC704705
:1021B400C8B908B50B782D2B16D00BD80F2B17D018
:1021C4001E2B0FD102220C4B48781A70BDE8084030
:1021D400FEF750BD3C2B05D1486800BA00F0B2F9B7
:1021E400064B986008BD70470322034B1A7008BD64
:1021F4000122014B1A7008BDB000002048000020E5
:102204002DE9F04F4FF4407083B0FFF763FB40F2C9
:102214001250FFF7C1FB2023002201214948FFF798
:10222400AFF92023032200214648FFF75BFA20215F
:102234004448FFF7CDFAFFF7B9F8FEF7FBFEFEF7C7
:1022440003FEFEF743FB0120FEF714FD002600F019
:102254003FF96D46FEF7BEFD3B4CDFF8F0A0DFF81A
:10226400F090DFF8F080374F2278022AD3B244D0BE
:10227400032B5CD0012B4ED099E80300D8F804302E
:1022840085E80300184600F05BF98346D8F800009F
:1022940000F056F903464FEA1B424FEA1B6C8DF8D7
:1022A40001204FEA1B224FEA136E294600208DF8C5
:1022B40000C08DF802204FEA134C1A0A8DF807303B
:1022C4008DF804E08DF805C08DF806208DF803B074
:1022D400FEF7F8FF20213846FFF784FA0246B2FAE7
:1022E40082F2202152093846FFF776FA322000F0B4
:1022F40011F92278022AD3B2BAD14FF47A7000F0DD
:1023040009F9FEF747FE9AF80030012B01D0FEF7D9
:1023140069FE2670A8E7FEF71FFEFEF705FEFEF72E
:102324000FFBFEF749FAFEF723FD26709CE7FEF744
:1023340013FE9AF80030012BEBD0FEF7F5FD267062
:1023440092E700BF00040048B00000207C00002099
:102354009426000848000020704700BFFEE700BF35
:10236400FEE700BFFEE700BFFEE700BF704700BF07
:10237400704700BF704700BF08B500F0D3F8074AA4
:1023840013780133DBB2022B01D0137008BD002394
:102394001370BDE80840FEF7F3B900BFB100002098
:1023A40008B507490748FFF7EBFE00B908BD054823
:1023B400FFF7CCFEBDE80840C0B2FEF7F3BE00BF95
:1023C400050005070038014010B50121164886B004
:1023D400FFF7E4FC012801D006B010BD0146124805
:1023E400FFF7E8FCFEF76AF9104B1B7883B1104B3A
:1023F40005AC9A6803ABCDE90034002104ABFEF7C9
:10240400D9FB059A04990398FEF770FD06B010BD38
:10241400074B05AC9A6804ABCDE90034002103AB4B
:10242400FEF7C8FBEDE700BF0004004054000020A5
:1024340048000020012110B50D48FFF7AFFC01282A
:1024440000D010BD01460A48FFF7B4FC094B0A4C02
:102454001B78032B05D061680848FEF741FCA06097
:1024640010BD07482168FEF73BFC044B1861F2E7F6
:10247400002000407C000020480000208000002054
:1024840058000020002103E00B4B5B5843500431FB
:102494000A480B4B42189A42F6D30A4A02E0002338
:1024A40042F8043B084B9A42F9D300F04DF800F08F
:1024B400A5F8FFF7A5FE7047A42E00080000002031
:1024C4000800002008000020B4000020FEE70000FF
:1024D4000D4B0E4A1B68A2FB03239B09013BB3F17E
:1024E400807F10D210B44FF0E022002007244FF078
:1024F400F00C0749536181F823C09061146181F89D
:10250400230010BC7047FEE704000020D34D621086
:1025140000ED00E0024A10601368002BFCD1704704
:1025240000000020034B1A6812B11A68013A1A60BD
:10253400704700BF000000200AB100F083B8704764
:10254400704700BF704700BF2A4B10B41A6842F0AE
:1025540001021A601A689007FCD500205C682649BD
:10256400244A21405960596821F0084121F474112A
:102574005960596821F440015960196821F0867145
:1025840021F480311960D96A21F00F01D962196BE5
:1025940021F4A17121F001011963596B21F00101AA
:1025A4005963986059685960596859605968596005
:1025B400596821F0036121F450215960596841F0B0
:1025C400006141F480215960196841F080711960FB
:1025D40013689901FCD55368064923F0030353603B
:1025E400536843F0020353604B681B07FCD510BCCF
:1025F400704700BF001002400C00FF0870B50026B1
:102604000C4D0D4C641BA410A64209D100F022F815
:1026140000260A4D0A4C641BA410A64205D170BDC5
:1026240055F8043B98470136EEE755F8043B9847C4
:102634000136F2E79C2E00089C2E00089C2E000810
:10264400A02E000803460244934200D1704703F8C9
:10265400011BF9E7F8B500BFF8BC08BC9E467047FB
:0C266400F8B500BFF8BC08BC9E467047EB
:10267000FF00000000000000000000FF000000005C
:102680000000000001020304060708090000000022
:102690000102030400000000000000000000000030
:1026A0002975493CDF6EC93C6F0E173D3160493DCD
:1026B0008FA97B3D38F4963D6B0EB03D4721C93D57
:1026C0005E2EE23DEC2FFB3D7F130A3E698C163EE9
:1026D00076FD223EA5662F3E97CA3B3E4A29483EDC
:1026E000807D543EDAC9603E560E6D3EF54A793E15
:1026F0003CBD823E0FD1883EA4DF8E3EFBE8943E77
:10270000C4EB9A3EFFE7A03EFCDEA63E6CCFAC3E9B
:102710004EB9B23EA29CB83E1878BE3EB24BC43E03
:10272000BD18CA3EECDDCF3EED99D53E614FDB3E94
:1027300059FAE03EC39EE63EB038EC3E71C9F13E28
:102740005452F73EBBD0FC3E5322013FB2D7033F69
:10275000D387063FB532093F5AD80B3FC0780E3FAA
:102760004013113F82A8133FDF37163F55C1183F72
:10277000E5441B3F8FC21D3F543A203F8AAB223FA6
:10278000DB16253F9E7B273FD3D9293F7B312C3F4A
:10279000ED812E3F79CC303FD00F333FF14B353FA9
:1027A0008481373FE2AF393F0AD73B3FFDF63D3FDB
:1027B000130F403F9B20423F9E29443F132C463F2E
:1027C0000326483FBD184A3F9B034C3FF3E54D3F6E
:1027D00016C14F3FB493513F745E533F5721553F4D
:1027E0000EDB563F8F8D583FE3365A3FB2D75B3FE3
:1027F000A4705D3F69005F3F5188603F0C07623FF6
:102800009A7C633FA3E9643F274E663F7EA9673FFA
:1028100050FC683F4E456A3FC6856B3F12BD6C3F1A
:1028200031EB6D3F23106F3F412B703FD93D713F1E
:102830009D46723F3546733F9F3C743F3529753F37
:102840009E0C763F32E6763F9AB6773F2C7D783FF6
:10285000EB39793F7CED793F39977A3F22377B3FDF
:1028600036CD7B3F75597C3F87DC7C3F1D557D3FD6
:1028700087C47D3F74297E3F34857E3F77D67E3F77
:102880008E1E7F3F295C7F3FEF8F7F3F88BA7F3F5F
:10289000A5DA7F3FEDF07F3F61FD7F3F0000803F85
:1028A00023F87F3F19E77F3F92CB7F3F37A67F3FDB
:1028B000AF777F3FAB3E7F3FD2FB7E3F25AF7E3F72
:1028C000A3587E3F4DF87D3F228E7D3F221A7D3FEB
:1028D0004E9C7C3FA5147C3F27837B3FD5E77A3F06
:1028E00057437A3F0395793FDBDC783FDF1A783F27
:1028F000B54F773FB77A763FE59B753FE5B3743FB9
:10290000B9C2733FB9C7723F8BC3713F31B6703FD5
:10291000029F6F3FA67E6E3F1D556D3F68226C3F44
:1029200086E66A3F1FA2693FE353683F22FD663F88
:10293000349D653F1A34643F22C3623F5648613F6D
:10294000ACC55F3FD6395E3F7AA55C3F9A085B3FD6
:102950003563593F4AB5573F82FF553F8E40543F3C
:10296000637A523FB4AB503F80D44E3F6FF54C3F3B
:10297000280F4B3F5C20493FB329473FD42B453FAD
:102980001826433F7E18413FB0033F3FABE73C3F33
:1029900072C43A3F5B99383FB667363FDC2E343F0E
:1029A000CCEE313F2FA82F3F5C5A2D3FFB052B3F2C
:1029B0000DAB283F9049263F2EE2233F9773213FDE
:1029C00019FF1E3FB6841C3FC5031A3F957D173F74
:1029D000D8F0143FDD5E123FFCC60F3F35290D3F96
:1029E0002F860A3FECDD073F6A30053FAA7D023F94
:1029F000598BFF3E3012FA3E8A8EF43E0803EF3EBA
:102A0000096DE93EDDCDE33E8525DE3E4F75D83EBE
:102A10003CBDD23EFCFBCC3EDF32C73E3563C13EFF
:102A20005D8ABB3E47ACB53E05C5AF3E84D8A93EE6
:102A300075E5A33E89EA9D3E60EA973EF7E4913E44
:102A400002D98B3ECEC7853EB7627F3EF52D733EE1
:102A5000B7EE663EFDA45A3E65534E3EF0F9413E48
:102A60003D9B353E0E32293EA0C31C3EF44F103E26
:102A70000AD7033EC4B1EE3DB9A5D53DA298BC3DF1
:102A80001B82A33D49658A3D6685623DD637303D50
:102A9000F7C7FB3CC615973C5374C93B5374C9BB7D
:102AA000C61597BCF7C7FBBCD63730BD668562BD7F
:102AB00049658ABD1B82A3BDA298BCBDB9A5D5BD81
:102AC000C4B1EEBD0AD703BEF44F10BEA0C31CBEF6
:102AD0000E3229BE3D9B35BEF0F941BE65534EBE58
:102AE000FDA45ABEB7EE66BEF52D73BEB7627FBEBB
:102AF000CEC785BE02D98BBEF7E491BE60EA97BE11
:102B000089EA9DBE75E5A3BE84D8A9BE05C5AFBE42
:102B100047ACB5BE5D8ABBBE3563C1BEDF32C7BE42
:102B2000FCFBCCBE3CBDD2BE4F75D8BE8525DEBEFB
:102B3000DDCDE3BE096DE9BE0803EFBE8A8EF4BEAB
:102B40003012FABE598BFFBEAA7D02BF6A3005BFA4
:102B5000ECDD07BF2F860ABF35290DBFFCC60FBFAE
:102B6000DD5E12BFD8F014BF957D17BFC5031ABF35
:102B7000B6841CBF19FF1EBF977321BF2EE223BF6F
:102B8000904926BF0DAB28BFFB052BBF5C5A2DBF5C
:102B90002FA82FBFCCEE31BFDC2E34BFB66736BFB7
:102BA0005B9938BF72C43ABFABE73CBFB0033FBFCD
:102BB0007E1841BF182643BFD42B45BFB32947BF5A
:102BC0005C2049BF280F4BBF6FF54CBF80D44EBF70
:102BD000B4AB50BF637A52BF8E4054BF82FF55BF23
:102BE0004AB557BF356359BF9A085BBF7AA55CBF2A
:102BF000D6395EBFACC55FBF564861BF22C362BF56
:102C00001A3464BF349D65BF22FD66BFE35368BFBD
:102C10001FA269BF86E66ABF68226CBF1D556DBFE3
:102C2000A67E6EBF029F6FBF31B670BF8BC371BFF0
:102C3000B9C772BFB9C273BFE5B374BFE59B75BFB7
:102C4000B77A76BFB54F77BFDF1A78BFDBDC78BFC6
:102C5000039579BF57437ABFD5E77ABF27837BBFF8
:102C6000A5147CBF4E9C7CBF221A7DBF228E7DBFE7
:102C70004DF87DBFA3587EBF25AF7EBFD2FB7EBF80
:102C8000AB3E7FBFAF777FBF37A67FBF92CB7FBF03
:102C900019E77FBF23F87FBF000080BF61FD7FBFC2
:102CA000EDF07FBFA5DA7FBF88BA7FBFEF8F7FBF10
:102CB000295C7FBF8E1E7FBF77D67EBF34857EBFE7
:102CC00074297EBF87C47DBF1D557DBF87DC7CBF57
:102CD00075597CBF36CD7BBF22377BBF39977ABF12
:102CE0007CED79BFEB3979BF2C7D78BF9AB677BF81
:102CF00032E676BF9E0C76BF352975BF9F3C74BF08
:102D0000354673BF9D4672BFD93D71BF412B70BF21
:102D100023106FBF31EB6DBF12BD6CBFC6856BBF9B
:102D20004E456ABF50FC68BF7EA967BF274E66BF8D
:102D3000A3E964BF9A7C63BF0C0762BF518860BF80
:102D400069005FBFA4705DBFB2D75BBFE3365ABFF7
:102D50008F8D58BF0EDB56BF572155BF745E53BFD2
:102D6000B49351BF16C14FBFF3E54DBF9B034CBF9A
:102D7000BD184ABF032648BF132C46BF9E2944BF37
:102D80009B2042BF130F40BFFDF63DBF0AD73BBF9C
:102D9000E2AF39BF848137BFF14B35BFD00F33BFAE
:102DA00079CC30BFED812EBF7B312CBFD3D929BF69
:102DB0009E7B27BFDB1625BF8AAB22BF543A20BFBC
:102DC0008FC21DBFE5441BBF55C118BFDF3716BFFB
:102DD00082A813BF401311BFC0780EBF5AD80BBFD3
:102DE000B53209BFD38706BFB2D703BF532201BF95
:102DF000BBD0FCBE5452F7BE71C9F1BEB038ECBEB8
:102E0000C39EE6BE59FAE0BE614FDBBEED99D5BE6A
:102E1000ECDDCFBEBD18CABEB24BC4BE1878BEBE74
:102E2000A29CB8BE4EB9B2BE6CCFACBEFCDEA6BE94
:102E3000FFE7A0BEC4EB9ABEFBE894BEA4DF8EBE43
:102E40000FD188BE3CBD82BEF54A79BE560E6DBE1E
:102E5000DAC960BE807D54BE4A2948BE97CA3BBECF
:102E6000A5662FBE76FD22BE698C16BE7F130ABEF4
:102E7000EC2FFBBD5E2EE2BD4721C9BD6B0EB0BD80
:102E800038F496BD8FA97BBD316049BD6F0E17BD6B
:0C2E9000DF6EC9BC297549BC00000000C1
:042E9C002901000800
:042EA0000501000820
:082EA4000100000000A24A0435
:040000050800248942
:00000001FF
