:020000040800F2
:1000000000100020691D0008B11C0008B51C000884
:10001000B91C0008BD1C0008C11C0008000000003D
:10002000000000000000000000000000C51C0008E7
:10003000C91C000800000000CD1C0008D11C0008ED
:10004000B11D0008B11D0008B11D0008B11D000858
:10005000B11D0008B11D0008B11D0008B11D000848
:10006000B11D0008B11D0008B11D0008B11D000838
:10007000B11D0008B11D0008B11D0008B11D000828
:10008000211D0008B11D000800000000B11D00087E
:10009000B11D0008B11D0008B11D0008B11D000808
:1000A000B11D0008B11D0008B11D0008F91C0008B1
:1000B000B11D000800000000B11D00080000000094
:1000C000B11D000800000000B11D0008B11D0008AE
:1000D000B11D0008B11D0008B11D0008000000009E
:1000E0000000000000000000B11D0008B11D000864
:1000F000B11D0008B11D0008B11D0008B11D0008A8
:04010000B11D000825
:1001040010B5054C237833B9044B13B10448AFF34D
:1001140000800123237010BD0800002000000000AF
:10012400601F000808B5034B1BB103490348AFF334
:10013400008008BD000000000C000020601F0008C3
:100144004FF0FF0C1CEAD0521EBF1CEAD15392EAB6
:100154000C0F93EA0C0F6FD01A4480EA010C400292
:1001640018BF5FEA41211ED04FF0006343EA5010EC
:1001740043EA5111A0FB01310CF00040B1F5000F2E
:100184003EBF490041EAD3715B0040EA010062F1DD
:100194007F02FD2A1DD8B3F1004F40EBC25008BFC7
:1001A40020F00100704790F0000F0CF0004C08BFE5
:1001B40049024CEA502040EA51207F3AC2BFD2F1B2
:1001C400FF0340EAC250704740F400004FF00003C0
:1001D400013A5DDC12F1190FDCBF00F000407047FA
:1001E400C2F10002410021FA02F1C2F1200200FA38
:1001F40002FC5FEA310040F1000053EA4C0308BFFF
:1002040020EADC70704792F0000F00F0004C02BF4F
:10021400400010F4000F013AF9D040EA0C0093F0CA
:10022400000F01F0004C02BF490011F4000F013B24
:10023400F9D041EA0C018FE70CEAD15392EA0C0F92
:1002440018BF93EA0C0F0AD030F0004C18BF31F0FD
:10025400004CD8D180EA010000F00040704790F0D3
:10026400000F17BF90F0004F084691F0000F91F077
:10027400004F14D092EA0C0F01D142020FD193EA3D
:100284000C0F03D14B0218BF084608D180EA0100C5
:1002940000F0004040F0FE4040F40000704740F0A1
:1002A400FE4040F44000704780F0004002E000BF90
:1002B40081F0004142001FBF5FEA410392EA030F4D
:1002C4007FEA226C7FEA236C6AD04FEA1262D2EB97
:1002D4001363C1BFD218414048404140B8BF5B429C
:1002E400192B88BF704710F0004F40F4000020F035
:1002F4007F4018BF404211F0004F41F4000121F04B
:100304007F4118BF494292EA030F3FD0A2F1010294
:1003140041FA03FC10EB0C00C3F1200301FA03F1D2
:1003240000F0004302D5494260EB4000B0F5000FF5
:1003340013D3B0F1807F06D340084FEA310102F1B4
:100344000102FE2A51D2B1F1004F40EBC25008BF66
:1003540020F0010040EA03007047490040EB000030
:10036400013A28BFB0F5000FEDD2B0FA80FCACF131
:10037400080CB2EB0C0200FA0CF0AABF00EBC2505E
:1003840052421843BCBFD0401843704792F0000F4C
:1003940081F4000106BF80F400000132013BB5E79F
:1003A4004FEA41037FEA226C18BF7FEA236C21D015
:1003B40092EA030F04D092F0000F08BF084670477A
:1003C40090EA010F1CBF0020704712F07F4F04D148
:1003D400400028BF40F00040704712F100723CBF5B
:1003E40000F50000704700F0004343F0FE4040F485
:1003F400000070477FEA226216BF08467FEA236343
:100404000146420206BF5FEA412390EA010F40F42D
:10041400800070474FF0000304E000BF10F0004379
:1004240048BF40425FEA000C08BF704743F0964360
:1004340001464FF000001CE050EA010208BF70477B
:100444004FF000030AE000BF50EA010208BF704702
:1004540011F0004302D5404261EB41015FEA010C17
:1004640002BF84460146002043F0B64308BFA3F10F
:100474008053A3F50003BCFA8CF2083AA3EBC253F1
:1004840010DB01FA02FC634400FA02FCC2F1200210
:10049400BCF1004F20FA02F243EB020008BF20F047
:1004A4000100704702F1200201FA02FCC2F12002AD
:1004B40050EA4C0021FA02F243EB020008BF20EAA2
:1004C400DC7070474FF0FF3C06E000BF4FF0010CBA
:1004D40002E000BF4FF0010C4DF804CD4FEA40029A
:1004E4004FEA41037FEA226C18BF7FEA236C11D0E4
:1004F40001B052EA530C18BF90EA010F58BFB2EB97
:10050400030088BFC81738BF6FEAE17018BF40F016
:10051400010070477FEA226C02D15FEA402C05D1CA
:100524007FEA236CE4D15FEA412CE1D05DF8040B4F
:10053400704700BF844608466146FFE70FB5FFF7E2
:10054400C9FF002848BF10F1000F0FBD4DF808ED9A
:10055400FFF7F4FF0CBF012000205DF808FB00BF8B
:100564004DF808EDFFF7EAFF34BF012000205DF8E5
:1005740008FB00BF4DF808EDFFF7E0FF94BF012032
:1005840000205DF808FB00BF4DF808EDFFF7D2FF2F
:1005940094BF012000205DF808FB00BF4DF808ED72
:1005A400FFF7C8FF34BF012000205DF808FB00BF3F
:1005B4004FEA4002B2F1FE4F0FD34FF09E03B3EB6C
:1005C40012620DD94FEA002343F0004310F0004FAC
:1005D40023FA02F018BF404270474FF00000704702
:1005E40012F1610F01D1420205D110F0004008BFA1
:1005F4006FF0004070474FF00000704742000ED289
:10060400B2F1FE4F0BD34FF09E03B3EB126209D449
:100614004FEA002343F0004323FA02F070474FF0FF
:100624000000704712F1610F01D1420202D14FF074
:10063400FF3070474FF00000704700BFF8B500224C
:1006440010214FF0904000F007FE002000F00AFA5D
:100654000446012210214FF0904000F0FDFD1A4E97
:100664001A4A1B4FD2E9000133889BB2C31AC4F360
:100674000F1061F100011C1841F10005C2E90045A9
:100684003080D2E900013C88001BC0F30B042046F3
:10069400FFF7C0FE0F49FFF753FD02460E4B0F490B
:1006A400A3FB0403E01A03EB50035B0A03EBC3034D
:1006B40003EB8313E31A0A6098B2FFF7AFFE08490D
:1006C400FFF73EFDF8BD00BF2400002030000020ED
:1006D40026000020DB0FC93AC1011CC058000020CD
:1006E400E0ED2F3C38B5084D084CD5E90023D4E99A
:1006F4000001111A89B2064800F0FAF8D5E900237E
:10070400C4E9002338BD00BF3000002028000020C9
:10071400380000202DE9F04F002700264FF0000A92
:100724004FF0000B87B005AD04AC4FF47A7001F0C4
:1007340061FB03ABCDE900453A4638464FF07C51A6
:1007440000F006F9059A0499039800F0F7F9DFF828
:100754009C80DFF89C904FF4967001F04BFB32467E
:1007640010214FF09040A9F80060C8E900AB00F0F8
:1007740073FD304600F076F90646012210214FF051
:10078400904000F069FDCDE90045DFF868A0C6F3AC
:100794000F1E3A4639463846D8E90067BAF800C011
:1007A40003AB1FFA8CFCB6EB0C0C67F100061CEBD8
:1007B4000E0446F10005C8E90045AAF800E0D8E9AE
:1007C4000067B9F80050741BC4F30B04A9F8004087
:1007D40000F0BEF80398059A049900F0AFF94FF4BD
:1007E400967001F007FB07B0BDE8F08F30000020E1
:1007F400260000202400002070B500260446154D74
:1008040029462046FFF7CAFE78B131462046FFF755
:10081400C5FE50B120462946FFF74AFD0446294645
:100824002046FFF7BBFE0028EFD131462046FFF7F4
:1008340097FE28B120462946FFF73CFD0446DFE732
:1008440005492046FFF77CFCFFF7B2FE034B53F843
:10085400200070BDDB0FC94083F9A242A41F000829
:1008640070B501461748FFF723FD00260446164DD0
:1008740029462046FFF792FE78B131462046FFF71D
:100884008DFE50B120462946FFF712FD0446294645
:100894002046FFF783FE0028EFD131462046FFF7BC
:1008A4005FFE28B120462946FFF704FD0446DFE732
:1008B40006492046FFF744FCFFF77AFE044B53F841
:1008C400200070BDDA0FC93FDB0FC94083F9A24293
:1008D400A41F000810B5044C20220021204601F07A
:1008E4009BFA024BE36110BD380000207C59443F61
:1008F40010B5037804465A1CD2B20B2A00EB43030A
:1009040059800ABF002302700370C288838801895A
:10091400134442880B444189134482891944C3898E
:100924001144028A0B44408A1A44A38A0244E08A8E
:100934001344064A1844A2FB0030C008FFF76AFDBE
:10094400E169FFF7FDFBA06110BD00BFA38B2EBAC8
:100954002DE9F84316461F460D460446FFF780FF6F
:1009640081462046FFF748FF314680464846FFF758
:10097400E7FB294604464046FFF7E2FB01462046D2
:10098400FFF798FC294604464846FFF7D9FB314651
:1009940005464046FFF7D4FB01462846FFF788FC8E
:1009A4002E49FFF7CDFB4FF07C5105462046FFF75B
:1009B400C7FB01462846FFF77DFC21460546FFF7A5
:1009C40077FC002D06462EDB00282EDB002C36DBC0
:1009D40021462046FFF76EFC2946FFF769FC0446D2
:1009E40005F100461E492846FFF7AAFB4FF07C514B
:1009F400FFF760FC03461A493B602046FFF7A0FB63
:100A04004FF07C51FFF756FC0346089A14491360D3
:100A14003046FFF795FB4FF07C51FFF74BFC099BE9
:100A24001860BDE8F883002807DB28463146FFF745
:100A340041FC04F100460546D4E7002CC8DB2946F6
:100A44002046FFF735FC0346294620461C46FFF79F
:100A540031FC354600F10046C4E700BFD7B35D3F23
:100A64003ECF733D10B5044602210A4800F0C2FD92
:100A74000028F9D02146074800F0B6FD01210548B9
:100A840000F0B8FD0028F9D0BDE81040014800F09E
:100A9400ADBD00BF00300140D0B540F2115088B068
:100AA40000F0ACFC40F20C6000F0A8FCE022002155
:100AB4004FF0904000F0DCFBE023002202214FF0D5
:100AC400904000F09FFAE023032200214FF0904071
:100AD40000F04AFB1023002201214FF0904000F067
:100AE40091FA1023032200214FF0904000F03CFBC8
:100AF40010214FF0904000F0ADFB4FF400624FF432
:100B040000731821CDE902234FF4827600220123D9
:100B14000027094CCDE9042320460691CDE900675E
:100B240000F06EFD2046694600F03EFD204600F0D0
:100B340055FD08B0D0BD00BF00300140F8B5104BE2
:100B44000446186816460F46FFF764FC214604461F
:100B5400FFF7F6FAFFF752FD4FF08045034639469A
:100B64006B632046FFF7ECFAFFF748FD0346314676
:100B7400AB632046FFF7E4FAFFF740FDE863F8BDF6
:100B84006000002030B5124C85B040F2017000F0D6
:100B940035FC204600F03AFD00257C234722204600
:100BA400694600920293ADF80450ADF80C5000F081
:100BB400A3FD0121204600F003FE204600F0F4FDD1
:100BC4002A460221102000F0CFFB05B030BD00BF43
:100BD4000004004070B540F2115088B000F00EFCE3
:100BE4004FF4E06000F00AFC4FF0804000F00EFD8E
:100BF4000123002202214FF0904000F003FA012368
:100C0400032200214FF0904000F0AEFA00220223AC
:100C14001446012519464FF0904000F0F3F921469F
:100C2400022303224FF0904000F09EFA2246042350
:100C340002214FF0904000F0E5F9042321460322FD
:100C44004FF0904000F090FA2A4602214FF0904075
:100C540000F00EFB02224FF09040114600F008FB1A
:100C6400042202214FF0904000F002FB354B364E37
:100C740004934FF4617304A94FF0804033600693EA
:100C8400ADF81440ADF81C408DF81E4000F034FD62
:100C9400214601AA4FF08040ADF80840ADF8045059
:100CA40000F0A4FD294601AA4FF0804000F09EFD0B
:100CB40001AA02214FF0804000F098FD32682146DD
:100CC400EA404FF0804000F0BBFE214660224FF026
:100CD400804000F08DFE224621464FF0804000F017
:100CE400BDFE32682946EA404FF0804000F0A8FE7D
:100CF400294660224FF0804000F07AFE22462946C1
:100D04004FF0804000F0AAFE32680221EA404FF022
:100D1400804000F095FE02214FF08040602200F0F8
:100D240067FE224602214FF0804000F097FE4FF00C
:100D3400804000F03FFD4FF0804000F035FD08B0EA
:100D440070BD00BF010040006000002030B5444C7D
:100D540083B02378012B05D0D9B202291DD0A1B1CB
:100D640003B030BD3F4BFF281A7868D00A2AF7D069
:100D74001A783D4988541A780132D2B21A701B7815
:100D84000A2BEDD102232370EAE7FF28E8D10125DD
:100D94000A22344B344825704BE0FF2844D1324DAD
:100DA40000212A782170D34303F00F03B3EB121F01
:100DB4004FEA121CD4D16A786B7AA52A43D013F077
:100DC400010F18BFFF229C078DF800204CBFFF22A3
:100DD400AA7859078DF801204CBFFF22EA788DF8D4
:100DE40002201A074CBFFF222A79DC068DF8032063
:100DF4004CBFFF226A7999068DF804204CBFFF226C
:100E0400AA796C468DF805205A064CBFFF22EA7970
:100E1400DB0908BF287A8DF806208DF807002146E3
:100E2400604600F0DBFE9BE700210E4B0A220E48D1
:100E34002170197003B0BDE8304000F0EDBF002A06
:100E44008ED00021F2E7A52BB9D16C4601460822C9
:100E5400204600F0E1FF95F800C04FEA1C1CDEE7D5
:100E64006F0000206E000020640000200B4670B567
:100E7400364A84B001AD044607CA85E8070019461E
:100E84001A782046FF2A0CBF01238DF806204A78E1
:100E940018BF0023FF2A18BF8DF807208A7808BFDF
:100EA40043F00203FF2A18BF8DF80820CA7808BF50
:100EB40043F00403FF2A18BF8DF809200A7908BFFC
:100EC40043F00803FF2A18BF8DF80A204A7908BFA7
:100ED40043F01003FF2A18BF8DF80B208A7908BF4E
:100EE40043F02003FF2A18BF8DF80C20CA7908BFED
:100EF40043F04003FF2A1CD08DF80D208DF80E30EE
:100F0400C34303F00F0343EA0010114C04AE8DF801
:100F14000500204615F8011B00F02AFE40F2077177
:100F2400204600F02DFE0028F8D0B542F1D104B0DF
:100F340070BD43F08003FF2B8DF80E30E0D1A52364
:100F44008DF806308DF80E30DAE700BF781F000800
:100F54000038014010B5002201211B2000F004FAE2
:100F640040F2115000F04AFA40F20E6000F046FAE6
:100F74004FF4007201214FF0904000F079F94FF4E2
:100F8400806201214FF0904000F072F94FF4007339
:100F9400012202214FF0904000F034F84FF4007326
:100FA400012200214FF09040154C00F0DDF84FF481
:100FB4008063012202214FF0904000F023F84FF4A7
:100FC4008063012200214FF0904000F0CDF82046CC
:100FD40000F06CFD20464FF4E13100F087FD20461F
:100FE400082100F0B5FD0421204600F0B9FD20469B
:100FF40000F0A8FD2046BDE81040052100F0C8BD62
:101004000038014013F0010F30B40568C46806D0FD
:1010140025F0030C24F003044CEA0105144313F0F7
:10102400020F07D025F00C0C24F00C044CEA8105C7
:1010340044EA820413F0040F07D025F0300C24F0A6
:1010440030044CEA011544EA021413F0080F07D0E7
:1010540025F0C00C24F0C0044CEA811544EA821443
:1010640013F0100F07D025F4407C24F440744CEAAC
:10107400012544EA022413F0200F07D025F4406C24
:1010840024F440644CEA812544EA822413F0400F9E
:1010940007D025F4405C24F440544CEA013544EA7A
:1010A400023413F0800F07D025F4404C24F440445C
:1010B4004CEA813544EA823413F4807F07D025F466
:1010C400403C24F440344CEA014544EA024413F41D
:1010D400007F07D025F4402C24F440244CEA8145B9
:1010E40044EA824413F4806F07D025F4401C24F4AE
:1010F40040144CEA015544EA025413F4006F07D03B
:1011040025F4400C24F440044CEA815544EA82540A
:1011140013F4805F07D025F0407C24F040744CEA3F
:10112400016544EA026413F4005F07D025F0406CC3
:1011340024F040644CEA816544EA826413F4804FED
:1011440007D025F0405C24F040544CEA017544EA91
:1011540002741B0444BF61F39F7562F39F740560BE
:10116400C46030BC704700BF012941680CBF1943FB
:1011740099434160816813F0010F1CBF21F0030102
:10118400114313F0020F1CBF21F00C0141EA82014C
:1011940013F0040F1CBF21F0300141EA021113F0D7
:1011A400080F1CBF21F0C00141EA821113F0100F97
:1011B4001CBF21F4407141EA022113F0200F1CBF2F
:1011C40021F4406141EA822113F0400F1CBF21F455
:1011D400405141EA023113F0800F1CBF21F4404119
:1011E40041EA823113F4807F1CBF21F4403141EA8B
:1011F400024113F4007F1CBF21F4402141EA8241E3
:1012040013F4806F1CBF21F4401141EA025113F41E
:10121400006F1CBF21F4400141EA825113F4805F46
:101224001CBF21F0407141EA026113F4005F1CBF4E
:1012340021F0406141EA826113F4804F1CBF21F028
:10124400405141EA02711B0448BF62F39F718160FF
:10125400704700BF816170470AB181617047816244
:10126400704700BF43690B4214BF01200020704740
:1012740010B4046A12F0010F1CBF24F00F040C43D5
:1012840012F0020F1CBF24F0F00444EA011412F01F
:10129400040F1CBF24F4706444EA012412F0080F04
:1012A4001CBF24F4704444EA013412F0100F1CBF34
:1012B40024F4702444EA014412F0200F1CBF24F4E7
:1012C400700444EA015412F0400F18BF24F0706413
:1012D400436A18BF44EA016412F0800F18BF61F337
:1012E4001F7412F4807F1CBF23F00F030B4312F40E
:1012F400007F1CBF23F0F00343EA011312F4806F54
:101304001CBF23F4706343EA012312F4006F1CBF73
:1013140023F4704343EA013312F4805F1CBF23F4C7
:10132400702343EA014312F4005F1CBF23F47003EB
:1013340043EA015312F4804F1CBF23F0706343EA65
:101344000163120448BF61F31F73046210BC43625B
:10135400704700BF034B40F0BF6040F40030D860DA
:10136400704700BF00ED00E0224B10B4DC6804F4C9
:10137400E06CBCF5E06F32D0DC6804F4E064B4F5F2
:10138400C06F15D0DC6804F4E064B4F5A06F2DD010
:10139400DC6804F4E064B4F5806F24D00022DB68D8
:1013A40003F4E063B3F5407F0CBF1346042302E06B
:1013B400032302F007024FF0010C01FA03F3134375
:1013C4000D491B010C1800F01F02DBB284F8003336
:1013D40040090CFA02F210BC41F8202070470423A3
:1013E40002F00F02E7E701231A40E4E7022302F0C8
:1013F4000302E0E700ED00E000E100E001228309E0
:1014040003F1804303F50433196800F01F0002FA66
:1014140000F00843186070470122830903F18043F8
:1014240003F50433196800F01F0002FA00F00843C2
:10143400186070470121830903F1804303F50433E5
:101444001A6800F01F0001FA00F022EA0000186098
:10145400704700BF30B589B06C464D4B08AD03F101
:10146400100E84460FCB05E90F009EE8030002AB83
:1014740084E8030083E80300464A5368C3F3810306
:10148400022B2DD0444C434A08A851685368526833
:10149400C1F303110144C2F3C222024411F8101C27
:1014A40012F8182CC3F30223034424FA01F113F8AD
:1014B400203C21FA02F0BCF1060F66D8DFE80CF0FC
:1014C4000D3E2B0E2F410400324B1A6B920705D0B0
:1014D4001A6B02F00302012A3ED1204609B030BD46
:1014E40054685368C4F383441D012A4B48BF113424
:1014F4005A6858BF0234D00309D5DB6A264A03F080
:101504000F030133B2FBF3F303FB04F4BBE7234BF8
:1015140003FB04F4B7E721FA03F009B030BD1D4B17
:101524001A6BD10525D55B68C3F38133022B22D016
:10153400032B25D0012B21D04008CFE7084609B062
:1015440030BD144B48F212001B6B13F0400F18BF50
:101554004FF4004009B030BD1A6B02F00302022AB6
:1015640010D01B6B0C4803F00303032B18BF00209F
:10157400B4E70B48B2E70B4BA3FB00308008ADE7A0
:10158400C008ABE74FF40040A8E70020A6E700BF7F
:10159400841F00080010024000127A0000093D0078
:1015A400809FD500ABAAAAAA8A6810B4D1E90034F6
:1015B40023431343D1E90324134323430268D1E9AA
:1015C4000541234302F441520B4313430360C369AF
:1015D40010BC23F40063C361704700BF036843F089
:1015E40040030360704700BFC1607047C06880B2A9
:1015F400704700BF83680B4214BF0120002070476E
:10160400036823F400530360704700BF08B5374BE9
:10161400984242D011D8A3F58E33984247D01DD9B1
:10162400334B98424DD14FF48160FFF7F5FEBDE88E
:1016340008404FF48160FFF7FDBE2E4B984241D025
:1016440003F5806398421AD140F21230FFF7E4FEAA
:10165400BDE8084040F21230FFF7ECBEB0F1804F15
:101664003AD0A3F5406398422BD140F20140FFF7F2
:10167400D3FEBDE8084040F20140FFF7DBBEA3F50E
:10168400006398421DD14FF44470FFF7C5FEBDE8D6
:1016940008404FF44470FFF7CDBE40F20B30FFF723
:1016A400BBFEBDE8084040F20B30FFF7C3BE40F27A
:1016B4000440FFF7B1FEBDE8084040F20440FFF7E4
:1016C400B9BE08BD40F21130FFF7A6FEBDE80840E0
:1016D40040F21130FFF7AEBE4FF48060FFF79CFE7E
:1016E400BDE808404FF48060FFF7A4BE002C014021
:1016F4000020004000440140274B0A88984210B45F
:10170400826223D020F48063B3F1804F1ED004683A
:101714008A8824F0100404600468224302601F4A8B
:101724008C689042C4620DD004688A8924F44074A1
:101734000460046822430260194A934222D0194B80
:1017440098421FD0436910BC4361704703684A88BC
:1017540023F01003036004688B882243026002684C
:10176400134303600D4B8A689842C262EAD0026850
:101774008B8922F4407202600468074A2343904232
:10178400036005D18B7B10BC0363436943617047DD
:1017940020F48063D0E700BF002C0140001000401B
:1017A4000040014000480140036843F00103036026
:1017B400704700BF036843F080030360704700BFB5
:1017C400C3680B43C3607047036989B2C26811EAF6
:1017D400030003D0114214BF01200020704700BF52
:1017E400036923EA01030361704700BF10B50329AD
:1017F40037D8DFE801F002A35D37036A118823F0CC
:1018040001030362046A938821430162016A21F09F
:1018140002010162016A0B4372490362884240F08B
:10182400D480036A518823F004030362046AD388D2
:1018340021430162016A21F008010162016A0B433C
:1018440003624368118923F48073436044685389B5
:1018540021434160426822F40072426042681343AB
:10186400436010BD036AB2F800E023F480530362BE
:10187400016AB2F804C041EA0E310162016A21F43E
:1018840000510162036A574943EA0C3388420362F8
:10189400E7D1554B1089D3F8041C21F48041C3F8D7
:1018A400041CD3F8042C42EA8012C3F8042C10BDA3
:1018B400036AB2F800E023F480730362016AB2F8A9
:1018C40004C041EA0E210162016A21F4007101623F
:1018D400036A444943EA0C2388420362C1D1016A82
:1018E400B2F802C021F480610162036AD48843EA39
:1018F4000C230362036A23F400630362016A3A4B14
:1019040041EA04210162D3F8040C148920F48050C4
:10191400C3F8040CD3F8041C508941EA0411C3F839
:10192400041CD3F8041C21F40051C3F8041CD3F89C
:10193400042C42EA0012C3F8042C10BD036AB2F866
:1019440000E023F010030362016AB2F804C041EA24
:101954000E110162016A21F020010162036A21492A
:1019640043EA0C13884203627FF47BAF016AB2F846
:1019740002C021F040010162036AD48843EA0C13D7
:101984000362036A23F080030362016A164B41EA8F
:1019940004110162D3F8040C148920F48060C3F8A4
:1019A400040CD3F8041C508941EA8401C3F8041CD4
:1019B400D3F8041C21F40061C3F8041CD3F8042CEC
:1019C40042EA8002C3F8042C10BD084B20F4806165
:1019D40099423FF426AF03F5006398423FF421AFE8
:1019E40010BD00BF002C0140002001400040014018
:1019F40003290BD8DFE801F01C130B02C36923F49D
:101A0400E043C361C36943EA0222C2617047C36908
:101A140023F07003C361C3691A43C26170478369C9
:101A240023F4E0438361836943EA022282617047BD
:101A3400836923F07003836183691A438261704769
:101A4400032904D8DFE801F00806040202647047A1
:101A5400C2637047826370474263704703290BD89F
:101A6400DFE801F01C130B02C36923F40063C361B4
:101A7400C36943EA0222C2617047C36923F00803C1
:101A8400C361C3691A43C2617047836923F4006365
:101A94008361836943EA022282617047836923F088
:101AA4000803836183691A438261704708B50E4B4A
:101AB40098420DD003F57443984213D140F20E308E
:101AC400FFF7AAFCBDE8084040F20E30FFF7B2BCB5
:101AD40040F21140FFF7A0FCBDE8084040F211407D
:101AE400FFF7A8BC08BD00BF0044004038B5144B44
:101AF400044698420D461FD003F57443984219D109
:101B04000620FFF7A7FC23681B040CD5690801EB2A
:101B14004000B0FBF5F04FF6F075C0F342032840E7
:101B24001843E06038BD00EB5500B0FBF5F080B21F
:101B3400E06038BD0020E6E70220FFF78BFCE2E717
:101B440000440040036843F001030360704700BF92
:101B5400026822F00802026003680B4303607047C6
:101B6400026822F00402026003680B4303607047BA
:101B7400C1F3080181627047406AC0F308007047EE
:101B84008B09185801F01F01C84000F0010070478C
:101B94000123C1F3891210B401F01F01145803FA90
:101BA40001F12143115010BC704700BF0123C1F360
:101BB400891C8A0D10B45CF800401258C1F304402B
:101BC40003FA00F0104007D001F01F0103FA01F1FD
:101BD400214214BF1846002010BC7047FFF746B9D5
:101BE40080B54FF4407082B0FFF7B4FB40F212505E
:101BF400FFF704FC2023002201212848FFF702FA02
:101C04002023032200212548FFF7AEFA2021234890
:101C1400FFF720FB4FF00008FFF79CF96D46FEF735
:101C2400D9FFFEF739FFFEF755FE00F0C1F8FEF7C5
:101C340071FDFEF7A7FF1A4F1A4CDFF86C90174E90
:101C4400A36997E8030085E80300184600F0E8F864
:101C54000346A0691B0A8DF8003000F0E1F8034642
:101C64004146A0698DF80130FEF770FC0346294611
:101C740000200BB1C4F81890FFF7F8F82021304683
:101C8400FFF7F0FA0246B2FA82F2304620215209F6
:101C9400FFF7E2FA282000F0ADF8D1E7000400488D
:101CA4009C1F000838000020DA0F4940704700BF2D
:101CB400FEE700BFFEE700BFFEE700BFFEE700BF90
:101CC400704700BF704700BF704700BF10B5084C95
:101CD40000F098F823780133DBB223702378022BC9
:101CE40000D010BDFEF7FEFC0023237010BD00BF22
:101CF4007000002008B507490748FFF757FF00B9EF
:101D040008BD0548FFF738FFBDE80840C0B2FFF73B
:101D14001DB800BF050005070038014010B50121BA
:101D24000E4886B0FFF750FD012801D006B010BD63
:101D340001460A48FFF754FD05ACFEF77FFC04ABEF
:101D4400CDE90034002103AB054AFEF701FE059AF4
:101D540004990398FEF7F2FE06B010BD000400409B
:101D64009A99193F002103E00B4B5B58435004310F
:101D74000A480B4B42189A42F6D30A4A02E000235F
:101D840042F8043B084B9A42F9D300F061F800F0A2
:101D9400B9F8FFF725FF7047AC27000800000020C2
:101DA400080000200800002074000020FEE7000066
:101DB4000D4B0E4A1B68A2FB03239B09013BB3F1A5
:101DC400807F10D210B44FF0E022002007244FF09F
:101DD400F00C0749536181F823C09061146181F8C4
:101DE400230010BC7047FEE704000020D34D6210AE
:101DF40000ED00E0024A10601368002BFCD170472C
:101E040000000020034B1A6812B11A68013A1A60E4
:101E1400704700BF000000200AB100F097B8704777
:101E240010B500210446FEF791FB60B9E20D074BA3
:101E3400703A03EA1443C4F349309202184302F49B
:101E4400F843184310BD002010BD00BF0080FFFF01
:101E54002A4B10B41A6842F001021A601A689007FB
:101E6400FCD500205C682649244A21405960596801
:101E740021F0084121F474115960596821F440019A
:101E84005960196821F0867121F480311960D96A8A
:101E940021F00F01D962196B21F4A17121F0010124
:101EA4001963596B21F001015963986059685960AD
:101EB4005968596059685960596821F0036121F4DF
:101EC40050215960596841F0006141F48021596002
:101ED400196841F08071196013689901FCD5536841
:101EE400064923F003035360536843F0020353602D
:101EF4004B681B07FCD510BC704700BF00100240A4
:101F04000C00FF0870B500260C4D0D4C641BA4108A
:101F1400A64209D100F022F800260A4D0A4C641B9F
:101F2400A410A64205D170BD55F8043B984701366C
:101F3400EEE755F8043B98470136F2E7A42700087A
:101F4400A4270008A4270008A82700080346024481
:101F5400934200D1704703F8011BF9E7F8B500BFBD
:101F6400F8BC08BC9E467047F8B500BFF8BC08BC76
:041F74009E467047CE
:101F7800FF00000000000000000000FF000000005B
:101F88000000000001020304060708090000000021
:101F9800010203040000000000000000000000002F
:101FA8002975493CDF6EC93C6F0E173D3160493DCC
:101FB8008FA97B3D38F4963D6B0EB03D4721C93D56
:101FC8005E2EE23DEC2FFB3D7F130A3E698C163EE8
:101FD80076FD223EA5662F3E97CA3B3E4A29483EDB
:101FE800807D543EDAC9603E560E6D3EF54A793E14
:101FF8003CBD823E0FD1883EA4DF8E3EFBE8943E76
:10200800C4EB9A3EFFE7A03EFCDEA63E6CCFAC3E9A
:102018004EB9B23EA29CB83E1878BE3EB24BC43E02
:10202800BD18CA3EECDDCF3EED99D53E614FDB3E93
:1020380059FAE03EC39EE63EB038EC3E71C9F13E27
:102048005452F73EBBD0FC3E5322013FB2D7033F68
:10205800D387063FB532093F5AD80B3FC0780E3FA9
:102068004013113F82A8133FDF37163F55C1183F71
:10207800E5441B3F8FC21D3F543A203F8AAB223FA5
:10208800DB16253F9E7B273FD3D9293F7B312C3F49
:10209800ED812E3F79CC303FD00F333FF14B353FA8
:1020A8008481373FE2AF393F0AD73B3FFDF63D3FDA
:1020B800130F403F9B20423F9E29443F132C463F2D
:1020C8000326483FBD184A3F9B034C3FF3E54D3F6D
:1020D80016C14F3FB493513F745E533F5721553F4C
:1020E8000EDB563F8F8D583FE3365A3FB2D75B3FE2
:1020F800A4705D3F69005F3F5188603F0C07623FF5
:102108009A7C633FA3E9643F274E663F7EA9673FF9
:1021180050FC683F4E456A3FC6856B3F12BD6C3F19
:1021280031EB6D3F23106F3F412B703FD93D713F1D
:102138009D46723F3546733F9F3C743F3529753F36
:102148009E0C763F32E6763F9AB6773F2C7D783FF5
:10215800EB39793F7CED793F39977A3F22377B3FDE
:1021680036CD7B3F75597C3F87DC7C3F1D557D3FD5
:1021780087C47D3F74297E3F34857E3F77D67E3F76
:102188008E1E7F3F295C7F3FEF8F7F3F88BA7F3F5E
:10219800A5DA7F3FEDF07F3F61FD7F3F0000803F84
:1021A80023F87F3F19E77F3F92CB7F3F37A67F3FDA
:1021B800AF777F3FAB3E7F3FD2FB7E3F25AF7E3F71
:1021C800A3587E3F4DF87D3F228E7D3F221A7D3FEA
:1021D8004E9C7C3FA5147C3F27837B3FD5E77A3F05
:1021E80057437A3F0395793FDBDC783FDF1A783F26
:1021F800B54F773FB77A763FE59B753FE5B3743FB8
:10220800B9C2733FB9C7723F8BC3713F31B6703FD4
:10221800029F6F3FA67E6E3F1D556D3F68226C3F43
:1022280086E66A3F1FA2693FE353683F22FD663F87
:10223800349D653F1A34643F22C3623F5648613F6C
:10224800ACC55F3FD6395E3F7AA55C3F9A085B3FD5
:102258003563593F4AB5573F82FF553F8E40543F3B
:10226800637A523FB4AB503F80D44E3F6FF54C3F3A
:10227800280F4B3F5C20493FB329473FD42B453FAC
:102288001826433F7E18413FB0033F3FABE73C3F32
:1022980072C43A3F5B99383FB667363FDC2E343F0D
:1022A800CCEE313F2FA82F3F5C5A2D3FFB052B3F2B
:1022B8000DAB283F9049263F2EE2233F9773213FDD
:1022C80019FF1E3FB6841C3FC5031A3F957D173F73
:1022D800D8F0143FDD5E123FFCC60F3F35290D3F95
:1022E8002F860A3FECDD073F6A30053FAA7D023F93
:1022F800598BFF3E3012FA3E8A8EF43E0803EF3EB9
:10230800096DE93EDDCDE33E8525DE3E4F75D83EBD
:102318003CBDD23EFCFBCC3EDF32C73E3563C13EFE
:102328005D8ABB3E47ACB53E05C5AF3E84D8A93EE5
:1023380075E5A33E89EA9D3E60EA973EF7E4913E43
:1023480002D98B3ECEC7853EB7627F3EF52D733EE0
:10235800B7EE663EFDA45A3E65534E3EF0F9413E47
:102368003D9B353E0E32293EA0C31C3EF44F103E25
:102378000AD7033EC4B1EE3DB9A5D53DA298BC3DF0
:102388001B82A33D49658A3D6685623DD637303D4F
:10239800F7C7FB3CC615973C5374C93B5374C9BB7C
:1023A800C61597BCF7C7FBBCD63730BD668562BD7E
:1023B80049658ABD1B82A3BDA298BCBDB9A5D5BD80
:1023C800C4B1EEBD0AD703BEF44F10BEA0C31CBEF5
:1023D8000E3229BE3D9B35BEF0F941BE65534EBE57
:1023E800FDA45ABEB7EE66BEF52D73BEB7627FBEBA
:1023F800CEC785BE02D98BBEF7E491BE60EA97BE10
:1024080089EA9DBE75E5A3BE84D8A9BE05C5AFBE41
:1024180047ACB5BE5D8ABBBE3563C1BEDF32C7BE41
:10242800FCFBCCBE3CBDD2BE4F75D8BE8525DEBEFA
:10243800DDCDE3BE096DE9BE0803EFBE8A8EF4BEAA
:102448003012FABE598BFFBEAA7D02BF6A3005BFA3
:10245800ECDD07BF2F860ABF35290DBFFCC60FBFAD
:10246800DD5E12BFD8F014BF957D17BFC5031ABF34
:10247800B6841CBF19FF1EBF977321BF2EE223BF6E
:10248800904926BF0DAB28BFFB052BBF5C5A2DBF5B
:102498002FA82FBFCCEE31BFDC2E34BFB66736BFB6
:1024A8005B9938BF72C43ABFABE73CBFB0033FBFCC
:1024B8007E1841BF182643BFD42B45BFB32947BF59
:1024C8005C2049BF280F4BBF6FF54CBF80D44EBF6F
:1024D800B4AB50BF637A52BF8E4054BF82FF55BF22
:1024E8004AB557BF356359BF9A085BBF7AA55CBF29
:1024F800D6395EBFACC55FBF564861BF22C362BF55
:102508001A3464BF349D65BF22FD66BFE35368BFBC
:102518001FA269BF86E66ABF68226CBF1D556DBFE2
:10252800A67E6EBF029F6FBF31B670BF8BC371BFEF
:10253800B9C772BFB9C273BFE5B374BFE59B75BFB6
:10254800B77A76BFB54F77BFDF1A78BFDBDC78BFC5
:10255800039579BF57437ABFD5E77ABF27837BBFF7
:10256800A5147CBF4E9C7CBF221A7DBF228E7DBFE6
:102578004DF87DBFA3587EBF25AF7EBFD2FB7EBF7F
:10258800AB3E7FBFAF777FBF37A67FBF92CB7FBF02
:1025980019E77FBF23F87FBF000080BF61FD7FBFC1
:1025A800EDF07FBFA5DA7FBF88BA7FBFEF8F7FBF0F
:1025B800295C7FBF8E1E7FBF77D67EBF34857EBFE6
:1025C80074297EBF87C47DBF1D557DBF87DC7CBF56
:1025D80075597CBF36CD7BBF22377BBF39977ABF11
:1025E8007CED79BFEB3979BF2C7D78BF9AB677BF80
:1025F80032E676BF9E0C76BF352975BF9F3C74BF07
:10260800354673BF9D4672BFD93D71BF412B70BF20
:1026180023106FBF31EB6DBF12BD6CBFC6856BBF9A
:102628004E456ABF50FC68BF7EA967BF274E66BF8C
:10263800A3E964BF9A7C63BF0C0762BF518860BF7F
:1026480069005FBFA4705DBFB2D75BBFE3365ABFF6
:102658008F8D58BF0EDB56BF572155BF745E53BFD1
:10266800B49351BF16C14FBFF3E54DBF9B034CBF99
:10267800BD184ABF032648BF132C46BF9E2944BF36
:102688009B2042BF130F40BFFDF63DBF0AD73BBF9B
:10269800E2AF39BF848137BFF14B35BFD00F33BFAD
:1026A80079CC30BFED812EBF7B312CBFD3D929BF68
:1026B8009E7B27BFDB1625BF8AAB22BF543A20BFBB
:1026C8008FC21DBFE5441BBF55C118BFDF3716BFFA
:1026D80082A813BF401311BFC0780EBF5AD80BBFD2
:1026E800B53209BFD38706BFB2D703BF532201BF94
:1026F800BBD0FCBE5452F7BE71C9F1BEB038ECBEB7
:10270800C39EE6BE59FAE0BE614FDBBEED99D5BE69
:10271800ECDDCFBEBD18CABEB24BC4BE1878BEBE73
:10272800A29CB8BE4EB9B2BE6CCFACBEFCDEA6BE93
:10273800FFE7A0BEC4EB9ABEFBE894BEA4DF8EBE42
:102748000FD188BE3CBD82BEF54A79BE560E6DBE1D
:10275800DAC960BE807D54BE4A2948BE97CA3BBECE
:10276800A5662FBE76FD22BE698C16BE7F130ABEF3
:10277800EC2FFBBD5E2EE2BD4721C9BD6B0EB0BD7F
:1027880038F496BD8FA97BBD316049BD6F0E17BD6A
:0C279800DF6EC9BC297549BC00000000C0
:0427A40029010008FF
:0427A800050100081F
:0827AC000100000000A24A0434
:0400000508001D6969
:00000001FF
